:100000000C94E0080C9424090C9424090C94240901
:100010000C9424090C9424090C9424090C942409AC
:100020000C9424090C9424090C9466260C9438270B
:100030000C94B71D0C9424090C9424090C942409E5
:100040000C9424090C9424090C9424090C9424097C
:100050000C9424090C941E1E0C9424090C9424095D
:100060000C9424090C9424090C9424090C9424095C
:100070000C9424090C9424090C9424090C9424094C
:100080000C9424090C9424090C9424090C9424093C
:100090000C9424090C9424090C9424090C9424092C
:1000A0000C9424090C9424090C942409320937096E
:1000B0003C09410946094B09500955095A095F098C
:1000C0006409B50A69096E097309B50A78097D09D9
:1000D000820987098C09910996099B09A009A5093C
:1000E000AA09AF09B409B909BE09C309C809CD09EC
:1000F000D209D709DC09E109E609EB09F009F5099C
:10010000FA09FF09040A090A0E0A130A180A1D0A45
:10011000220A270AB50A2C0A310A360A3B0A400A83
:10012000450A4A0A4F0A540A590A5E0A630A680ACB
:100130006D0AB50A720A770A7C0A810A860A8B0A56
:10014000900A950A9A0A9F0AA40AA90AAE0A150CEF
:100150001B0C1F0C220C260C2A0C2E0C320C370CFC
:100160003B0C3F0C430C460C4A0C4E0C520C560CEC
:100170005B0CEF13EF132214221462148414AC15D9
:10018000AC158F14AC15361536159F15AC15AC157E
:10019000A71543154315431543154315431543153B
:1001A000431543154315431543154315431543158F
:1001B0004315531563156A1571157B152C162C16EE
:1001C0003F163F1635163F163F163F162C162C16B7
:1001D0003B163F163F163B169D27BF27AA28BF2771
:1001E000AA2801282428AA2879288C28013102313C
:1001F00001130213010C020C00013102310116023D
:1002000016010B020B010402040115021501130271
:100210001300013102310106020601070207011233
:1002200002120117021700013102310116021601F4
:1002300014021401150215011702170001310231D1
:100240000113021301150215011202120107020720
:1002500000013102310116021601180218011002C4
:10026000100001310231010A020A010802080001EE
:10027000310231010F020F01080208000131023181
:1002800001070207010C020C0119021900013102D9
:100290003101170217010C020C01100210010802B3
:1002A0000801160216000131023101130213011078
:1002B000021000010F020F01120212010A020A01CC
:1002C0001E021E01270227012602260001370237DF
:1002D0000123022301260226012D022D011E021EEA
:1002E0000127022700011E021E01270227015502D5
:1002F0005501550255000111021101130213013776
:10030000023701130213010C020C0001110211014A
:10031000130213013702370110021001080208010D
:100320000402040111021101E10126022602E1008A
:10033000011102110113021301370237010F020FDD
:10034000010C020C0111021101040204010F020F41
:10035000010A020A013702370111021101120212C9
:10036000011502150110021001E10126022602E129
:1003700000011102110113021301370237010402B7
:1003800004010502050116021601E10126022602FA
:10039000E1000111021101130213013702370104B8
:1003A000020401170217010402040111021101E104
:1003B0000126022602E100011102110113021301BC
:1003C000370237010402040106020601120212017B
:1003D00016021601E10126022602E10001110211B6
:1003E0000113021301370237010402040116021639
:1003F000010C020C0111021101E10126022602E1A9
:100400000001110211011302130137023701170213
:1004100017010402040111021101E1012602260262
:10042000E100011102110113021301370237010625
:100430000206011202120116021601E1012602262D
:1004400002E1000111021101130213013702370109
:10045000160216010C020C0111021101E101260223
:100460002602E100011102110113021301370237C4
:1004700001130213011502150112021201070207EE
:1004800001E10126022602E100011102110113021D
:100490001301370237011602160118021801100263
:1004A0001001E10126022602E100011102110113EF
:1004B0000213013702370116021601140214011546
:1004C00002150117021701E10126022602E10001CF
:1004D0005502550155025501E10126022602E101AE
:1004E0002D022D011E021E01E1012702E10227005B
:1004F0000155025501550255012002200001550207
:100500005501550255011F021F00015502550155A5
:1005100002550001110211011302130137023701C4
:10052000080208011B021B0113021301E10126024C
:100530002602E100011102110113021301370237F3
:10054000010F020F01120212010A020A01E1012643
:10055000022602E100011102110113021301370208
:1005600037010F020F01120212010A020A011E02D4
:100570001E0127022701E10126022602E100010CEB
:10058000020C011102110119021901E101260226D2
:1005900002E1000137023701E10123022302E101F8
:1005A000200220000137023701E10123022302E18A
:1005B000011F021F000104020401170217010402B7
:1005C000040111021101E10126022602E1000104E9
:1005D000020401060206011202120116021601E1CE
:1005E0000126022602E1000104020401160216019E
:1005F0000C020C0111021101E10126022602E100A8
:100600000137023701E10123022302E100011E024A
:100610001E012702270137023701E10123022302CD
:10062000E100013702370155025500013702370159
:100630003802380001E001E10118021802E102E08D
:1006400001270227012002200104020401270227BA
:10065000012802280001E001E10118021802E1026C
:10066000E0011F021F011F021F011E021E010402E2
:1006700004012802280001E001E10118021802E14A
:1006800002E0012702270127022701050205011EBA
:10069000021E012802280001E001E10118021802EF
:1006A000E102E0011F021F011F021F011E021E01C5
:1006B0001E021E012802280001E001E101180218B3
:1006C00002E102E0012702270120022001060206C2
:1006D00001270227012802280001130213010C023E
:1006E0000C00011102110112021201150215011074
:1006F000021001E10126022602E1000110021001B0
:10070000080208010402040111021101E10126029C
:100710002602E1000104020401190219010A020A79
:1007200001E10126022602E10001040204010502A2
:10073000050116021601E10126022602E10001046C
:100740000204011502150106020601170217010431
:1007500002040111021101E10126022602E1000159
:100760000402040115021501060206010602060133
:100770001202120116021601E10126022602E10010
:1007800001040204011502150106020601160216F3
:10079000010C020C0111021101E10126022602E105
:1007A0000001170217010402040111021101E10105
:1007B00026022602E10001060206011202120116BB
:1007C000021601E10126022602E1000116021601CD
:1007D0000C020C0111021101E10126022602E100C6
:1007E000011302130115021501120212010702077B
:1007F00001E10126022602E100011602160118029B
:10080000180110021001E10126022602E100011682
:10081000021601140214011502150117021701E155
:100820000126022602E10001E10123022301260242
:100830002602E1012D022D011E021E01E101270207
:100840002702E10001E10123022302E1012002204D
:100850000001E10123022302E1011F021F00010840
:100860000208011B021B0113021301E101260226EB
:1008700002E100011E021E0127022701E1012302FD
:100880002302E100010F020F0111021101E1012613
:10089000022602E100010F020F01120212010A02F8
:1008A0000A01E10126022602E10001E101370237D7
:1008B00002E1012E022E0001E10136023602E101C1
:1008C0002E022E00010A020A01E10126022602E19F
:1008D000011B021B01E10127022702E100010902BD
:1008E0000901E10126022602E1011B021B01E101CF
:1008F00027022702E10001E00104020402E0014CAA
:10090000024C0001E00104020402E000012702277A
:100910000127022700113012301B001C001D0004AB
:1009200000050006001D30360237022F0030000798
:100930003008302A00133026022702380025022D05
:10094000002E020130143003301A301930240025F3
:10095000002600023015300E301030220221002215
:100960000023002E00E10023020C300D301E001F7A
:100970000020002800004131022402360027000038
:1009800030370000001F302230010001000100015B
:1009900000010007001E30053006302F023002092A
:1009A000300A300100163001000100010001000191
:1009B0000001000100173004301B301C304A005287
:1009C000004B0001001830010021302002500001CE
:1009D000004F00203001000100010001004D0051D6
:1009E000004E001250010001001F02010001000131
:1009F0000001000000113012301B001C001D00041B
:100A000000050006001D30360237022F0030004579
:100A10003007302A00133026022702233024302DDD
:100A2000002E020130143003301A30193024002512
:100A300000260002301530443010302202210022FE
:100A40000023002E00E10026302A302B301E001F2C
:100A50000020002800004331022402360027000055
:100A600030370000001F302230010001000100017A
:100A700000010007001E30053006302F023002252D
:100A8000300A30010027300100010001000100019F
:100A90000001000100283004301B301C304A005295
:100AA000004B00010029302C302130200250000181
:100AB000004F002030010023020C300D304D00515A
:100AC000004E001450010001001F0201000100014E
:100AD0000001000000363037301B001C001D0004F0
:100AE00000050006004130360237022F0030002D8D
:100AF000302E302A00383026022702380025022DF9
:100B0000002E0201303930033040303E30240025C1
:100B100000260002303A30333035302202210022E4
:100B20000023002E00E1003030313032301E001F33
:100B30000020002800004531022402360027000072
:100B400030370000001F3022300100010001000199
:100B500000010007001E30053006302F023002422F
:100B6000302F3001003B3001000100010001000185
:100B700000010001003C30043001003F304A0052C7
:100B8000004B0001003D30010021302002500001E7
:100B9000004F00203001000100010001004D005114
:100BA000004E001050010001001F02010001000171
:100BB000000100000001000100010001000100012E
:100BC000000100010001000100010001000100011D
:100BD000000100010001000100010001000100010D
:100BE00000010001000100010001000100010001FD
:100BF00000010001000100010001000100010001ED
:100C000000010001000100010001000100010001DC
:100C100000010001000100010001000100010001CC
:100C200000010000000100010001000100010001BD
:100C300000010001000100010001000100010001AC
:100C4000000100010001000100010001000100019C
:100C5000000100010001000100010001000100018C
:100C6000000100010001000100010001000100017C
:100C7000000100010001000100010001000100016C
:100C8000000100010001000100010001000100015C
:100C9000000100000001000100010001000100014D
:100CA000000100010001000100010001000100013C
:100CB000000100010001000100010001000100012C
:100CC000000100010001000100010001000100011C
:100CD000000100010001000100010001000100010C
:100CE00000010001000100010001000100010001FC
:100CF00000010001000100010001000100010001EC
:100D000000010000000100010001000100010001DC
:100D100000010001000100010001000100010001CB
:100D200000010001000100010001000100010001BB
:100D300000010001000100010001000100010001AB
:100D4000000100010001000100010001000100019B
:100D5000000100010001000100010001000100018B
:100D6000000100010001000100010001000100017B
:100D7000000100000001000100010001000100016C
:100D8000000100010001000100010001000100015B
:100D9000000100010001000100010001000100014B
:100DA000000100010001000100010001000100013B
:100DB000000100010001000100010001000100012B
:100DC000000100010001000100010001000100011B
:100DD000000100010001000100010001000100010B
:100DE00000010000000100010001000100010001FC
:100DF00000010001000100010001000100010001EB
:100E000000010001000100010001000100010001DA
:100E100000010001000100010001000100010001CA
:100E200000010001000100010001000100010001BA
:100E300000010001000100010001000100010001AA
:100E4000000100010001000100010001000100019A
:100E5000000100000001000100010001000100018B
:100E6000000100010001000100010001000100017A
:100E7000000100010001000100010001000100016A
:100E8000000100010001000100010001000100015A
:100E9000000100010001000100010001000100014A
:100EA000000100010001000100010001000100013A
:100EB000000100010001000100010001000100012A
:100EC000000100000001000100010001000100011B
:100ED000000100010001000100010001000100010A
:100EE00000010001000100010001000100010001FA
:100EF00000010001000100010001000100010001EA
:100F000000010001000100010001000100010001D9
:100F100000010001000100010001000100010001C9
:100F200000010001000100010001000100010001B9
:100F300000010000000100010001000100010001AA
:100F40000001000100010001000100010001000199
:100F50000001000100010001000100010001000189
:100F60000001000100010001000100010001000179
:100F70000001000100010001000100010001000169
:100F80000001000100010001000100010001000159
:100F90000001000100010001000100010001000149
:100FA000000100000001000100010001000100013A
:100FB0000001000100010001000100010001000129
:100FC0000001000100010001000100010001000119
:100FD0000001000100010001000100010001000109
:100FE00000010001000100010001000100010001F9
:100FF00000010001000100010001000100010001E9
:1010000000010001000100010001000100010001D8
:10101000000100000012036B006500790062006FA0
:10102000006100720064000000160371006D006B27
:10103000006200750069006C0064006500720000C9
:10104000000403090409026D00040100A0FA090468
:1010500000000103010100092111010001224000EB
:101060000705810308000A090401000103010200C9
:10107000092111010001224D000705820308000A21
:1010800009040200010300000009211101000122EE
:1010900036000705830308000A0904030001030062
:1010A00000000921110100012239000705840320F5
:1010B00000011201100100000008EDFE6060010057
:1010C0000102000105010906A101050719E029E750
:1010D00015002501950875018102050819012905EA
:1010E0009505750191029501750391010507190098
:1010F00029F71500250195F875018102C005010940
:1011000080A10185021601002603001A81002A83AE
:1011100000751095018100C0050C0901A10185032E
:10112000160100269C021A01002A9C0275109501E6
:101130008100C005010902A1010901A100050919E9
:101140000129051500250195057501810295017597
:101150000381010501093009311581257F9502754B
:1011600008810609381581257F95017508810605D6
:101170000C0A38021581257F950175088106C0C0CB
:1011800005010906A101050719E029E71500250158
:1011900095087501810295017508810105081901FD
:1011A00029059505750191029501750391010507C2
:1011B000190029FF150026FF00950675088100C05B
:1011C00011241FBECFEFDAE0DEBFCDBF04B603FEB1
:1011D00024C08091390290913A02A0913B02B091D3
:1011E0003C028730904BA740B04BB9F410923902C3
:1011F00010923A0210923B0210923C0214BE84B745
:10120000877F84BF88E10FB6F894809360001092C6
:1012100060000FBEE0E0F8E3099511E0A0E0B1E066
:10122000E0EDF4E502C005900D92A633B107D9F7C1
:1012300012E0A6E3B1E001C01D92A933B107E1F7C6
:101240000E94B2230C94662A0C940000DC01462F05
:1012500050E04135510508F088C14A5A5F4FFA0104
:101260000C94162A12968C91811182C17EC112961D
:101270008C91811180C179C112968C9181117EC1AE
:1012800074C112968C9181117CC16FC112968C91A0
:1012900081117AC16AC112968C91811178C165C1A0
:1012A00012968C91811176C160C112968C91811138
:1012B00074C15BC112968C91811172C156C1129694
:1012C0008C91811170C151C112968C9181116EC1A6
:1012D0004CC112968C9181116CC147C112968C91B0
:1012E00081116AC142C112968C91811168C13DC1C0
:1012F00012968C91811166C138C112968C91811120
:1013000064C133C112968C91811162C12EC11296B3
:101310008C91811160C129C112968C9181115EC19D
:1013200024C112968C9181115CC11FC112968C91BF
:1013300081115AC11AC112968C91811158C115C1DF
:1013400012968C91811156C110C112968C91811107
:1013500054C10BC112968C91811152C106C11296D3
:101360008C91811150C101C112968C9181114EC195
:10137000FCC012968C9181114CC1F7C012968C91D1
:1013800081114AC1F2C012968C91811148C1EDC001
:1013900012968C91811146C1E8C012968C918111F0
:1013A00044C1E3C012968C91811142C1DEC01296F5
:1013B0008C91811140C1D9C012968C9181113EC18E
:1013C000D4C012968C9181113CC1CFC012968C91E1
:1013D00081113AC1CAC012968C91811138C1C5C021
:1013E00012968C91811136C1C0C012968C918111D8
:1013F00034C1BBC012968C91811132C1B6C0129615
:101400008C91811130C1B1C012968C9181112EC185
:10141000ACC012968C9181112CC1A7C012968C91F0
:1014200081112AC1A2C012968C91811128C19DC040
:1014300012968C91811126C198C012968C918111BF
:1014400024C193C012968C91811122C18EC0129634
:101450008C91811120C189C012968C9181111EC17D
:1014600084C012968C9181111CC17FC012968C9100
:1014700081111AC17AC012968C91811118C175C060
:1014800012968C91811116C170C012968C918111A7
:1014900014C16BC012968C91811112C166C0129654
:1014A0008C91811110C161C012968C9181110EC175
:1014B0005CC012968C9181110CC157C012968C9110
:1014C00081110AC152C012968C91811108C14DC080
:1014D00012968C91811106C148C012968C9181118F
:1014E00004C143C012968C91811102C13EC0129674
:1014F0008C91811100C139C012968C918111FEC06E
:1015000034C012968C918111FCC02FC012968C9120
:101510008111FAC02AC012968C918111F8C025C0A1
:1015200012968C918111F6C020C012968C91811177
:10153000F4C01BC012968C918111F2C016C0129695
:101540008C918111F0C011C012968C918111EEC066
:101550000CC012968C918111ECC007C012968C9130
:10156000882319F08CEE91E0089580E090E00895D2
:101570008CE099E0089583E099E0089586EF98E083
:1015800008958DED98E0089584EC98E0089587EB38
:1015900098E008958AEA98E0089585E998E008952A
:1015A00084E898E0089583E798E008958EE598E050
:1015B000089581E598E0089584E498E0089587E22D
:1015C00098E008958EE098E0089589EF97E00895F7
:1015D00080EE97E008958BEC97E0089586EB97E016
:1015E000089581EA97E0089580E897E008958FE5EF
:1015F00097E008958EE397E0089589E297E00895D3
:1016000084E197E008958BEF96E0089582EE96E0EE
:10161000089589ED96E0089588EB96E0089587E9AE
:1016200096E0089586E796E0089585E596E00895AA
:1016300084E396E008958BE296E0089582E296E0D6
:1016400008958DE096E0089580E096E0089587EE95
:1016500095E008958EEC95E0089585EB95E008956A
:1016600084EA95E0089583E995E008958EE795E092
:10167000089585E595E0089584E395E0089583E174
:1016800095E008958AE095E008958DEF94E008953F
:1016900080EF94E008958FEC94E008958AEA94E056
:1016A000089589E894E0089584E694E0089583E439
:1016B00094E0089582E294E0089581E094E0089532
:1016C0008CED93E0089587EB93E0089582E993E031
:1016D000089581E793E0089580E393E008958BE017
:1016E00093E0089586EF92E0089585EE92E00895E4
:1016F0008CEC92E0089583EB92E0089586EA92E004
:1017000008958DE892E008958CE792E008958FE6C1
:1017100092E0089582E692E0089581E592E00895CE
:101720008CE392E0089587E292E0089582E192E0EE
:10173000089589EF91E008950895089581E008954E
:10174000089581E008950C949E0B0E941A162FEFC5
:1017500084E39CE0215080409040E1F700C000000D
:101760000C94431EFF920F931F93CF93DF93EC01D2
:101770000881198180916F01811113C08A818823AA
:1017800049F0C8010E94991BF82E682FC8010E94D9
:101790003F1B04C0C8010E946D1BF82EB8018F2D9D
:1017A00004C0C8010E94991BB8010E94F30C8C016F
:1017B000BE010E94A30B882309F405C1BE01C80124
:1017C0000E94030F882309F4FEC0BE01C8010E94D5
:1017D0004911882309F4F7C0053180E7180708F09C
:1017E000A1C0023080E7180708F477C08A818823F7
:1017F00009F47FC00E944B1D811102C00E94311D5F
:101800000E94681D90E090932B0280932A02F801B9
:10181000E350F047E231F10520F4E955FF4F0C9415
:10182000162A80912A02816003C080912A02826078
:1018300080932A024BC080912A028460F9CF809164
:101840002A0213C080912A028061F2CF80912A027D
:101850008062EECF80912A028064EACF80912A02D2
:101860008068E6CF80912A0284608860E1CF809111
:101870002A028E7FDDCF80912A028D7FD9CF809181
:101880002A028B7FD5CF80912A0213C080912A0231
:101890008F7ECECF80912A028F7DCACF80912A027F
:1018A0008F7BC6CF80912A028F77C2CF80912A0288
:1018B0008B7F877FBDCF90912A0297FB882780F985
:1018C00021E0822780FB97F990932A0280912A02D7
:1018D0000E946C1D0E941A1676C0011580E7180739
:1018E00081F001301047A1F081E0809338018093AE
:1018F0003901CE01DF91CF911F910F91FF900C9490
:10190000A10B8A81882309F45EC00E94A50B5BC0ED
:101910008A81882309F457C08091F80181608093FF
:10192000F80151C00C3380E7180711F58A8188232C
:1019300051F0109238010E94E91D90933701809375
:10194000360182E025C08091380181110FC080915D
:101950003601909137010E94F51D883C910530F4C5
:1019600086E20E948D1286E20E94551382E018C022
:101970000D33104709F0B8CF8A81882361F01092A7
:1019800039010E94E91D909337018093360180E26E
:101990000E94A41318C080913901882321F080E2AD
:1019A0000E94AB1310C080913601909137010E94C4
:1019B000F51D883C910598F787E20E948D1287E219
:1019C0000E945513ECCF80E0DF91CF911F910F91D2
:1019D000FF9008950C944F0F0C94510F0C94A00B92
:1019E0000C94EE0C0895E72FF0E097E0899FE00D4E
:1019F000F11D112483E0EE0FFF1F8A95E1F7E60F3A
:101A0000F11DEE0FFF1FEB5EF64F85919491089547
:101A1000880F991F8B5E9F4EFC01859194910895CC
:101A20000E94F30C0E94860E811520E49207B0F507
:101A3000811540E3940708F0DDC0803E9105D8F49D
:101A4000803C910508F06BC0883A910578F4853A9E
:101A5000910508F067C08130910509F456C108F47A
:101A60000DC18430910508F050C108C18D3B91052E
:101A700008F463C003C18F3F910509F048F4803F2B
:101A8000910508F0B1C0883E910508F43EC1F6C04A
:101A9000811520E2920708F0A9C00895811543E559
:101AA000940790F4811522E5920708F0C7C08115CC
:101AB00041E5940708F0BDC0811520E5920708F0C4
:101AC0009CC09F70906A0895811545E59407D0F4F5
:101AD000811524E5920708F0C6C0282F2695269583
:101AE00040E2249F90011124AC014370552781E00E
:101AF00090E002C0880F991F4A95E2F7822B932B42
:101B00009A680895811546E5940708F4B1C09C01D0
:101B100030562115304108F0B1C09F70ADC0805CD7
:101B2000910965C0853A910509F4ABC0863A9105E3
:101B300009F4AAC083E890E40895883A910509F46D
:101B4000A6C0893A910509F4A5C08A3A910509F41D
:101B5000A4C08B3A910509F4A3C08C3A910509F40D
:101B6000A2C08B3B910509F4A1C08C3B910509F4FF
:101B7000A0C08D3A910509F49FC0803B910509F4FE
:101B80009EC08E3A910509F49DC08F3A910509F4E3
:101B90009CC0813B910509F49BC0823B910509F4EF
:101BA0009AC0833B910509F499C0843B910509F4DF
:101BB00098C0853B910509F497C0863B910509F4CF
:101BC00096C0873B910509F495C0883B910509F4BF
:101BD00094C0893B910509F493C08A3B910509F0B3
:101BE00092C08AE296E40895906508959F700E94DD
:101BF000080D08959927906C0895482F437021E0AF
:101C000030E002C0220F331F4A95E2F73C68AC0176
:101C100064E0569547956A95E1F74370342B8F70D1
:101C20008695869540E2849FC0011124822B932BD8
:101C30000895982F8827816F906A0895282F2695F8
:101C4000269540E2249F90011124AC014370552752
:101C500081E090E002C0880F991F4A95E2F7822B3D
:101C6000932B9C680895982F8827846F906A089515
:101C70008F719927982F88279062089580E090E0CF
:101C8000089581E890E4089582E890E4089582EE52
:101C900094E4089589EE94E408958AEE94E4089516
:101CA00085EB94E4089586EB94E4089583EB94E443
:101CB000089584EB94E4089587EB94E408958CEC04
:101CC00094E408958DEC94E4089583E895E40895F0
:101CD0008AE895E4089582E995E4089584E995E415
:101CE000089581E296E4089583E296E4089584E2FB
:101CF00096E4089585E296E4089586E296E40895D0
:101D000087E296E4089580E094E40895823891058E
:101D100049F1B0F48133910509F459C048F489328E
:101D2000910509F44FC08A32910509F455C0089510
:101D30008533910509F441C08933910599F00895DF
:101D4000833E910531F138F4803E910591F0823E59
:101D50009105A9F00895863E910501F1873E910510
:101D600039F1089520912A0220FD3BC021FD39C0A0
:101D7000089580912A0280FF34C089E341C0809198
:101D80002A0282FF32C080912A0284FF2CC080E0A8
:101D900037C080912A0282FD28C0F5CF80912A02A7
:101DA00083FF25C080912A0284FDF1CF87EE28C0F1
:101DB00080912A0283FD1BC0F5CF80912A0285FF06
:101DC00018C019C080912A0285FF15C012C08091E9
:101DD0002A0286FF12C013C080912A0286FF0FC01C
:101DE0000CC080EE0DC083EE0BC082EE09C086EE03
:101DF00007C085E305C089E203C081E301C08AE230
:101E000090E008950895CF93DF93EC01FB01828168
:101E1000811102C081E040C080914701811125C03D
:101E2000C531D047B9F70E94020F81E08093470186
:101E30000E94E91D909346018093450110923A015A
:101E400010923C0110923B0110923E0110923D0114
:101E50001092400110923F011092420110924101F4
:101E6000109244011092430116C080914501909157
:101E700046010E94F51D883C910560F680913A016B
:101E8000E82FF0E0EE0FFF1FE55CFE4FD183C0832B
:101E90008F5F80933A0180E0DF91CF9108950C9499
:101EA0009C0B0C949D0BCF93DF9385B7806885BF07
:101EB00085B7806885BFA3E1B1E021E030E08D9176
:101EC000E82FE295EF70F0E041A18F70B90102C0F8
:101ED000660F771F8A95E2F7CB01962F90954923DD
:101EE00041A392A1982B92A371E0AB31B70739F7C8
:101EF000ABE1B1E021E030E08D91E82FE295EF70A9
:101F0000F0E041A18F70B90102C0660F771F8A957A
:101F1000E2F7CB01962F9095492341A392A1982BEC
:101F200092A371E0A232B70739F7E6E5F1E0CFE41A
:101F3000D1E0A8E4B1E0119219921D9281E0ED3553
:101F4000F807C9F7DF91CF910C94EA0C4F925F929A
:101F50007F928F929F92AF92BF92CF92DF92EF9239
:101F6000FF920F931F93CF93DF9303E111E0412C76
:101F7000512CEE24E394F12CDD24D394E8018991D3
:101F80008E01E82FE295EF70F0E021A18F70A7019C
:101F900002C0440F551F8A95E2F7CA01242B21A3E2
:101FA00022A1A42EA0942A2122A350EA5A95F1F747
:101FB0009701042C01C0220F0A94EAF7822E722E98
:101FC00070942BE131E0A8E4B1E0B12CBD01CC90DC
:101FD000E90199909E01492D42954F7050E0EA0128
:101FE00048A150E0D92DDF700D2E02C055954795C0
:101FF0000A94E2F740FD03C04C2D482902C04C2D45
:1020000047214C931196EB014881C41611F0BB2473
:10201000B394D1E022323D07C9F691A19A2191A350
:1020200092A1982B92A3BB2041F0D0925D010E9417
:10203000E91D90935F0180935E01EFEF4E1A5E0AF7
:10204000F8E04F16510409F099CF80915D01882383
:10205000A1F080915E0190915F010E94F51D0697AD
:1020600060F0E8E4F1E0A6E5B1E081918D9321E034
:10207000EF34F207D1F710925D010E94EC0C81E081
:10208000DF91CF911F910F91FF90EF90DF90CF9054
:10209000BF90AF909F908F907F905F904F900895EA
:1020A000E82FF0E0EA5AFE4F808108950895282F26
:1020B000882339F090E02A3010F44D960895069761
:1020C000089587E290E00895E0910001F091010108
:1020D00080818093250281FF03C081EE0E94551309
:1020E0008091250285FF03C085EE0E9455138091E3
:1020F000250280FF03C080EE0E94551380912502C7
:1021000084FF03C084EE0E9455138091250282FF54
:1021100003C082EE0E9455138091250286FF03C002
:1021200086EE0E9455138091250283FF03C083EE43
:102130000E9455138091250287FF03C087EE0E94FD
:102140005513809160018130A1F078F0823011F157
:10215000843049F586EE0E948D1286EE0E9455135A
:1021600088E10E948D1288E11CC082EE0E948D12CF
:102170001AC080EE0E948D1281EE0E948D1288E1BD
:102180000E948D1288E10E94551381EE0E94551322
:1021900080EE07C082EE0E948D1287E50E948D12AC
:1021A00087E50E9455138FE39CE90197F1F700C082
:1021B0000000089580916001813029F010F0823094
:1021C00041F482EE04C08CE20E948D128CE20E94E7
:1021D00055138091250281FF03C081EE0E948D126C
:1021E0008091250285FF03C085EE0E948D128091AB
:1021F000250280FF03C080EE0E948D12809125028F
:1022000084FF03C084EE0E948D128091250282FF1C
:1022100003C082EE0E948D128091250286FF03C0CA
:1022200086EE0E948D128091250283FF03C083EE0B
:102230000E948D128091250287FF03C087EE0C94C7
:102240008D120895FF920F931F93CF93DF938C010C
:10225000CCE0D0E0C8010C2E02C0969587950A9478
:10226000E2F7282F2F70F22E822F0E9457100E9423
:102270008D128F2D0E9457100E9455132497CC3F2A
:102280008FEFD80739F7DF91CF911F910F91FF9012
:102290000895CF93DF93EC01C13080E8D80760F058
:1022A000FB018281882341F00E946410CE019F7758
:1022B0000E9422110E94DA1081E0DF91CF910895EF
:1022C00090936601809365010895E0916501F09116
:1022D0006601309721F00190F081E02D099480E0B3
:1022E0000895E0916501F0916601309721F0028038
:1022F000F381E02D09940895E0916501F091660164
:10230000309721F00480F581E02D09940895209103
:102310006301309164018217930771F09093640117
:1023200080936301E0916501F0916601309721F09F
:102330000680F781E02D0994089520916101309184
:1023400062018217930771F090936201809361019B
:10235000E0916501F0916601309721F00084F185EC
:10236000E02D0994089508950C94B3110E94E01D86
:102370000E94530F0C94AA1ECF92DF92EF92FF920D
:102380000F931F93CF93DF93CDB7DEB72B970FB685
:10239000F894DEBF0FBECDBF0E94A60F38E6E32E35
:1023A00031E0F32E00E010E0C02E802F0E9450108C
:1023B000F701D1907F01D826B1F40F5F1F4F07308E
:1023C000110591F78FEF89838A831B820E94E91D93
:1023D0008160782F9D838C8349815A816B818D81A7
:1023E0000E945F1241C09091F80191FF04C08B8759
:1023F0000E9456108B8520E030E04D2D50E0922F4A
:10240000BA01022E02C0759567950A94E2F760FF43
:1024100025C02E83CF82EE24E394F12C02C0EE0C73
:10242000FF1C9A95E2F790E08E219F2121E0892BF5
:1024300009F420E028870E94E91D8160782F9A879F
:1024400089874E815F8168858A850E945F12F801C5
:10245000E859FE4F80818E25808306C02F5F3F4F55
:102460002830310561F6A9CF0E944A2110916701F9
:102470000E9465111817A1F00E94651180936701F1
:102480002B960FB6F894DEBF0FBECDBFDF91CF9174
:102490001F910F91FF90EF90DF90CF900C94F00C74
:1024A0002B960FB6F894DEBF0FBECDBFDF91CF9154
:1024B0001F910F91FF90EF90DF90CF900895CF93F1
:1024C000DF93CDB7DEB72B970FB6F894DEBF0FBE04
:1024D000CDBF4F83588769877A878B87DE01119636
:1024E00086E0FD0111928A95E9F785E0FE013796B5
:1024F00001900D928A95E1F749815A816B817C8127
:102500008D819E810E94E4182B960FB6F894DEBF51
:102510000FBECDBFDF91CF910895882309F4C4C0C9
:10252000823859F40E94651181FDBEC089E30E9482
:10253000381C0E94021D89E30CC0833871F40E948C
:10254000651180FDB1C083E50E94381C0E94021D08
:1025500083E50E94781C0C94021D843859F40E9473
:10256000651182FDA1C087E40E94381C0E94021DF3
:1025700087E4EFCF9CEF980F913A18F40E94381C33
:10258000EACF90E2980F983050F4877091E001C044
:10259000990F8A95EAF7892F0E94B91CDCCF9BE539
:1025A000980F933070F4853A29F0863A31F482E836
:1025B00090E005C081E890E002C083E890E00C94D0
:1025C000871198E5980F953108F06EC0883A61F14F
:1025D000893A69F18A3A71F18B3A79F18C3A81F151
:1025E0008B3B89F18C3B91F18D3A99F1803BA1F1C4
:1025F0008E3AA9F18F3AB1F1813BB9F1823BC1F139
:10260000833BC9F1843BD1F1853BD9F1863BE1F1B4
:10261000873BE9F1883BF1F1893BF9F18A3B09F00D
:102620003FC08AE292E03EC082EE90E03BC089EE7D
:1026300090E038C08AEE90E035C085EB90E032C083
:1026400086EB90E02FC083EB90E02CC084EB90E011
:1026500029C087EB90E026C08CEC90E023C08DEC85
:1026600090E020C083E891E01DC08AE891E01AC0A4
:1026700082E991E017C084E991E014C081E292E020
:1026800011C083E292E00EC084E292E00BC085E2CA
:1026900092E008C086E292E005C087E292E002C0C4
:1026A00080E090E00C949D110895882309F44BC0BC
:1026B000823859F40E94651181FF45C089E30E9468
:1026C000381C0E94021D89E30CC0833871F40E94FB
:1026D000651180FF38C083E50E94381C0E94021DEE
:1026E00083E50E94781C0C94021D843859F40E94E2
:1026F000651182FF28C087E40E94381C0E94021DD9
:1027000087E4EFCF9CEF980F913A58F390E2980F3F
:10271000983050F4877091E001C0990F8A95EAF7DC
:10272000892F0E94BF1CDFCF9BE5980F933020F4C8
:1027300080E090E00C948711885A853120F480E085
:1027400090E00C949D110895882321F00E94B91CFB
:102750000C94021D0895882321F00E94BF1C0C9444
:10276000021D08958F929F92AF92BF92CF92DF92F7
:10277000EF92FF920F931F93CF93DF931F92CDB7EA
:10278000DEB74C01A62E472FFC01E580E2948FE0D6
:10279000E822F280FF2021F079830E94D61C498133
:1027A00049830E94311C4981882381F0FF2071F008
:1027B00080E28A0D883050F082E00E941A1C0E944C
:1027C000311CBB24B394B826498101C0B12CE42F3D
:1027D000E295EF70F0E0E754FF4F0C94162A842F37
:1027E000807F142F1F70882311F01295107FFF2017
:1027F00099F0112309F499C180E28A0D883010F014
:10280000A11004C0812F0E94B91C03C0812F0E9417
:10281000C91C0E94021D89C18A2D0E9455131123D3
:1028200009F49AC180E28A0D883010F0A11004C02A
:10283000812F0E94BF1C03C0812F0E94CF1C0E94C9
:10284000021D8AC1242F207F842F8F70203211F027
:102850008295807FAA2021F0F1E0AF16B1F021C06F
:10286000FF2041F0EE2039F191E0E91224C00E94EE
:10287000E91C72C1EE2021F0E1E0EE1609F46CC112
:1028800089830E94EC1C89810BC1FF2029F0F5E0AF
:10289000FE1508F461C10FC094E09E1508F45CC1F8
:1028A000FFC0FF2059F0EE2031F0F401958190FF38
:1028B0003CC19F7095830E94A4134EC1EE2009F481
:1028C000EFC039C1242F26952695237030E02115BD
:1028D000310521F02130310561F03EC1FF2021F0AA
:1028E0008A2D942F937002C080E090E00E9487119F
:1028F00033C1FF2021F08A2D942F937002C080E015
:1029000090E00E949D1128C18A2DFF2019F00E949D
:10291000522002C00E94BA200E943F211DC1842F74
:10292000837009F04EC0F11017C12A2D229526950B
:102930002770220F220F8A2D8F70C82ED12CE12CE8
:10294000F12C022E04C0CC0CDD1CEE1CFF1C0A94E2
:10295000D2F7A4FE10C06FE070E080E090E004C009
:10296000660F771F881F991F2A95D2F7609570957B
:102970008095909503C060E070E0CB01242F2695F0
:102980002695237030E02230310569F0233031057F
:1029900089F06C297D298E299F292130310571F01C
:1029A0000E94361AD9C06C297D298E299F290E9440
:1029B000501AD2C00E94361AC701B6010E941C1AD2
:1029C000CBC0FF2019F0842F817001C08695882329
:1029D00009F4C2C02A2D229526952770220F220FB6
:1029E0008A2D8F70C82ED12CE12CF12C022E04C020
:1029F000CC0CDD1CEE1CFF1C0A94D2F7A4FE10C008
:102A00006FE070E080E090E004C0660F771F881FE1
:102A1000991F2A95D2F7609570958095909503C07F
:102A200060E070E0CB01242F26952695237030E0DE
:102A30002230310569F02330310589F06C297D2978
:102A40008E299F292130310571F00E940A1B84C014
:102A50006C297D298E299F290E94241B7DC00E94FC
:102A60000A1BC701B6010E94F01A76C00A2D10E0B9
:102A7000F801E05EF109E531F10508F052C0E753D5
:102A8000FF4F0C94162A1A2D1F70842F8F71FF2070
:102A900021F00E94891A812F0ECF0E94AA1A812F3D
:102AA0000E94AB1359C0FF2049F0F4E0FE1508F472
:102AB00053C0842F8F710E94CF1A4EC085E08E15AF
:102AC00008F44AC0F6CFFF2039F0842F8F710E949E
:102AD000891A42C0FF20C9F3842F8F710E94AA1A5D
:102AE0003BC0FF2029F0842F8F710E94741A34C0DC
:102AF0000E946A1A31C0FF2051F0142F1F71812FDC
:102B00000E94891A63E0812F0E94111C25C081E078
:102B10000E941A1C91E09E15F8F482E00E941A1C93
:102B20001BC0FF2031F0EE2081F28A2D0E948D1211
:102B300013C0EE2089F28A2D0E9455130DC04F70EC
:102B40006A2DC4010E9426090E94911905C04F7088
:102B50006A2DC4010E94F20CBB20F1F00E940D1CF2
:102B600080FD1AC0F40112820E94071C0E94891A7B
:102B7000C4010E94DA150E94071C0F90DF91CF91CB
:102B80001F910F91FF90EF90DF90CF90BF90AF908B
:102B90009F908F900C94AA1A0F90DF91CF911F9164
:102BA0000F91FF90EF90DF90CF90BF90AF909F90EC
:102BB0008F9008950F931F93CF93DF93EC0128819B
:102BC00039818B819C81892B31F03F3F11F080E06E
:102BD00003C02F3FE1F781E0811113C0CE010E94B5
:102BE000B20B882371F0688179818A810E94E41B8D
:102BF0008C010E943E1B0E94111AB801CE010E9456
:102C0000B213DF91CF911F910F9108950E94D61CAE
:102C10000E94E61C0E94AB1C0E94021D0E94EB2138
:102C20000E943F2180E090E00E94871180E090E0C8
:102C30000C949D110E94C61C0C9406160E94D91B70
:102C4000E92FE295EF70F0E03297EE30F105B8F43D
:102C5000E252FF4F0C94162A803F59F018F4803E40
:102C600070F407C0843F59F404C0803E10F0813FE7
:102C700031F481E0089593FB882780F9089580E07E
:102C80000895CF93DF9300D000D01F92CDB7DEB769
:102C90000F900F900F900F900F90DF91CF910895AC
:102CA000CF93DF9300D000D000D0CDB7DEB726960B
:102CB0000FB6F894DEBF0FBECDBFDF91CF91089560
:102CC0001F93CF93DF93C091700116E08091710143
:102CD000C81799F0D0E01C9FF0011D9FF00D112442
:102CE000EE58FE4F408151816281738184819581CC
:102CF0000E9450162196C770E9CFDF91CF911F91A6
:102D000008954091A2015091A3016091A401709196
:102D1000A5018091A6019091A7010C945016CF9324
:102D20008091A70182958F7009F05FC08091A40106
:102D3000882309F45AC020917001A091710160911B
:102D4000A2017091A3018091A5019091A60131E0AB
:102D50006F3F09F030E0B32FC6E02A1709F445C0F1
:102D6000009721F07F3F21F44B2F03C041E001C0C9
:102D700040E030E040FD35C0C29FF001C39FF00D40
:102D80001124EE58FE4F418174132BC0408164130F
:102D900028C04281411125C04381548148175907F9
:102DA00010F441505109481B590B483C5105C8F4D7
:102DB0008091A7018F7080618093A70186E0829F38
:102DC000F001839FF00D1124E958FE4F80818F7030
:102DD0008061808382EA91E00E94DA15CF910C94A1
:102DE00060162F5F3F4F2770B8CFCF910895CF92D5
:102DF000DF92EF92FF920F931F93CF93DF93CDB7A4
:102E0000DEB762970FB6F894DEBF0FBECDBF8C0160
:102E100085E0F801DE011D9601900D928A95E1F79B
:102E2000D8014C9111965C91119712966C91129762
:102E30001396ED90FC9014977091A201E091A3017C
:102E40002091A5013091A6012115310531F0EF3F08
:102E500031F481E07F3F19F403C081E001C080E0DC
:102E6000B82FB170CB2E80FD6CC1D090A401DD20B5
:102E700009F4F5C0F091A701E216F30638F0C70196
:102E8000821B930B883C910548F09BC020953095A0
:102E90002E0D3F1D283C310508F093C08F2F807FF9
:102EA00009F052C0E51314C0741312C0D62E61117C
:102EB0000FC0FF70F061F093A7010E94811682EAB3
:102EC00091E00E94DA158091A701F80185836CC119
:102ED000EF2831F05F3F31F481E04F3F19F403C038
:102EE00081E001C080E080FD03C081E0862701C051
:102EF00080E0F82FF170FF2E80FF1CC080917001E0
:102F00002091710136E0821709F428C190E0389FC2
:102F1000F001399FF00D1124EE58FE4F71815713C7
:102F200006C07081471303C07281671303C0019606
:102F30008770E9CFD62E662309F436C18091A701A8
:102F400081608093A70153C0E51308C0741306C0C5
:102F5000611104C0D8011596FC93AEC04D875E8701
:102F60008D859E856A8B0E941E166A89882329F1A9
:102F7000D62E662311F12091A701822F82958F70A2
:102F800090E002970CF460C08091A2019091A3019F
:102F900098878F831986FB86EA862C87CE01079651
:102FA00051C0E51731F14D875E878D859E856A8B0F
:102FB0000E941E166A8981112EC0C8010E94DA156E
:102FC000A4C08F2F807F69F77E2DF98AE88A8989CE
:102FD0000E94411682EA91E00E94DA15E2EAF1E0ED
:102FE00086E0DF011D928A95E9F70E948116D12CB7
:102FF000DBC07413D8CF6111D6CFD8011596FC93DE
:10300000C8010E94DA15E2EAF1E086E0DF011D92D4
:103010008A95E9F7C9C0D62E662379F22091A701D7
:10302000822F82958F7090E0029774F08091A201B8
:103030009091A3019A8389831B82FD82EC822E8367
:10304000CE0101960E94DA1586E0F801A2EAB1E00D
:1030500001900D928A95E1F70E948F166FC0E216DB
:10306000F30628F0C701821B930B9C0104C0209536
:1030700030952E0D3F1D283C310508F052C0D62E4C
:10308000662309F49ACFE5132CC074132AC08091EB
:10309000A70180FD1DC0982F92959F70C9F0D8019F
:1030A00015968C9315979F3039F09F5F9295907F7E
:1030B0008F70892B15968C93C8010E94DA1586E0D3
:1030C000F801A2EAB1E001900D928A95E1F736C0CD
:1030D00086E0F801A2EAB1E001900D928A95E1F74D
:1030E00063C04D875E878D859E850E941E1688234E
:1030F00079F086E0F801A2EAB1E001900D928A959C
:10310000E1F70E948F160E948116DD24D3944CC0F3
:103110008091A70181608093A701C8010E94DA1500
:1031200043C07E2DF98AE88A89890E944116E2EA25
:10313000F1E086E0DF011D928A95E9F70E94811691
:1031400033C0662309F439CF4D875E878D859E8510
:103150000E941E16882309F430CFCBCF4D875E879F
:103160008D859E850E94D91B292F22952F7030E0D6
:10317000223031052CF49F7041F0811106C00CC043
:10318000243031052CF49F7049F4805E883020F0A3
:10319000C8010E94DA15CF2CDC2C06C0D801159688
:1031A0009C91907F91F7F8CF8D2D62960FB6F89491
:1031B000DEBF0FBECDBFDF91CF911F910F91FF906A
:1031C000EF90DF90CF9008951F93CF93DF93CDB70B
:1031D000DEB72C970FB6F894DEBF0FBECDBF4F837E
:1031E000588769877A878B879C87CE0107960E94CC
:1031F000F7168823C1F02F8138858A859B85892B16
:1032000031F03F3F11F080E003C02F3FE1F781E054
:10321000811147C04F81588569857A858B859C854A
:103220000E9450163EC086E0FE013796DE011196E0
:1032300001900D928A95E1F7FF81E8854A855B85CB
:103240004115510531F0EF3F31F481E0FF3F19F4B2
:1032500003C081E001C080E080FD23C020917101A6
:1032600030E0C9010196877099276091700170E084
:1032700086179707F1F1F983EA835D834C8396E023
:10328000929FD001939FB00D1124AE58BE4FFE0106
:10329000319601900D929A95E1F7809371010E9409
:1032A000601616E08091700190917101891779F193
:1032B000189FC00111248E589E4F0E94F716882334
:1032C00031F1E09170011E9FF0011124EE58FE4F84
:1032D0004081518162817381848195810E94501661
:1032E0008091700190E0019687709927809370011A
:1032F000D9CF0E941A161092710110927001E2EA61
:10330000F1E086E0DF011D928A95E9F7CACF2C969D
:103310000FB6F894DEBF0FBECDBFDF91CF911F91E6
:103320000895EF92FF920F931F93CF93DF93FC01C9
:10333000009709F46FC0F12CEE24E394EF0121967D
:103340008491843740F4843008F055C0813081F096
:10335000823021F15FC0853709F447C0C0F19CE796
:10336000980F903708F056C08F770E94551345C0CC
:103370008F010E5F1F4FFE01849190E2980F9830ED
:1033800050F48770FE2D01C0FF0F8A95EAF78F2F4A
:103390000E94D91C15C00E948D1214C08F010E5FAF
:1033A0001F4FFE01849190E2980F983068F4877067
:1033B000FE2D01C0FF0F8A95EAF78F2F0E94DF1CB8
:1033C0000E94021DE80119C00E945513FBCFCF01D6
:1033D0000296FE01C491CC2361F0EFE9FFE0319742
:1033E000F1F700C00000C150F6CFCF010296FE01F8
:1033F000F490EC0102C00E948D128F2D882341F0C1
:10340000EFE9FFE03197F1F700C000008150F6CFFF
:10341000FE0194CFDF91CF911F910F91FF90EF901C
:10342000089508956093CF017093D0018093D101E6
:103430009093D2010C9406160F931F930091CF0125
:103440001091D0012091D1013091D201062B172B80
:10345000282B392B0093CF011093D0012093D10159
:103460003093D2011F910F910C9406160F931F9366
:103470000091CF011091D0012091D1013091D20162
:1034800006231723282339230093CF011093D0015B
:103490002093D1013093D2011F910F910C94061605
:1034A0000F931F930091CF011091D0012091D10172
:1034B0003091D20106271727282739270093CF01FB
:1034C0001093D0012093D1013093D2011F910F911D
:1034D0000C9406161092CB011092CC011092CD01E3
:1034E0001092CE010C94061641E050E060E070E0CE
:1034F00004C0440F551F661F771F8A95D2F740936B
:10350000CB015093CC016093CD017093CE010C940C
:10351000061641E050E060E070E004C0440F551F23
:10352000661F771F8A95D2F78091CB019091CC01CD
:10353000A091CD01B091CE01842B952BA62BB72B5A
:103540008093CB019093CC01A093CD01B093CE0199
:103550000C94061641E050E060E070E004C0440FB7
:10356000551F661F771F8A95D2F740955095609535
:1035700070958091CB019091CC01A091CD01B0913B
:10358000CE0184239523A623B7238093CB01909368
:10359000CC01A093CD01B093CE010C94061641E06E
:1035A00050E060E070E004C0440F551F661F771FB5
:1035B0008A95D2F78091CB019091CC01A091CD0159
:1035C000B091CE0184279527A627B7278093CB01FA
:1035D0009093CC01A093CD01B093CE010C9406162C
:1035E0000F931F930091CB011091CC012091CD013D
:1035F0003091CE01062B172B282B392B0093CB01B2
:103600001093CC012093CD013093CE011F910F91E7
:103610000C9406160F931F930091CB011091CC01CF
:103620002091CD013091CE01062317232823392381
:103630000093CB011093CC012093CD013093CE01A8
:103640001F910F910C9406160F931F930091CB01BD
:103650001091CC012091CD013091CE010627172782
:10366000282739270093CB011093CC012093CD015B
:103670003093CE011F910F910C940616089528E007
:10368000929F800D1124482F469546954695877048
:10369000B1E001C0BB0F8A95EAF785E0489FA00121
:1036A000112448555E4F80E090E070E0FA01E80F89
:1036B000F91FA0819B01082E02C0369527950A9418
:1036C000E2F72170332721952A272B232A272083ED
:1036D00001968530910551F7089528E0929F800D5D
:1036E0001124682F669566956695982F977085E0EA
:1036F000689FB001112468557E4F40E050E080E0A3
:10370000FB01E40FF51F208130E0092E02C0369541
:1037100027950A94E2F721703327042E01C0220F67
:103720000A94EAF7822B4F5F5F4F4530510541F70E
:103730000895CF92DF92EF92FF920F931F93CF9352
:10374000DF93EC01C090CF01D090D001E090D10187
:10375000F090D2018091CB019091CC01A091CD014C
:10376000B091CE01C82AD92AEA2AFB2A0FE110E03B
:10377000B701A601002E04C0769567955795479529
:103780000A94D2F740FD05C00150110988F780E086
:1037900007C0BE01802F0E94100D0197A9F3802F52
:1037A000DF91CF911F910F91FF90EF90DF90CF901D
:1037B0000895CF93DF93EC010E94991BBE010E94F4
:1037C000100DDF91CF9108951F93CF93DF93EB01FD
:1037D00090916F01992321F0CB010E94D91B13C056
:1037E000882349F0CB010E94991B182F682FCE0126
:1037F0000E943F1B04C0CB010E946D1B182FBE010D
:10380000812F0E94100DDF91CF911F91089580911B
:10381000D30185958595859508958091D30187700D
:10382000089598E0899F90011124622B6093D30141
:103830000C94891A4091D301809584238093D301FD
:10384000982F977069F450E0282F332727FD309583
:103850004217530729F08595859585950C94AA1AEA
:1038600008959091D301977081E009F480E0089564
:10387000909112019923D9F090912A0297FF17C0D5
:10388000982F9695969596959F3188F5E091000131
:10389000F0910101E90FF11D877021E030E001C0D6
:1038A000220F8A95EAF78181822B818308954091C6
:1038B00000015091010120E030E09FEFFA01E20F9A
:1038C000F31F6281681799F09F3F19F4611101C0DD
:1038D000922F2F5F3F4F2E31310581F79F3F39F0F7
:1038E000FA01E90FF11D97FDFA9582830895089575
:1038F000909112019923E1F090912A0297FF18C04C
:10390000982F9695969596959F3120F5E091000118
:10391000F0910101E90FF11D877021E030E001C055
:10392000220F8A95EAF72095818128232183089523
:10393000409100015091010120E030E0FA01E20FD6
:10394000F31F9281981301C012822F5F3F4F2E31D7
:103950003105A1F7089581E090E0E0910001F09138
:103960000101E80FF91F1082019680329105A9F735
:1039700008959091F701982B9093F7010895809501
:103980009091F70198239093F70108951092F70111
:1039900008959091F601982B9093F60108958095E3
:1039A0009091F60198239093F60108951092F601F4
:1039B00008959091F501982B9093F50108958095C5
:1039C0009091F50198239093F50108951092F501D7
:1039D00008958093D40108951092D40108954091E0
:1039E00000015091010120E030E080E0FA01E20F97
:1039F000F31F918191118F5F2F5F3F4F2F31310561
:103A0000A9F70895E0910001F09101018091F7017B
:103A10008083E0910001F091010180819091F60195
:103A2000892B8083E0910001F091010180819091C8
:103A3000F501892B80839091D401992361F0E09165
:103A40000001F09101018081892B80830E94EF1C8D
:103A500081111092D40180910001909101010C9488
:103A600071116DEE7EEF80E090E00E94502A60E0E0
:103A700082E090E00E943E2A60E083E090E00E94B5
:103A80003E2A60E084E090E00E943E2A60E085E00B
:103A900090E00C943E2A80E090E00E94382A21E0D9
:103AA0008D3E9E4F09F020E0822F089582E090E045
:103AB0000C94302A682F82E090E00C943E2A83E038
:103AC00090E00C94302A682F83E090E00C943E2A1A
:103AD00084E090E00C94302A682F84E090E00C940D
:103AE0003E2A80913002843021F11092F90120E4C5
:103AF00088E190E00FB6F894A895809360000FBE1F
:103B00002093600080E00E94F00C83B7817F846086
:103B100083BF83B7816083BF7894889583B78E7F96
:103B200083BF88E10FB6F894809360001092600024
:103B30000FBE089508950895CF930E949A1D0E9484
:103B4000A60F0E949B1DC0E08C2F0E945010811177
:103B500005C0CF5FC730C1F780E001C081E0CF91E1
:103B600008950E941A160E9465110C94F00C1F9281
:103B70000F920FB60F9211248F939F93AF93BF9321
:103B80008091F901811113C0809126029091270242
:103B9000A0912802B09129024196A11DB11D8093E8
:103BA000260290932702A0932802B0932902BF9186
:103BB000AF919F918F910F900FBE0F901F9018950E
:103BC00082E084BD93E095BD9AEF97BD80936E002F
:103BD00008952FB7F8948091260290912702A09122
:103BE0002802B09129022FBF0895CF92DF92EF9261
:103BF000FF920F931F932FB7F89440912602509194
:103C0000270260912802709129022FBF6A017B016F
:103C1000EE24FF248C0120E030E0C016D106E2063D
:103C2000F30610F441505109481B590BCA011F916A
:103C30000F91FF90EF90DF90CF9008951F920F9219
:103C40000FB60F9211248F939F93AF93BF938091E0
:103C5000260290912702A0912802B0912902019694
:103C6000A11DB11D8093260290932702A0932802E4
:103C7000B0932902BF91AF919F918F910F900FBE8A
:103C80000F901F9018950E94EB25F8942FEF87EA6C
:103C900091E6215080409040E1F700C0000087E0AD
:103CA00090EBDC018093390290933A02A0933B029F
:103CB000B0933C022CE088E190E00FB6F894A89510
:103CC000809360000FBE20936000FFCFDF92EF92E1
:103CD000FF920F931F93CF93DF93D12C082F10E007
:103CE0008D2D0E945010C0E0D0E0E82EF12C9701FD
:103CF0000C2E02C0359527950A94E2F720FD05C0E9
:103D00002196C830D10599F70AC06C2F7D2D80E02F
:103D10000E94F30C0817190799F781E005C0D394A6
:103D200087E0D812DDCF80E0DF91CF911F910F9116
:103D3000FF90EF90DF900895CF93C82F8CE20E9400
:103D4000661E882321F08C2FCF910C94661E80E094
:103D5000CF910895CF930E944B1D811102C00E9404
:103D6000311DC5E6C15049F00E94A60F8FE39CE9C2
:103D70000197F1F700C00000F5CF89E20E949C1E78
:103D800081110DC18AE20E949C1E81110E94311D89
:103D900085E00E949C1E81110E94431E0E94561DB8
:103DA0008093F80187E00E949C1E882399F18BE1A3
:103DB0000E949C1E882351F09091F80191FB882766
:103DC00080F921E0822780FB91F922C08EE00E94D9
:103DD0009C1E882351F09091F80192FB882780F96E
:103DE00021E0822780FB92F913C080E10E949C1E93
:103DF0009091F801882341F093FB882780F921E016
:103E0000822780FB93F904C0892F809580FB90F96D
:103E10009093F8018091F8010E945A1D0E94681D3C
:103E200090E090932B0280932A0280EE0E949C1EC9
:103E3000882341F080912A02982F909590FB80F979
:103E400080932A0289E30E949C1E882359F0909156
:103E50002A0291FB882780F921E0822780FB91F9D3
:103E600090932A0282EE0E949C1E882359F0909122
:103E70002A0292FB882780F921E0822780FB92F9B1
:103E800090932A0286EE0E949C1E882359F09091FE
:103E90002A0293FB882780F921E0822780FB93F98F
:103EA00090932A0283EE0E949C1E882359F09091E1
:103EB0002A0294FB882780F921E0822780FB94F96D
:103EC00090932A0285E30E949C1E882359F09091CA
:103ED0002A0295FB882780F921E0822780FB95F94B
:103EE00090932A0281E30E949C1E882359F09091AE
:103EF0002A0296FB882780F921E0822780FB96F929
:103F000090932A0281E10E949C1E882359F090918F
:103F10002A0297FB882780F921E0822780FB97F906
:103F200090932A0280912A020E946C1D87E20E94CF
:103F30009C1EC82F8EE10E949C1E8111C2608FE1E1
:103F40000E949C1E8111C46080E20E949C1E81110F
:103F5000C86081E20E949C1E8111C06182E20E94C1
:103F60009C1E8111C06283E20E949C1E8111C0646C
:103F700084E20E949C1E882311F0C06802C0CC23FA
:103F800029F08C2F0E94631D6C2F03C00E945F1DBF
:103F9000682F70E080E090E0CF910C94121ACF91DE
:103FA00008958091FC0180FF0BC06091050185E0C0
:103FB000689FB001112475956795759567952AC01E
:103FC00081FF09C06091050185E0689FB00111245F
:103FD000759567951FC082FF07C06091050185E058
:103FE000689FB001112416C04091FD014423C9F01F
:103FF00060910401461788F72091050185E0289F0C
:1040000090011124429FC001439F900D112470E044
:104010000E94022A6038710540F46115710539F07B
:1040200002C065E070E0862F08958FE7089581E073
:1040300008958091FC0180FF08C06091030170E049
:10404000759567957595679521C081FF06C060914C
:10405000030170E07595679519C082FF04C06091F7
:10406000030170E010C08091FD018823C1F06091D0
:1040700002018617A0F790910301989FC0011124B7
:1040800070E00E94022A6038710528F461157105FC
:1040900021F0862F08958FE7089581E0089561E06B
:1040A00070E0F4CF803F21F40E94D11F819504C0BD
:1040B000813F29F40E94D11F809300020895823F1E
:1040C00021F40E94D11F819504C0833F29F40E94EE
:1040D000D11F8093FF010895893F19F40E94192090
:1040E00005C08A3F31F40E94192081958093010216
:1040F00008958B3F21F40E941920819504C08C3FC4
:1041000029F40E941920809302020895843F21F42B
:104110008091FE01816017C0853F21F48091FE01EE
:10412000826011C0863F21F48091FE0184600BC043
:10413000873F21F48091FE01886005C0883F31F4FB
:104140008091FE0180618093FE0108958D3F21F4EE
:104150008091FC0181600BC08E3F21F48091FC01B5
:10416000826005C08F3F29F48091FC0184608093B8
:10417000FC010895803F39F48091000287FF6CC0F4
:104180001092000269C0813F29F480910002181644
:10419000BCF362C09091FF01823F29F497FF5CC09D
:1041A0001092FF0159C0833F19F41916CCF354C083
:1041B000893F41F48091010218160CF04DC0109215
:1041C00001024AC08A3F29F48091010287FF44C05E
:1041D000F6CF8B3F39F48091020287FF3DC01092E9
:1041E00002023AC08C3F29F4809102021816BCF3F7
:1041F00033C0843F21F48091FE018E7F17C0853F3C
:1042000021F48091FE018D7F11C0863F21F48091C1
:10421000FE018B7F0BC0873F21F48091FE01877FD9
:1042200005C0883F31F48091FE018F7E8093FE01AE
:1042300013C08D3F21F48091FC018E7F0BC08E3F17
:1042400021F48091FC018D7F05C08F3F29F480917E
:10425000FC018B7F8093FC018091FF0181110EC0D6
:104260008091000281110AC080910102811106C073
:1042700080910202811102C01092FD0108958EEF1B
:1042800091E00E947C110E94E91D9093FB018093B4
:10429000FA0108951F93CF93DF938091FA019091D3
:1042A000FB010E94F51D4091FD01442321F0209166
:1042B000060130E006C0209107015AE0259F9001D9
:1042C00011248217930708F482C08091FF01109196
:1042D0000002D0910102C0910202811107C01111A8
:1042E00005C0D11103C0CC2309F471C04F3F19F0B0
:1042F0004F5F4093FD01181624F40E94D11F809354
:10430000FF018091FF0187FF05C00E94D11F8195A9
:104310008093FF01111624F40E94D11F80930002A4
:104320008091000287FF05C00E94D11F8195809374
:1043300000026091FF01662339F110910002112300
:1043400019F1772767FD7095872F972F0E94132902
:1043500023E333E343E35FE30E9477290E94E028ED
:104360006093FF01612F772767FD7095872F972F47
:104370000E94132923E333E343E35FE30E94772999
:104380000E94E028609300021D1624F40E94192068
:10439000809301028091010287FF05C00E941920CD
:1043A0008195809301021C1624F40E9419208093A9
:1043B00002028091020287FF05C00E9419208195A8
:1043C00080930202DF91CF911F910C943F21DF91E6
:1043D000CF911F910895EEEFF1E085E0DF011D928E
:1043E0008A95E9F71092FD011092FC0108958091E1
:1043F00023020895CF93DF9300D01F92CDB7DEB78D
:1044000020913002243019F523E029839B838A838D
:104410002093E9008FEF9091E800815095FD06C050
:1044200095ED9A95F1F700008111F5CF8091E800A4
:1044300085FF0DC040E050E063E070E0CE010196E2
:104440000E9459248091E8008E778093E8000F90B5
:104450000F900F90DF91CF910895CF93DF9300D00D
:104460001F92CDB7DEB720913002243031F522E023
:104470002983805891099B838A8383E08093E90094
:104480008FEF9091E800815095FD06C095ED9A95CB
:10449000F1F700008111F5CF8091E80085FF0DC094
:1044A00040E050E063E070E0CE0101960E945924A4
:1044B0008091E8008E778093E8000F900F900F9026
:1044C000DF91CF910895209130022430F1F422E061
:1044D0002093E9002FEF3091E800215035FD06C010
:1044E00035ED3A95F1F700002111F5CF2091E80064
:1044F00025FF0BC040E050E065E070E00E945924C9
:104500008091E8008E778093E8000895CF93DF9341
:10451000EC0180913002843009F046C09091120184
:104520009923D9F090912A0297FF17C08093E90050
:104530008FEF9091E800815095FD06C095E19A9526
:10454000F1F700008111F5CF8091E80085FF2CC0C4
:1045500040E050E060E270E017C081E08093E90045
:104560008FEF9091E800815095FD06C095ED9A95EA
:10457000F1F700008111F5CF8091E80085FF14C0AC
:1045800040E050E068E070E0CE010E945924809144
:10459000E8008E778093E80080E2FE01A3E0B2E0BD
:1045A00001900D928A95E1F7DF91CF910895809166
:1045B0002F02811109C00E94EB250E94482680919C
:1045C000E20084608093E200089510922F02089523
:1045D000089508950C94B11D42E061EC81E00E94C1
:1045E000652542E061EC82E00E94652542E061ECD5
:1045F00083E00E94652542E261EC84E00C9465252D
:1046000080913202833009F455C030F4813071F06A
:10461000823009F48EC008958A3009F47AC08B3054
:1046200009F460C0893009F09CC020C0809131023B
:10463000813A09F096C08091E800877F8093E80076
:104640008091350290913602892B21F060E080E064
:1046500090E003C060E283E092E070E00E94A22458
:104660008091E8008B778093E80008958091310273
:10467000813209F076C08091350290913602009720
:1046800019F0039709F06DC08091E800877F80934F
:10469000E8008091E80082FD05C080913002811120
:1046A000F8CF5FC08091F100809323028091E800F1
:1046B0008B7753C080913102813A09F052C08091CA
:1046C000350290913602892B09F04BC08091E800A9
:1046D000877F8093E8008091E80080FFFCCF809185
:1046E000120136C0809131028132D9F580913502B4
:1046F00090913602892BA9F58091E800877F8093FD
:10470000E8000E949A2580913302809312010C9454
:104710001A1680913102813221F58091E800877F5D
:104720008093E8000E949A258091340280932402AD
:10473000089580913102813AA1F48091E800877F49
:104740008093E8008091E80080FFFCCF80912402F4
:104750008093F1008091E8008E778093E8000C94BC
:104760009A25089584B7877F84BF88E10FB6F894AF
:1047700080936000109260000FBE80E8809361001B
:10478000109261000E94B4110E94EB250E944826FD
:104790008091E20084608093E20078940E94C328B4
:1047A0000E94B61188E091E00E9460118091300271
:1047B000853069F40E94711D80912E028823B1F327
:1047C0000E949C1D882391F30E944324EFCF0E94F6
:1047D000BC11ECCF292F332723303105A9F06CF41D
:1047E0002130310509F442C02230310509F043C0BF
:1047F0008DE690E025E430E142C021323105C9F078
:104800002232310519F137C099278130910541F0E5
:104810008230910541F0892B71F5E1E4F0E105C0AA
:10482000E9E2F0E102C0E5E1F0E1849190E09F016E
:1048300026C0643000F5E62FF0E0EE0FFF1FE25DCA
:10484000FE4F2081318189E090E019C0643098F4F6
:10485000E62FF0E0DF01AA0FBB1FAA5DBE4F2D912E
:104860003C91EE5DFE4F808190E009C082E190E0D6
:1048700022EB30E104C080E090E020E030E0FA017B
:1048800031832083089580E189BD82E189BD09B427
:1048900000FEFDCF8091D8008F7D8093D80080915D
:1048A000E00082608093E0008091E00081FDFCCF19
:1048B0000895CF92DF92EF92FF920F931F93CF93C1
:1048C000DF937C018B01EA010E94BB25811131C07D
:1048D000209731F088819981081B190BE80EF91E89
:1048E000C12CD12C0115110519F18091E80085FD2D
:1048F00014C08091E8008E778093E800209741F003
:10490000888199818C0D9D1D9983888385E011C0D4
:104910000E94BB25882331F30CC0F70181917F01F0
:104920008093F10001501109FFEFCF1ADF0ADACFAF
:1049300080E0DF91CF911F910F91FF90EF90DF907A
:10494000CF9008952091370230913802261737070B
:1049500048F06115710539F42091E8002E77209315
:10496000E80001C0B901FC0120E061157105B9F151
:1049700080913002882309F440C0853009F43FC09B
:104980008091E80083FD3DC08091E80082FF06C071
:104990008091E80082FF26C080E008958091E800C1
:1049A00080FFE3CF2091F3008091F20090E0922B02
:1049B0006115710551F08830910538F421912093EB
:1049C000F100615071090196F3CF21E0089709F0D9
:1049D00020E08091E8008E778093E800C6CF211117
:1049E000C7CFD6CF80913002882339F0853039F097
:1049F0008091E80083FFCCCF04C082E0089583E07B
:104A0000089581E0089520913702309138022617E9
:104A1000370748F06115710539F42091E8002E77C9
:104A20002093E80001C0B901FC0120E06115710587
:104A3000C1F180913002882309F441C0853009F426
:104A400040C08091E80083FD3EC08091E80082FF75
:104A500006C08091E80082FF27C080E00895809121
:104A6000E80080FFE3CF2091F3008091F20090E016
:104A7000922B6115710559F08830910540F424910D
:104A80002093F1003196615071090196F2CF21E037
:104A9000089709F020E08091E8008E778093E80085
:104AA000C5CF2111C6CFD5CF80913002882339F0F0
:104AB000853039F08091E80083FFCBCF04C082E0DD
:104AC000089583E0089581E00895982F973058F570
:104AD0009093E900981739F07091EC002091ED0067
:104AE0005091F00003C0242F762F50E021FF19C011
:104AF0003091EB003E7F3093EB003091ED003D7F35
:104B00003093ED003091EB0031603093EB00709307
:104B1000EC002093ED005093F0002091EE0027FF71
:104B200007C09F5FD3CF8F708093E90081E0089525
:104B300080E008958091310287FD05C08091E800F2
:104B400080FF0EC012C08091E80082FD05C08091F8
:104B500030028111F8CF08958091E8008B7708C06A
:104B6000809130028111EACF08958091E8008E771C
:104B70008093E80008958091E4009091E50045E677
:104B80002091EC0020FF21C02091E80020FD21C0F1
:104B900020913002222389F0253089F02091EB000A
:104BA00025FD0FC02091E4003091E500281739075A
:104BB00039F3415041F0C901E3CF82E0089583E029
:104BC000089581E0089584E008952091E80022FF8F
:104BD000DFCF80E008950E9459260E946126E0EE12
:104BE000F0E0808181608083E8EDF0E080818F7764
:104BF000808319BCA7EDB0E08C918E7F8C9380816F
:104C00008F7E808310922F0208950F931F93CF936E
:104C1000DF930E9459260E946126C8EDD0E088816A
:104C20008F77888388818068888388818F7D888357
:104C300019BC1092300210922C0210922E02109287
:104C40002D0200EE10E0F80180818B7F8083888147
:104C50008160888342E060E080E00E946525E1EEAB
:104C6000F0E080818E7F8083E2EEF0E080818160E1
:104C70008083808188608083F80180818E7F80833B
:104C8000888180618883DF91CF911F910F91089572
:104C9000E8EDF0E080818F7E8083E7EDF0E08081B9
:104CA0008160808384E082BF81E080932F020C9436
:104CB0000526E8EDF0E080818E7F80831092E2008F
:104CC00008951092DA001092E10008951F920F9259
:104CD0000FB60F9211242F933F934F935F936F93CF
:104CE0007F938F939F93AF93BF93EF93FF938091A5
:104CF000E10082FF0BC08091E20082FF07C080913B
:104D0000E1008B7F8093E1000E94C2288091DA004D
:104D100080FF1FC08091D80080FF1BC08091DA0007
:104D20008E7F8093DA008091D90080FF0DC080E1F2
:104D300089BD82E189BD09B400FEFDCF81E0809389
:104D400030020E94D72205C019BC109230020E9486
:104D5000E5228091E10080FF19C08091E20080FF90
:104D600015C08091E2008E7F8093E2008091E20086
:104D700080618093E2008091D80080628093D800A7
:104D800019BC85E0809330020E94E9228091E10005
:104D900084FF30C08091E20084FF2CC080E189BD97
:104DA00082E189BD09B400FEFDCF8091D8008F7DDE
:104DB0008093D8008091E1008F7E8093E100809104
:104DC000E2008F7E8093E2008091E2008160809318
:104DD000E20080912C02882311F084E007C08091CA
:104DE000E30087FF02C083E001C081E080933002CE
:104DF0000E94EA228091E10083FF29C08091E200B5
:104E000083FF25C08091E100877F8093E10082E0ED
:104E10008093300210922C028091E1008E7F80936B
:104E2000E1008091E2008E7F8093E2008091E200B9
:104E300080618093E20042E060E080E00E946525AE
:104E40008091F00088608093F0000E94E822FF913A
:104E5000EF91BF91AF919F918F917F916F915F91F2
:104E60004F913F912F910F900FBE0F901F9018956B
:104E70001F920F920FB60F9211242F933F934F93CF
:104E80005F936F937F938F939F93AF93BF93CF93D2
:104E9000EF93FF93C091E900CF708091EC001092E6
:104EA000E9008091F000877F8093F00078940E9461
:104EB00074271092E9008091F00088608093F000E0
:104EC000C093E900FF91EF91CF91BF91AF919F9176
:104ED0008F917F916F915F914F913F912F910F90A3
:104EE0000FBE0F901F9018951F93CF93DF93CDB7F0
:104EF000DEB7AA970FB6F894DEBF0FBECDBFE1E3D1
:104F0000F2E08091F100819322E0E933F207C9F7E2
:104F10000E9400238091E80083FF1CC12091310290
:104F200030913202832F90E08A30910508F012C14F
:104F3000FC01E451FF4F0C94162A203881F02238EE
:104F400009F008C1809135028F708093E90080914B
:104F5000EB0085FB882780F91092E90006C080915C
:104F60002D0290912E02911182609091E800977F1E
:104F70009093E8008093F1001092F100C5C0822F59
:104F80008D7F09F0E7C0222319F0223061F0E2C0E2
:104F900080913302813009F0DDC0333009F080E0C8
:104FA00080932E0228C080913302811124C0209169
:104FB00035022F7009F4CEC02093E9008091EB00F8
:104FC00080FF19C08091EB00333011F4806211C072
:104FD00080618093EB0081E090E0022E01C0880F99
:104FE0000A94EAF78093EA001092EA008091EB00BD
:104FF00088608093EB001092E9008091E800877F41
:1050000086C02111A7C0109133021F778091E30061
:105010008078812B8093E3008091E800877F8093E4
:10502000E8000E949A258091E80080FFFCCF8091E3
:10503000E30080688093E300112311F083E001C056
:1050400082E08093300286C02058223008F082C06F
:1050500080913302909134028C3D23E0920779F5E0
:1050600083E08A838AE289834FB7F894DE0113963E
:1050700020E03EE051E2E32FF0E050935700E4914E
:1050800020FF03C0E295EF703F5FEF708E2F90E03E
:10509000EA3010F0C79601C0C0968D939D932F5FA4
:1050A000243149F74FBF8091E800877F8093E80063
:1050B0006AE270E0CE0101960E94A22414C0AE0103
:1050C0004F5F5F4F609135020E94EA23009709F419
:1050D00041C02091E800277F2093E800BC0189812E
:1050E0009A810E9403258091E8008B778093E800E5
:1050F00031C0203879F58091E800877F8093E800FF
:1051000080912C028093F1008091E8008E7780934B
:10511000E8000E949A251EC021111CC09091330204
:105120009230C0F48091E800877F8093E8009093EC
:105130002C020E949A2580912C02811104C080913A
:10514000E30087FF02C084E001C081E08093300269
:105150000E94EC228091E80083FF0AC08091E80061
:10516000877F8093E8008091EB0080628093EB0062
:10517000AA960FB6F894DEBF0FBECDBFDF91CF91D8
:105180001F9108950895CF93809130028823B1F044
:105190008091E9008F709091EC0090FF02C090E840
:1051A00001C090E0C92FC82B1092E9008091E8005F
:1051B00083FD0E947427CF70C093E900CF910895BA
:1051C00004D06894B1118DC0089570D088F09F57B5
:1051D00090F0B92F9927B751A0F0D1F0660F771F43
:1051E000881F991F1AF0BA95C9F712C0B13081F023
:1051F00077D0B1E0089574C0672F782F8827B85F03
:1052000039F0B93FCCF3869577956795B395D9F783
:105210003EF490958095709561957F4F8F4F9F4F8D
:105220000895E89409C097FB3EF490958095709599
:1052300061957F4F8F4F9F4F9923A9F0F92F96E9E2
:10524000BB279395F695879577956795B795F11157
:10525000F8CFFAF4BB0F11F460FF1BC06F5F7F4FF4
:105260008F4F9F4F16C0882311F096E911C0772306
:1052700021F09EE8872F762F05C0662371F096E80F
:10528000862F70E060E02AF09A95660F771F881FDE
:10529000DAF7880F9695879597F9089557FD9058F6
:1052A000440F551F59F05F3F71F04795880F97FBEA
:1052B000991F61F09F3F79F08795089512161306A4
:1052C0001406551FF2CF4695F1DF08C016161706D3
:1052D0001806991FF1CF8695710561050894089508
:1052E000E894BB2766277727CB0197F908950BD061
:1052F00078C069D028F06ED018F0952309F05AC014
:105300005FC01124EECFCADFA0F3959FD1F3950FB4
:1053100050E0551F629FF001729FBB27F00DB11D39
:10532000639FAA27F00DB11DAA1F649F6627B00DC9
:10533000A11D661F829F2227B00DA11D621F739FB2
:10534000B00DA11D621F839FA00D611D221F749FC0
:105350003327A00D611D231F849F600D211D822F07
:10536000762F6A2F11249F5750408AF0E1F088234E
:105370004AF0EE0FFF1FBB1F661F771F881F91505B
:105380005040A9F79E3F510570F014C0AACF5F3F6F
:10539000ECF3983EDCF3869577956795B795F7958E
:1053A000E7959F5FC1F7FE2B880F911D9695879516
:1053B00097F9089597F99F6780E870E060E0089595
:1053C0009FEF80EC089500240A941616170618061D
:1053D0000906089500240A941216130614060506F9
:1053E0000895092E0394000C11F4882352F0BB0F8A
:1053F00040F4BF2B11F460FF04C06F5F7F4F8F4FED
:105400009F4F089597FB072E16F4009407D077FD61
:1054100009D00E941C2A07FC05D03EF49095819586
:105420009F4F0895709561957F4F0895EE0FFF1F70
:105430000590F491E02D0994AA1BBB1B51E107C014
:10544000AA1FBB1FA617B70710F0A61BB70B881F14
:10545000991F5A95A9F780959095BC01CD010895A3
:10546000F999FECF92BD81BDF89A992780B508952C
:10547000A8E1B0E042E050E00C94582A262FF999B8
:10548000FECF92BD81BDF89A019700B4021639F0A3
:105490001FBA20BD0FB6F894FA9AF99A0FBE089574
:1054A0000196272F0E943F2A0C943E2ADC01CB0153
:1054B000FC01F999FECF06C0F2BDE1BDF89A319624
:1054C00000B40D9241505040B8F70895F894FFCFC2
:1054D000D5012808140A321EF721862263222D22C4
:1054E000FA21013536F7F6F5F4F1F09190373332C1
:1054F0003130404D363980113311FD10C410571032
:0655000070108910A210DA
:00000001FF
