:100000000C940C0A0C94500A0C94500A0C94500A4C
:100010000C94500A0C94500A0C94500A0C94500AF8
:100020000C94500A0C94500A0C941D280C94EF2840
:100030000C946E1F0C94500A0C94500A0C94500AA5
:100040000C94500A0C94500A0C94500A0C94500AC8
:100050000C94500A0C94D51F0C94500A0C94500A1E
:100060000C94500A0C94500A0C94500A0C94500AA8
:100070000C94500A0C94500A0C94500A0C94500A98
:100080000C94500A0C94500A0C94500A0C94500A88
:100090000C94500A0C94500A0C94500A0C94500A78
:1000A0000C94500A0C94500A0C94500A5E0A630A8D
:1000B000680A6D0A720A770A7C0A810A860A8B0A24
:1000C000900A400C950A9A0A9F0A400CA40AA90AB1
:1000D000AE0AB30AB80ABD0AC20AC70ACC0AD10AD4
:1000E000D60ADB0AE00AE50AEA0AEF0AF40AF90A84
:1000F000FE0A030B080B0D0B120B170B1C0B210B2D
:10010000260B2B0B300B350B3A0B3F0B440B490BDB
:100110004E0B530B580B5D0B620B670B6C0B710B8B
:10012000760B7B0B800B850B8A0B8F0B940B990B3B
:100130009E0BA30BA80BAD0BB20BB70BBC0BC10BEB
:10014000C60BCB0BD00BD50BDA0BDF0BE40BE90B9B
:10015000EE0BF30BF80BFD0B020C070C0C0C110C47
:10016000160C1B0C200C250C2A0C2F0C340C390CF3
:10017000D90DDF0DE30DE60DEA0DEE0DF20DF60DD6
:10018000FB0DFF0D030E070E0A0E0E0E120E160EBD
:100190001A0E1F0EA615A615D915D91519163B1638
:1001A0006317631746166317ED16ED165617631798
:1001B00063175E17FA16FA16FA16FA16FA16FA16F0
:1001C000FA16FA16FA16FA16FA16FA16FA16FA16AF
:1001D000FA16FA160A171A17211728173217E317F3
:1001E000E317F617F617EC17F617F617F617E317D7
:1001F000E317F217F617F617F21754297629612A32
:100200007629612AB829DB29612A302A432A01E6A6
:10021000012D022D02E6010402040115021501065A
:100220000206011702170104020401110211000164
:10023000E6012D022D02E60104020401150215015A
:10024000060206010602060112021201160216003B
:1002500001E6012D022D02E601040204011502153A
:100260000106020601160216010C020C0111021110
:100270000001E6012D022D02E6011702170104021A
:1002800004011102110001E6012D022D02E6010612
:10029000020601120212011602160001E6012D02E9
:1002A0002D02E601160216010C020C0111021100CA
:1002B0000135023501E60124022402E60138023844
:1002C000011E021E01E60127022702E60001E601E7
:1002D0002D022D02E6010F020F011102110001E6AD
:1002E000012D022D02E6010F020F01120212010A76
:1002F000020A0001E10138023802E101E6012402AC
:100300002402E601380238011E021E01E60127021E
:100310002702E60001E10138023802E10120022053
:100320000001E10138023802E1011F021F0001E172
:100330000138023802E10001E6012D022D02E6013A
:10034000050205010402040115021501E60124025B
:100350002402E60001E6012D022D02E60109020950
:1003600001150215010402040106020601E601243A
:10037000022401270227012402240127022702E682
:1003800001500250015002500150025000011E0263
:100390001E012702270135023501E601240224024D
:1003A000E600010802080135023501E601240224B5
:1003B00002E60001E6012D022D02E60113021301FF
:1003C0000C020C0001E6012D022D02E601160216B8
:1003D000010B020B010402040115021501130213A3
:1003E0000001E6012D022D02E601060206010702C8
:1003F0000701120212011702170001E6012D022D5A
:1004000002E6011602160114021401150215011765
:10041000021701E60124022402E60001E6012D0292
:100420002D02E60113021301150215011202120139
:1004300007020701E10138023802E101E601240266
:10044000240127022702E60135023501E6012402D4
:10045000240127022702E6015002500150025001F8
:10046000500250015002500001E6012D022D02E61B
:1004700001160216011802180110021001E10138DC
:10048000023802E101E6012402240127022702E6E4
:100490000135023501E6012402240127022702E684
:1004A00001500250015002500150025001500250C0
:1004B0000001E6012D022D02E6010A020A010802EE
:1004C000080001E6012D022D02E6010F020F0108CE
:1004D00002080001E6012D022D02E60107020701D4
:1004E0000C020C011902190001E6012D022D02E691
:1004F00001170217010C020C01100210010802087A
:10050000011602160001E6012D022D02E60113027A
:10051000130110021000010F020F01120212010A52
:10052000020A011E021E0127022701E10125022500
:1005300002E100013702370135023501E1012502F0
:100540002502E101380238011E021E01E1012602E6
:100550002602E100011102110113021301370237D3
:10056000010402040115021501150215010402041B
:10057000011C021C01E10126022602E1012F022FCB
:1005800000011E021E0127022701550255015502D6
:100590005500011102110113021301370237011333
:1005A0000213010C020C00011102110113021301CC
:1005B0003702370110021001080208010402040189
:1005C00011021101E10125022502E10001110211D0
:1005D0000113021301370237010F020F010C020C45
:1005E0000111021101040204010F020F010A020AA3
:1005F0000137023701110211011202120115021511
:100600000110021001E10125022502E100011102A1
:10061000110113021301370237010402040105021C
:10062000050116021601E10125022502E100011172
:1006300002110113021301370237010402040117EA
:100640000217010402040111021101E10125022532
:1006500002E10001110211011302130137023701F7
:10066000040204010602060112021201160216011A
:10067000E10125022502E10001110211011302131B
:10068000013702370104020401160216010C020CA4
:100690000111021101E10125022502E1000111020F
:1006A0001101130213013702370117021701040267
:1006B000040111021101E10125022502E1000111ED
:1006C000021101130213013702370106020601125B
:1006D00002120116021601E10125022502E10001C4
:1006E000110211011302130137023701160216011C
:1006F0000C020C0111021101E10125022502E100A9
:100700000111021101130213013702370113021301
:1007100001150215011202120107020701E101256C
:10072000022502E100011102110113021301370237
:100730003701160216011802180110021001E1011A
:1007400025022502E10001110211011302130137F4
:1007500002370116021601140214011502150117C1
:10076000021701E10125022502E100011102110138
:1007700013021301370237010702070112021201A7
:1007800017021701E10125022502E100015502557A
:100790000155025501E10125022502E10138023827
:1007A000011E021E01E10126022602E1000155029E
:1007B00055015502550120022000015502550155F1
:1007C0000255011F021F0001550255015502550037
:1007D0000111021101130213013702370108020847
:1007E000011B021B0113021301E10125022502E195
:1007F00000011102110113021301370237010F0228
:100800000F01120212010A020A01E101250225026A
:10081000E100011102110113021301370237010F28
:10082000020F01120212010A020A011E021E012712
:10083000022701E10125022502E100010C020C0161
:100840001102110119021901E10125022502E1003D
:10085000013702370135023501200220000137023D
:100860003701350235011F021F0001040204011780
:100870000217010402040111021101E10125022500
:1008800002E1000104020401060206011202120143
:1008900016021601E10125022502E100010402040D
:1008A00001160216010C020C0111021101E10125D1
:1008B000022502E100013702370135023500011E31
:1008C000021E0127022701370237013502350001D8
:1008D00037023701550255000137023701E1012483
:1008E000022402E1000001E6015A025A015D025DA4
:1008F0000159025902E60001E60162026201590251
:1009000059015F025F015F025F02E60001E6015AE2
:10091000025A015A025A0160026002E60001E60131
:100920005A025A015A025A015F025F02E60001139D
:100930000213010C020C000111021101120212013A
:100940001502150110021001E10125022502E10046
:100950000110021001080208010402040111021131
:1009600001E10125022502E100010402040119024E
:1009700019010A020A01E10125022502E100010430
:100980000204010502050116021601E101250225F6
:1009900002E100010402040115021501060206012C
:1009A000170217010402040111021101E1012502DD
:1009B0002502E100010402040115021501060206E8
:1009C00001060206011202120116021601E10125BA
:1009D000022502E1000104020401150215010602CC
:1009E0000601160216010C020C0111021101E101AF
:1009F00025022502E100011702170104020401117A
:100A0000021101E10125022502E1000106020601B1
:100A10001202120116021601E10125022502E1006F
:100A200001160216010C020C0111021101E101254F
:100A3000022502E100011302130115021501120241
:100A4000120107020701E10125022502E10001165A
:100A50000216011802180110021001E101250225F9
:100A600002E100011602160114021401150215011B
:100A700017021701E10125022502E10001350235C7
:100A800001E10125022502E101380238011E021EA2
:100A900001E10126022602E10001350235012002B2
:100AA000200001350235011F021F00010802080164
:100AB0001B021B0113021301E10125022502E100C3
:100AC000011E021E012702270135023500010F0217
:100AD0000F0111021101E10125022502E100010FC0
:100AE000020F01120212010A020A01E10125022588
:100AF00002E10001E1016402640127022702E10032
:100B00000164026401E10127022702E100010A02F7
:100B10000A01E10125022502E1011B021B01E1019D
:100B200026022602E1000109020901E10125022550
:100B300002E1011B021B01E10126022602E1000184
:100B4000E00104020402E0014C024C0001E0010457
:100B5000020402E0000127022701270227001130CA
:100B600012301B001D001C000400050006001D3093
:100B70006400640225142614073008302A0013305C
:100B800025022602240230023800300001301430E1
:100B900003301A30193024002500260002301530A9
:100BA0000E30103022022100220023002702E10033
:100BB00035000C300D301E001F00200028000041C1
:100BC00064142302360027000030370000001F3075
:100BD00022300100010001000100010007001E3069
:100BE000053006302414271409300A30010016306D
:100BF00001000100010001000100010001001730A7
:100C000004301B301C304A0052004B0001001830E9
:100C1000010021303100500001004F002030010060
:100C20000100010001004D0051004E001250010072
:100C30000100141401000100010001000000113046
:100C400012301B001D001C000400050006001D30B2
:100C50006400640225142614453007302A0013303E
:100C600025022602233024303800300001301430B1
:100C700003301A30193024002500260002301530C8
:100C80004430103022022100220023002702E1001C
:100C900026302A302B301E001F0020002800004381
:100CA00064142302360027000030370000001F3094
:100CB00022300100010001000100010007001E3088
:100CC000053006302414271425300A30010027305F
:100CD00001000100010001000100010001002830B5
:100CE00004301B301C304A0052004B0001002930F8
:100CF0002C3021303100500001004F002030010025
:100D000035000C300D304D0051004E0014500100E4
:100D10000100141401000100010001000000363040
:100D200037301B001D001C00040005000600413088
:100D300064006402251426142D302E302A00383029
:100D400025022602240230023800300001303930FA
:100D5000033040303E3024002500260002303A3077
:100D60003330353022022100220023002702E10027
:100D70003030313032301E001F0020002800004586
:100D800064142302360027000030370000001F30B3
:100D900022300100010001004330010007001E3035
:100DA000053006302414271442302F3001003B3028
:100DB00001000100010034300100010001003C305D
:100DC000043001003F304A0052004B0001003D302A
:100DD000010021303100500001004F00203001009F
:100DE0000100010001004D0051004E0016500100AD
:100DF00001001414010001000100010000004B304B
:100E00004C301B001D001C00040005000600503083
:100E1000640064022514261459305A302A005C30CC
:100E20002502260253304E303800300001305D304C
:100E300003305430193024002500260002305E3083
:100E40005B304D3022022100220023002702E10006
:100E500035000C300D301E001F0020002800004718
:100E600064142302360027000030370000001F30D2
:100E700022300100010001000100010007001E30C6
:100E800049304A30241427145230513001005F3069
:100E900001000100483047300100010001006030CE
:100EA00004301B301C304A0052004B0001006130FE
:100EB000583021304F30500001004F0046300100C3
:100EC0005530563057304D0051004E001050010043
:100ED00001001414010001000100010000000100E4
:100EE00001000100010001000100010001000100FA
:100EF00001000100010001000100010001000100EA
:100F000001000100010001000100010001000100D9
:100F100001000100010001000100010001000100C9
:100F200001000100010001000100010001000100B9
:100F300001000100010001000100010001000100A9
:100F4000010001000100010001000100000001009A
:100F50000100010001000100010001000100010089
:100F60000100010001000100010001000100010079
:100F70000100010001000100010001000100010069
:100F80000100010001000100010001000100010059
:100F90000100010001000100010001000100010049
:100FA0000100010001000100010001000100010039
:100FB000010001000100010001000100000001002A
:100FC0000100010001000100010001000100010019
:100FD0000100010001000100010001000100010009
:100FE00001000100010001000100010001000100F9
:100FF00001000100010001000100010001000100E9
:1010000001000100010001000100010001000100D8
:1010100001000100010001000100010001000100C8
:1010200001000100010001000100010000000100B9
:1010300001000100010001000100010001000100A8
:101040000100010001000100010001000100010098
:101050000100010001000100010001000100010088
:101060000100010001000100010001000100010078
:101070000100010001000100010001000100010068
:101080000100010001000100010001000100010058
:101090000100010001000100010001000000010049
:1010A0000100010001000100010001000100010038
:1010B0000100010001000100010001000100010028
:1010C0000100010001000100010001000100010018
:1010D0000100010001000100010001000100010008
:1010E00001000100010001000100010001000100F8
:1010F00001000100010001000100010001000100E8
:1011000001000100010001000100010000000100D8
:1011100001000100010001000100010001000100C7
:1011200001000100010001000100010001000100B7
:1011300001000100010001000100010001000100A7
:101140000100010001000100010001000100010097
:101150000100010001000100010001000100010087
:101160000100010001000100010001000100010077
:101170000100010001000100010001000000010068
:101180000100010001000100010001000100010057
:101190000100010001000100010001000100010047
:1011A0000100010001000100010001000100010037
:1011B0000100010001000100010001000100010027
:1011C0000100010001000100010001000100010017
:1011D0000100010001000100010001000100010007
:1011E00001000100010001000100010000000100F8
:1011F00001000100010001000100010001000100E7
:1012000001000100010001000100010001000100D6
:1012100001000100010001000100010001000100C6
:1012200001000100010001000100010001000100B6
:1012300001000100010001000100010001000100A6
:101240000100010001000100010001000100010096
:101250000100010001000100010001000000120373
:101260004D006100740068006B006500650062005D
:1012700000002403410070006F00670065006500F6
:101280005F0049006E006400750073007400720016
:1012900069006500730000000403090409026D0081
:1012A000040100A0FA090400000103010100092162
:1012B000110100012240000705810308000A09040A
:1012C00001000103010200092111010001224D006A
:1012D0000705820308000A09040200010300000058
:1012E0000921110100012236000705830308000AC5
:1012F000090403000103000000092111010001227B
:1013000039000705840320000112011001000000CC
:1013100008EDFE606025000102000105010906A13B
:1013200001050719E029E7150025019508750181D8
:1013300002050819012905950575019102950175A8
:101340000391010507190029F71500250195F87586
:10135000018102C005010980A10185021601002654
:1013600003001A81002A8300751095018100C005D1
:101370000C0901A1018503160100269C021A010037
:101380002A9C02751095018100C005010902A10186
:101390000901A10005091901290515002501950577
:1013A000750181029501750381010501093009313B
:1013B0001581257F95027508810609381581257FDD
:1013C000950175088106050C0A38021581257F955F
:1013D0000175088106C0C005010906A101050719AC
:1013E000E029E71500250195087501810295017531
:1013F00008810105081901290595057501910295D6
:1014000001750391010507190029FF150026FF004A
:10141000950675088100C00011241FBECFEFDAE0E9
:10142000DEBFCDBF04B603FE24C080913902909187
:101430003A02A0913B02B0913C028730904BA7400A
:10144000B04BB9F41092390210923A0210923B025A
:1014500010923C0214BE84B7877F84BF88E10FB628
:10146000F89480936000109260000FBEE0E0F8E313
:10147000099511E0A0E0B1E0EEE3F8E502C00590C7
:101480000D92A633B107D9F712E0A6E3B1E001C08F
:101490001D92A933B107E1F70E9469250C941D2C18
:1014A0000C940000DC01462F50E04236510508F054
:1014B000E7C14A5A5F4FFA010C94CD2B12968C91DA
:1014C0008111E1C1DDC112968C918111DFC1D8C1BA
:1014D00012968C918111DDC1D3C112968C9181112C
:1014E000DBC1CEC112968C918111D9C1C9C11296AE
:1014F0008C918111D7C1C4C112968C918111D5C133
:10150000BFC112968C918111D3C1BAC112968C9130
:101510008111D1C1B5C112968C918111CFC1B0C1D9
:1015200012968C918111CDC1ABC112968C91811113
:10153000CBC1A6C112968C918111C9C1A1C11296CD
:101540008C918111C7C19CC112968C918111C5C12A
:1015500097C112968C918111C3C192C112968C9140
:101560008111C1C18DC112968C918111BFC188C1F9
:1015700012968C918111BDC183C112968C918111FB
:10158000BBC17EC112968C918111B9C179C11296ED
:101590008C918111B7C174C112968C918111B5C122
:1015A0006FC112968C918111B3C16AC112968C9150
:1015B0008111B1C165C112968C918111AFC160C119
:1015C00012968C918111ADC15BC112968C918111E3
:1015D000ABC156C112968C918111A9C151C112960D
:1015E0008C918111A7C14CC112968C918111A5C11A
:1015F00047C112968C918111A3C142C112968C9160
:101600008111A1C13DC112968C9181119FC138C138
:1016100012968C9181119DC133C112968C918111CA
:101620009BC12EC112968C91811199C129C112962C
:101630008C91811197C124C112968C91811195C111
:101640001FC112968C91811193C11AC112968C916F
:10165000811191C115C112968C9181118FC110C158
:1016600012968C9181118DC10BC112968C918111B2
:101670008BC106C112968C91811189C101C112964C
:101680008C91811187C1FCC012968C91811185C10A
:10169000F7C012968C91811183C1F2C012968C9181
:1016A000811181C1EDC012968C9181117FC1E8C07A
:1016B00012968C9181117DC1E3C012968C9181119B
:1016C0007BC1DEC012968C91811179C1D9C012966E
:1016D0008C91811177C1D4C012968C91811175C102
:1016E000CFC012968C91811173C1CAC012968C9191
:1016F000811171C1C5C012968C9181116FC1C0C09A
:1017000012968C9181116DC1BBC012968C91811182
:101710006BC1B6C012968C91811169C1B1C012968D
:101720008C91811167C1ACC012968C91811165C1F9
:10173000A7C012968C91811163C1A2C012968C91A0
:10174000811161C19DC012968C9181115FC198C0B9
:1017500012968C9181115DC193C012968C9181116A
:101760005BC18EC012968C91811159C189C01296AD
:101770008C91811157C184C012968C91811155C1F1
:101780007FC012968C91811153C17AC012968C91B0
:10179000811151C175C012968C9181114FC170C0D9
:1017A00012968C9181114DC16BC012968C91811152
:1017B0004BC166C012968C91811149C161C01296CD
:1017C0008C91811147C15CC012968C91811145C1E9
:1017D00057C012968C91811143C152C012968C91C0
:1017E000811141C14DC012968C9181113FC148C0F9
:1017F00012968C9181113DC143C012968C9181113A
:101800003BC13EC012968C91811139C139C01296EC
:101810008C91811137C134C012968C91811135C1E0
:101820002FC012968C91811133C12AC012968C91CF
:10183000811131C125C012968C9181112FC120C018
:1018400012968C9181112DC11BC012968C91811121
:101850002BC116C012968C91811129C111C012960C
:101860008C91811127C10CC012968C91811125C1D8
:1018700007C012968C91882319F08EE092E00895AB
:1018800080E090E0089585E59BE008958CE49BE07E
:1018900008958FE39BE0089586E29BE008958DE034
:1018A0009BE0089580E09BE0089583EF9AE008951F
:1018B0008EED9AE008958DEC9AE0089580EC9AE020
:1018C00008958BEA9AE0089582EA9AE0089589E9FA
:1018D0009AE008958CE79AE0089583E69AE00895E7
:1018E0008EE49AE0089585E39AE0089580E29AE014
:1018F00008958BE09AE0089586EF99E0089585EDCC
:1019000099E0089584EB99E0089583E999E00895BA
:101910008EE799E0089589E699E0089580E599E0D9
:10192000089587E399E008958EE299E008958DE1A6
:1019300099E008958CE099E0089587EF98E0089584
:1019400086EE98E0089585EE98E0089588ED98E099
:1019500008958FEC98E008958EEB98E0089585EB5C
:1019600098E008958CE998E0089583E898E0089558
:101970008AE698E008958DE598E0089580E598E07E
:1019800008958BE398E0089582E198E0089581EF4F
:1019900097E0089580ED97E0089587EC97E008952B
:1019A0008AEB97E008958DEA97E008958CE897E038
:1019B00008958BE697E0089586E497E0089585E220
:1019C00097E0089580E097E008958FED96E0089500
:1019D0008EEB96E008958DE996E0089588E796E00D
:1019E000089583E596E008958EE296E008958DE0EF
:1019F00096E008958CEC95E0089587EA95E00895C7
:101A000082E995E0089581E895E0089584E595E000
:101A1000089583E395E0089586E195E0089585E0D3
:101A200095E0089588EE94E0089583ED94E008959C
:101A300082EC94E0089581EB94E0089588E694E0C8
:101A400008958BE194E008958AEF93E0089581EE84
:101A500093E0089584EC93E0089583EB93E0089578
:101A600082EA93E008958DE893E0089584E593E099
:101A7000089587E393E008958EE293E0089581E26C
:101A800093E0089584E193E0089583EF92E0089550
:101A90008EED92E008958DEC92E0089580EB92E057
:101AA00008958BE992E0089586E892E0089581E731
:101AB00092E0089580E592E008958FE292E0089523
:101AC0000895089581E00895089581E008950C94A3
:101AD000620D0E94D1172FEF84E39CE021508040DB
:101AE0009040E1F700C000000C94FA1FFF920F93A2
:101AF0001F93CF93DF93EC010881198180916F01CF
:101B0000811113C08A81882349F0C8010E94501DA9
:101B1000F82E682FC8010E94F61C04C0C8010E945C
:101B2000241DF82EB8018F2D04C0C8010E94501D3D
:101B3000B8010E94B70E8C01BE010E94670D882378
:101B400009F405C1BE01C8010E94C710882309F429
:101B5000FEC0BE01C8010E940013882309F4F7C02B
:101B6000053180E7180708F0A1C0023080E71807A8
:101B700008F477C08A81882309F47FC00E94021F7D
:101B8000811102C00E94E81E0E941F1F90E09093E6
:101B90002B0280932A02F801E350F047E231F1056D
:101BA00020F4E854FF4F0C94CD2B80912A028160E1
:101BB00003C080912A02826080932A024BC08091E8
:101BC0002A028460F9CF80912A0213C080912A02F0
:101BD0008061F2CF80912A028062EECF80912A024A
:101BE0008064EACF80912A028068E6CF80912A0241
:101BF00084608860E1CF80912A028E7FDDCF809162
:101C00002A028D7FD9CF80912A028B7FD5CF8091F8
:101C10002A0213C080912A028F7ECECF80912A02A1
:101C20008F7DCACF80912A028F7BC6CF80912A02F6
:101C30008F77C2CF80912A028B7F877FBDCF909113
:101C40002A0297FB882780F921E0822780FB97F9F9
:101C500090932A0280912A020E94231F0E94D1178A
:101C600076C0011580E7180781F001301047A1F018
:101C700081E08093380180933901CE01DF91CF91CB
:101C80001F910F91FF900C94650D8A81882309F4B0
:101C90005EC00E94690D5BC08A81882309F457C029
:101CA0008091F80181608093F80151C00C3380E786
:101CB000180711F58A81882351F0109238010E948B
:101CC000A01F909337018093360182E025C0809158
:101CD000380181110FC080913601909137010E9427
:101CE000AC1F883C910530F486E20E94441486E2E1
:101CF0000E940C1582E018C00D33104709F0B8CFD0
:101D00008A81882361F0109239010E94A01F90936C
:101D100037018093360180E20E945B1518C08091E4
:101D20003901882321F080E20E94621510C0809161
:101D30003601909137010E94AC1F883C910598F7BD
:101D400087E20E94441487E20E940C15ECCF80E0E9
:101D5000DF91CF911F910F91FF9008950C94131173
:101D60000C9415110C94640D0C94B20E0895E72F89
:101D7000F0E097E0899FE00DF11D112483E0EE0F64
:101D8000FF1F8A95E1F7E60FF11DEE0FFF1FE25AE4
:101D9000F44F859194910895880F991F825A9D4E12
:101DA000FC018591949108950E94B70E0E944A10FB
:101DB000811520E49207B0F5811540E3940708F0FF
:101DC000DDC0803E9105D8F4803C910508F06BC0E1
:101DD000883A910578F4853A910508F067C081301A
:101DE000910509F456C108F40DC18430910508F03D
:101DF00050C108C18D3B910508F463C003C18F3FFA
:101E0000910509F048F4803F910508F0B1C0883E83
:101E1000910508F43EC1F6C0811520E2920708F052
:101E2000A9C00895811543E5940790F4811522E532
:101E3000920708F0C7C0811541E5940708F0BDC0BE
:101E4000811520E5920708F09CC09F70906A089564
:101E5000811545E59407D0F4811524E5920708F033
:101E6000C6C0282F2695269540E2249F9001112474
:101E7000AC014370552781E090E002C0880F991FA4
:101E80004A95E2F7822B932B9A680895811546E5CF
:101E9000940708F4B1C09C0130562115304108F078
:101EA000B1C09F70ADC0805C910965C0853A910555
:101EB00009F4ABC0863A910509F4AAC083E890E41E
:101EC0000895883A910509F4A6C0893A910509F464
:101ED000A5C08A3A910509F4A4C08B3A910509F48A
:101EE000A3C08C3A910509F4A2C08B3B910509F47B
:101EF000A1C08C3B910509F4A0C08D3A910509F46D
:101F00009FC0803B910509F49EC08E3A910509F46B
:101F10009DC08F3A910509F49CC0813B910509F45D
:101F20009BC0823B910509F49AC0833B910509F45B
:101F300099C0843B910509F498C0853B910509F44B
:101F400097C0863B910509F496C0873B910509F43B
:101F500095C0883B910509F494C0893B910509F42B
:101F600093C08A3B910509F092C08AE296E40895F5
:101F7000906508959F700E94CC0E08959927906CEB
:101F80000895482F437021E030E002C0220F331F34
:101F90004A95E2F73C68AC0164E0569547956A952E
:101FA000E1F74370342B8F708695869540E2849FCD
:101FB000C0011124822B932B0895982F8827816FBD
:101FC000906A0895282F2695269540E2249F900137
:101FD0001124AC014370552781E090E002C0880FC6
:101FE000991F4A95E2F7822B932B9C680895982FAE
:101FF0008827846F906A08958F719927982F882772
:102000009062089580E090E0089581E890E408955A
:1020100082E890E4089582EE94E4089589EE94E4D1
:1020200008958AEE94E4089585EB94E4089586EB90
:1020300094E4089583EB94E4089584EB94E4089584
:1020400087EB94E408958CEC94E408958DEC94E48B
:10205000089583E895E408958AE895E4089582E96F
:1020600095E4089584E995E4089581E296E408955D
:1020700083E296E4089584E296E4089585E296E486
:10208000089586E296E4089587E296E4089580E054
:1020900094E408958238910549F1B0F481339105B3
:1020A00009F459C048F48932910509F44FC08A32C5
:1020B000910509F455C008958533910509F441C08F
:1020C0008933910599F00895833E910531F138F4F3
:1020D000803E910591F0823E9105A9F00895863EDB
:1020E000910501F1873E910539F1089520912A0269
:1020F00020FD3BC021FD39C0089580912A0280FF58
:1021000034C089E341C080912A0282FF32C08091AD
:102110002A0284FF2CC080E037C080912A0282FD11
:1021200028C0F5CF80912A0283FF25C080912A0222
:1021300084FDF1CF87EE28C080912A0283FD1BC069
:10214000F5CF80912A0285FF18C019C080912A021C
:1021500085FF15C012C080912A0286FF12C013C0ED
:1021600080912A0286FF0FC00CC080EE0DC083EE66
:102170000BC082EE09C086EE07C085E305C089E288
:1021800003C081E301C08AE290E008950895CF93EF
:10219000DF93EC01FB018281811102C081E040C02C
:1021A00080914701811125C0C531D047B9F70E9400
:1021B000C61081E0809347010E94A01F90934601C2
:1021C0008093450110923A0110923C0110923B011C
:1021D00010923E0110923D011092400110923F0179
:1021E0001092420110924101109244011092430159
:1021F00016C080914501909146010E94AC1F883C19
:10220000910560F680913A01E82FF0E0EE0FFF1F94
:10221000E55CFE4FD183C0838F5F80933A0180E0FD
:10222000DF91CF9108950C94600D0C94610DCF93C4
:10223000DF9385B7806885BF85B7806885BFABE1D0
:10224000B1E021E030E08D91E82FE295EF70F0E011
:1022500041A18F70B90102C0660F771F8A95E2F71E
:10226000CB01962F9095492341A392A1982B92A33D
:1022700071E0A232B70739F7A3E1B1E021E030E025
:102280008D91E82FE295EF70F0E041A18F70B901D8
:1022900002C0660F771F8A95E2F7CB01962F9095C3
:1022A000492341A392A1982B92A371E0AB31B707C8
:1022B00039F7E6E5F1E0CFE4D1E0A8E4B1E011922E
:1022C00019921D9281E0ED35F807C9F7DF91CF91A2
:1022D0000C94AE0E6F927F929F92AF92BF92CF926C
:1022E000DF92EF92FF920F931F93CF93DF930BE157
:1022F00011E0C8E4D1E0EE24E394F12CBB24B394C4
:10230000AE0198801882D8012D918D01E22FE295BF
:10231000EF70F0E081A12F70B70102C0660F771F48
:102320002A95E2F79B01862B81A382A1A62EA09479
:102330008A2182A370EA7A95F1F763E1662E61E063
:10234000762E80E090E0D3017D913D01C72EC294AE
:102350003FE0C322D12CD6019096DC90C8807F70DC
:10236000D70102C0AA0FBB1F7A95E2F7DA2239F42F
:102370006E2D082E01C0660F0A94EAF701C060E0D6
:102380006C296883019688309105E9F681A18A213C
:1023900081A382A1822B82A32196FA0180819816C3
:1023A00041F0B0925D010E94A01F90935F01809365
:1023B0005E01F1E002321F0709F0A2CF80915D01BA
:1023C0008823A1F080915E0190915F010E94AC1F73
:1023D000069760F0E8E4F1E0A6E5B1E081918D9325
:1023E00061E0EF34F607D1F710925D010E94B00E64
:1023F00081E0DF91CF911F910F91FF90EF90DF90DF
:10240000CF90BF90AF909F907F906F900895E82FEE
:10241000F0E0EA5AFE4F808108950895282F88231E
:1024200039F090E02A3010F44D96089506970895FB
:1024300087E290E00895E0910001F0910101808130
:102440008093250281FF03C081EE0E940C158091CC
:10245000250285FF03C085EE0E940C1580912502A0
:1024600080FF03C080EE0E940C158091250284FF3E
:1024700003C084EE0E940C158091250282FF03C0E8
:1024800082EE0E940C158091250286FF03C086EE25
:102490000E940C158091250283FF03C083EE0E94E9
:1024A0000C158091250287FF03C087EE0E940C1552
:1024B000809160018130A1F078F0823011F1843098
:1024C00049F586EE0E94441486EE0E940C1588E1C0
:1024D0000E94441488E11CC082EE0E9444141AC079
:1024E00080EE0E94441481EE0E94441488E10E9410
:1024F000441488E10E940C1581EE0E940C1580EEB8
:1025000007C082EE0E94441487E50E94441487E5C8
:102510000E940C158FE39CE90197F1F700C00000C1
:10252000089580916001813029F010F0823041F4EB
:1025300082EE04C08CE20E9444148CE20E940C15CE
:102540008091250281FF03C081EE0E944414809196
:10255000250285FF03C085EE0E9444148091250268
:1025600080FF03C080EE0E9444148091250284FF06
:1025700003C084EE0E9444148091250282FF03C0B0
:1025800082EE0E9444148091250286FF03C086EEED
:102590000E9444148091250283FF03C083EE0E94B1
:1025A00044148091250287FF03C087EE0C944414E5
:1025B0000895FF920F931F93CF93DF938C01CCE08C
:1025C000D0E0C8010C2E02C0969587950A94E2F7D8
:1025D000282F2F70F22E822F0E940E120E94441478
:1025E0008F2D0E940E120E940C152497CC3F8FEF66
:1025F000D80739F7DF91CF911F910F91FF90089580
:10260000CF93DF93EC01C13080E8D80760F0FB0185
:102610008281882341F00E941B12CE019F770E9485
:10262000D9120E94911281E0DF91CF910895909389
:102630006601809365010895E0916501F09166015E
:10264000309721F00190F081E02D099480E0089509
:10265000E0916501F0916601309721F00280F381ED
:10266000E02D09940895E0916501F091660130979D
:1026700021F00480F581E02D0994089520916301F3
:10268000309164018217930771F0909364018093F5
:102690006301E0916501F0916601309721F00680B9
:1026A000F781E02D09940895209161013091620134
:1026B0008217930771F09093620180936101E0911A
:1026C0006501F0916601309721F00084F185E02DDD
:1026D0000994089508950C946A130E94971F0E940C
:1026E00017110C946120CF92DF92EF92FF920F931B
:1026F0001F93CF93DF93CDB7DEB72B970FB6F89428
:10270000DEBF0FBECDBF0E946A1138E6E32E31E076
:10271000F32E00E010E0C02E802F0E940712F70178
:10272000D1907F01D826B1F40F5F1F4F07301105FC
:1027300091F78FEF89838A831B820E94A01F81609B
:10274000782F9D838C8349815A816B818D810E9472
:10275000161441C09091F80191FF04C08B870E942C
:102760000D128B8520E030E04D2D50E0922FBA0104
:10277000022E02C0759567950A94E2F760FF25C0A6
:102780002E83CF82EE24E394F12C02C0EE0CFF1CCA
:102790009A95E2F790E08E219F2121E0892B09F4A0
:1027A00020E028870E94A01F8160782F9A87898760
:1027B0004E815F8168858A850E941614F801E85968
:1027C000FE4F80818E25808306C02F5F3F4F2830CB
:1027D000310561F6A9CF0E940123109167010E9483
:1027E0001C131817A1F00E941C13809367012B96ED
:1027F0000FB6F894DEBF0FBECDBFDF91CF911F9112
:102800000F91FF90EF90DF90CF900C94B40E2B9629
:102810000FB6F894DEBF0FBECDBFDF91CF911F91F1
:102820000F91FF90EF90DF90CF900895CF93DF93BB
:10283000CDB7DEB72B970FB6F894DEBF0FBECDBF76
:102840004F83588769877A878B87DE01119686E0E8
:10285000FD0111928A95E9F785E0FE013796019016
:102860000D928A95E1F749815A816B817C818D8136
:102870009E810E949B1A2B960FB6F894DEBF0FBE66
:10288000CDBFDF91CF910895882309F4C4C0823869
:1028900059F40E941C1381FDBEC089E30E94EF1D04
:1028A0000E94B91E89E30CC0833871F40E941C1386
:1028B00080FDB1C083E50E94EF1D0E94B91E83E533
:1028C0000E942F1E0C94B91E843859F40E941C13C8
:1028D00082FDA1C087E40E94EF1D0E94B91E87E41B
:1028E000EFCF9CEF980F913A18F40E94EF1DEACFBA
:1028F00090E2980F983050F4877091E001C0990FE2
:102900008A95EAF7892F0E94701EDCCF9BE5980F0D
:10291000933070F4853A29F0863A31F482E890E0F9
:1029200005C081E890E002C083E890E00C943E137B
:1029300098E5980F953108F06EC0883A61F1893AB0
:1029400069F18A3A71F18B3A79F18C3A81F18B3BDA
:1029500089F18C3B91F18D3A99F1803BA1F18E3A4E
:10296000A9F18F3AB1F1813BB9F1823BC1F1833BCF
:10297000C9F1843BD1F1853BD9F1863BE1F1873B3D
:10298000E9F1883BF1F1893BF9F18A3B09F03FC05D
:102990008AE292E03EC082EE90E03BC089EE90E099
:1029A00038C08AEE90E035C085EB90E032C086EB0F
:1029B00090E02FC083EB90E02CC084EB90E029C026
:1029C00087EB90E026C08CEC90E023C08DEC90E08B
:1029D00020C083E891E01DC08AE891E01AC082E936
:1029E00091E017C084E991E014C081E292E011C047
:1029F00083E292E00EC084E292E00BC085E292E0B6
:102A000008C086E292E005C087E292E002C080E062
:102A100090E00C9454130895882309F44BC0823835
:102A200059F40E941C1381FF45C089E30E94EF1DE9
:102A30000E94B91E89E30CC0833871F40E941C13F4
:102A400080FF38C083E50E94EF1D0E94B91E83E518
:102A50000E942F1E0C94B91E843859F40E941C1336
:102A600082FF28C087E40E94EF1D0E94B91E87E400
:102A7000EFCF9CEF980F913A58F390E2980F98306F
:102A800050F4877091E001C0990F8A95EAF7892F79
:102A90000E94761EDFCF9BE5980F933020F480E0F4
:102AA00090E00C943E13885A853120F480E090E049
:102AB0000C9454130895882321F00E94701E0C94E6
:102AC000B91E0895882321F00E94761E0C94B91E29
:102AD00008958F929F92AF92BF92CF92DF92EF9222
:102AE000FF920F931F93CF93DF931F92CDB7DEB763
:102AF0004C01A62E472FFC01E580E2948FE0E822EE
:102B0000F280FF2021F079830E948D1E4981498344
:102B10000E94E81D4981882381F0FF2071F080E246
:102B20008A0D883050F082E00E94D11D0E94E81D7D
:102B3000BB24B394B826498101C0B12CE42FE2959F
:102B4000EF70F0E0E653FF4F0C94CD2B842F807F85
:102B5000142F1F70882311F01295107FFF2099F019
:102B6000112309F499C180E28A0D883010F0A11078
:102B700004C0812F0E94701E03C0812F0E94801EFE
:102B80000E94B91E89C18A2D0E940C15112309F4D7
:102B90009AC180E28A0D883010F0A11004C0812F04
:102BA0000E94761E03C0812F0E94861E0E94B91EBD
:102BB0008AC1242F207F842F8F70203211F08295BC
:102BC000807FAA2021F0F1E0AF16B1F021C0FF20F4
:102BD00041F0EE2039F191E0E91224C00E94A01EDC
:102BE00072C1EE2021F0E1E0EE1609F46CC1898398
:102BF0000E94A31E89810BC1FF2029F0F5E0FE157C
:102C000008F461C10FC094E09E1508F45CC1FFC0D8
:102C1000FF2059F0EE2031F0F401958190FF3CC186
:102C20009F7095830E945B154EC1EE2009F4EFC0A2
:102C300039C1242F26952695237030E021153105C2
:102C400021F02130310561F03EC1FF2021F08A2DB5
:102C5000942F937002C080E090E00E943E1333C135
:102C6000FF2021F08A2D942F937002C080E090E025
:102C70000E94541328C18A2DFF2019F00E940922B6
:102C800002C00E9471220E94F6221DC1842F83700F
:102C900009F04EC0F11017C12A2D229526952770F4
:102CA000220F220F8A2D8F70C82ED12CE12CF12CEF
:102CB000022E04C0CC0CDD1CEE1CFF1C0A94D2F7C3
:102CC000A4FE10C06FE070E080E090E004C0660FEA
:102CD000771F881F991F2A95D2F760957095809568
:102CE000909503C060E070E0CB01242F26952695D7
:102CF000237030E02230310569F02330310589F04E
:102D00006C297D298E299F292130310571F00E947F
:102D1000ED1BD9C06C297D298E299F290E94071C93
:102D2000D2C00E94ED1BC701B6010E94D31BCBC0CD
:102D3000FF2019F0842F817001C08695882309F443
:102D4000C2C02A2D229526952770220F220F8A2D88
:102D50008F70C82ED12CE12CF12C022E04C0CC0C8B
:102D6000DD1CEE1CFF1C0A94D2F7A4FE10C06FE01D
:102D700070E080E090E004C0660F771F881F991F05
:102D80002A95D2F7609570958095909503C060E084
:102D900070E0CB01242F26952695237030E0223059
:102DA000310569F02330310589F06C297D298E29A0
:102DB0009F292130310571F00E94C11C84C06C290B
:102DC0007D298E299F290E94DB1C7DC00E94C11C89
:102DD000C701B6010E94A71C76C00A2D10E0F801B9
:102DE000E05EF109E531F10508F052C0E652FF4F0F
:102DF0000C94CD2B1A2D1F70842F8F71FF2021F082
:102E00000E94401C812F0ECF0E94611C812F0E94C6
:102E1000621559C0FF2049F0F4E0FE1508F453C0D4
:102E2000842F8F710E94861C4EC085E08E1508F499
:102E30004AC0F6CFFF2039F0842F8F710E94401CCA
:102E400042C0FF20C9F3842F8F710E94611C3BC0D8
:102E5000FF2029F0842F8F710E942B1C34C00E9408
:102E6000211C31C0FF2051F0142F1F71812F0E94AF
:102E7000401C63E0812F0E94C81D25C081E00E9494
:102E8000D11D91E09E15F8F482E00E94D11D1BC077
:102E9000FF2031F0EE2081F28A2D0E94441413C0ED
:102EA000EE2089F28A2D0E940C150DC04F706A2DFC
:102EB000C4010E94520A0E94481B05C04F706A2D2F
:102EC000C4010E94B60EBB20F1F00E94C41D80FD1B
:102ED0001AC0F40112820E94BE1D0E94401CC4014F
:102EE0000E9491170E94BE1D0F90DF91CF911F91FC
:102EF0000F91FF90EF90DF90CF90BF90AF909F9099
:102F00008F900C94611C0F90DF91CF911F910F91C6
:102F1000FF90EF90DF90CF90BF90AF909F908F90F9
:102F200008950F931F93CF93DF93EC01288139818C
:102F30008B819C81892B31F03F3F11F080E003C0F1
:102F40002F3FE1F781E0811113C0CE010E94760D81
:102F5000882371F0688179818A810E949B1D8C0190
:102F60000E94F51C0E94C81BB801CE010E94691581
:102F7000DF91CF911F910F9108950E948D1E0E94A5
:102F80009D1E0E94621E0E94B91E0E94A2230E94E2
:102F9000F62280E090E00E943E1380E090E00C94E6
:102FA00054130E947D1E0C94BD170E94901DE92FA2
:102FB000E295EF70F0E03297EE30F105B8F4E151B0
:102FC000FF4F0C94CD2B803F59F018F4803E70F4E5
:102FD00007C0843F59F404C0803E10F0813F31F4B3
:102FE00081E0089593FB882780F9089580E0089593
:102FF000CF93DF9300D000D01F92CDB7DEB70F90F4
:103000000F900F900F900F90DF91CF910895CF9375
:10301000DF9300D000D000D0CDB7DEB726960FB634
:10302000F894DEBF0FBECDBFDF91CF9108951F93FF
:10303000CF93DF93C091700116E080917101C817A2
:1030400099F0D0E01C9FF0011D9FF00D1124EE5867
:10305000FE4F4081518162817381848195810E94FC
:1030600007182196C770E9CFDF91CF911F9108957E
:103070004091A2015091A3016091A4017091A5011A
:103080008091A6019091A7010C940718CF9380918D
:10309000A70182958F7009F05FC08091A4018823F9
:1030A00009F45AC020917001A09171016091A201B0
:1030B0007091A3018091A5019091A60131E06F3F2D
:1030C00009F030E0B32FC6E02A1709F445C0009795
:1030D00021F07F3F21F44B2F03C041E001C040E0CD
:1030E00030E040FD35C0C29FF001C39FF00D1124B8
:1030F000EE58FE4F418174132BC04081641328C0E9
:103100004281411125C0438154814817590710F469
:1031100041505109481B590B483C5105C8F4809156
:10312000A7018F7080618093A70186E0829FF001E4
:10313000839FF00D1124E958FE4F80818F708061CC
:10314000808382EA91E00E949117CF910C94171826
:103150002F5F3F4F2770B8CFCF910895CF92DF9266
:10316000EF92FF920F931F93CF93DF93CDB7DEB70C
:1031700062970FB6F894DEBF0FBECDBF8C0185E01D
:10318000F801DE011D9601900D928A95E1F7D801B4
:103190004C9111965C91119712966C91129713961F
:1031A000ED90FC9014977091A201E091A301209101
:1031B000A5013091A6012115310531F0EF3F31F421
:1031C00081E07F3F19F403C081E001C080E0B82FA7
:1031D000B170CB2E80FD6CC1D090A401DD2009F42C
:1031E000F5C0F091A701E216F30638F0C701821B83
:1031F000930B883C910548F09BC0209530952E0D8F
:103200003F1D283C310508F093C08F2F807F09F0C7
:1032100052C0E51314C0741312C0D62E61110FC032
:10322000FF70F061F093A7010E94381882EA91E0E4
:103230000E9491178091A701F80185836CC1EF2846
:1032400031F05F3F31F481E04F3F19F403C081E07A
:1032500001C080E080FD03C081E0862701C080E0DE
:10326000F82FF170FF2E80FF1CC08091700120911B
:10327000710136E0821709F428C190E0389FF0010F
:10328000399FF00D1124EE58FE4F7181571306C07F
:103290007081471303C07281671303C00196877062
:1032A000E9CFD62E662309F436C18091A70181604B
:1032B0008093A70153C0E51308C0741306C06111C1
:1032C00004C0D8011596FC93AEC04D875E878D85EE
:1032D0009E856A8B0E94D5176A89882329F1D62E8C
:1032E000662311F12091A701822F82958F7090E0C3
:1032F00002970CF460C08091A2019091A30198877D
:103300008F831986FB86EA862C87CE01079651C0EB
:10331000E51731F14D875E878D859E856A8B0E940A
:10332000D5176A8981112EC0C8010E949117A4C0C7
:103330008F2F807F69F77E2DF98AE88A89890E941C
:10334000F81782EA91E00E949117E2EAF1E086E044
:10335000DF011D928A95E9F70E943818D12CDBC055
:103360007413D8CF6111D6CFD8011596FC93C8013C
:103370000E949117E2EAF1E086E0DF011D928A9552
:10338000E9F7C9C0D62E662379F22091A701822FD2
:1033900082958F7090E0029774F08091A2019091D5
:1033A000A3019A8389831B82FD82EC822E83CE0146
:1033B00001960E94911786E0F801A2EAB1E001901F
:1033C0000D928A95E1F70E9446186FC0E216F30647
:1033D00028F0C701821B930B9C0104C020953095F7
:1033E0002E0D3F1D283C310508F052C0D62E662315
:1033F00009F49ACFE5132CC074132AC08091A70159
:1034000080FD1DC0982F92959F70C9F0D801159628
:103410008C9315979F3039F09F5F9295907F8F70B6
:10342000892B15968C93C8010E94911786E0F801AC
:10343000A2EAB1E001900D928A95E1F736C086E0EC
:10344000F801A2EAB1E001900D928A95E1F763C01C
:103450004D875E878D859E850E94D517882379F0DC
:1034600086E0F801A2EAB1E001900D928A95E1F7B9
:103470000E9446180E943818DD24D3944CC08091D5
:10348000A70181608093A701C8010E94911743C0E2
:103490007E2DF98AE88A89890E94F817E2EAF1E02C
:1034A00086E0DF011D928A95E9F70E94381833C043
:1034B000662309F439CF4D875E878D859E850E94EE
:1034C000D517882309F430CFCBCF4D875E878D8504
:1034D0009E850E94901D292F22952F7030E022306A
:1034E00031052CF49F7041F0811106C00CC02430CE
:1034F00031052CF49F7049F4805E883020F0C801BB
:103500000E949117CF2CDC2C06C0D80115969C91F7
:10351000907F91F7F8CF8D2D62960FB6F894DEBFAD
:103520000FBECDBFDF91CF911F910F91FF90EF9014
:10353000DF90CF9008951F93CF93DF93CDB7DEB781
:103540002C970FB6F894DEBF0FBECDBF4F835887C0
:1035500069877A878B879C87CE0107960E94AE1871
:103560008823C1F02F8138858A859B85892B31F08E
:103570003F3F11F080E003C02F3FE1F781E0811170
:1035800047C04F81588569857A858B859C850E94C7
:1035900007183EC086E0FE013796DE0111960190C5
:1035A0000D928A95E1F7FF81E8854A855B85411593
:1035B000510531F0EF3F31F481E0FF3F19F403C0D2
:1035C00081E001C080E080FD23C02091710130E0E6
:1035D000C9010196877099276091700170E0861784
:1035E0009707F1F1F983EA835D834C8396E0929F1C
:1035F000D001939FB00D1124AE58BE4FFE013196FD
:1036000001900D929A95E1F7809371010E9417182D
:1036100016E08091700190917101891779F1189FDE
:10362000C00111248E589E4F0E94AE18882331F19C
:10363000E09170011E9FF0011124EE58FE4F408171
:10364000518162817381848195810E9407188091E4
:10365000700190E001968770992780937001D9CF0F
:103660000E94D1171092710110927001E2EAF1E00C
:1036700086E0DF011D928A95E9F7CACF2C960FB636
:10368000F894DEBF0FBECDBFDF91CF911F9108959B
:10369000EF92FF920F931F93CF93DF93FC0100975C
:1036A00009F46FC0F12CEE24E394EF01219684918C
:1036B000843740F4843008F055C0813081F0823086
:1036C00021F15FC0853709F447C0C0F19CE7980F2E
:1036D000903708F056C08F770E940C1545C08F01B7
:1036E0000E5F1F4FFE01849190E2980F983050F4C6
:1036F0008770FE2D01C0FF0F8A95EAF78F2F0E9479
:10370000901E15C00E94441414C08F010E5F1F4FFD
:10371000FE01849190E2980F983068F48770FE2D36
:1037200001C0FF0F8A95EAF78F2F0E94961E0E9414
:10373000B91EE80119C00E940C15FBCFCF010296FB
:10374000FE01C491CC2361F0EFE9FFE03197F1F77E
:1037500000C00000C150F6CFCF010296FE01F490E8
:10376000EC0102C00E9444148F2D882341F0EFE940
:10377000FFE03197F1F700C000008150F6CFFE0165
:1037800094CFDF91CF911F910F91FF90EF9008950B
:1037900008956093CF017093D0018093D1019093ED
:1037A000D2010C94BD170F931F930091CF0110917C
:1037B000D0012091D1013091D201062B172B282B5B
:1037C000392B0093CF011093D0012093D101309376
:1037D000D2011F910F910C94BD170F931F9300916D
:1037E000CF011091D0012091D1013091D201062357
:1037F0001723282339230093CF011093D00120935E
:10380000D1013093D2011F910F910C94BD170F93EA
:103810001F930091CF011091D0012091D1013091DF
:10382000D20106271727282739270093CF011093A5
:10383000D0012093D1013093D2011F910F910C94AC
:10384000BD171092CB011092CC011092CD011092B5
:10385000CE010C94BD1741E050E060E070E004C080
:10386000440F551F661F771F8A95D2F74093CB01EF
:103870005093CC016093CD017093CE010C94BD1791
:1038800041E050E060E070E004C0440F551F661F47
:10389000771F8A95D2F78091CB019091CC01A091AE
:1038A000CD01B091CE01842B952BA62BB72B809305
:1038B000CB019093CC01A093CD01B093CE010C9499
:1038C000BD1741E050E060E070E004C0440F551FB8
:1038D000661F771F8A95D2F7409550956095709531
:1038E0008091CB019091CC01A091CD01B091CE01FE
:1038F00084239523A623B7238093CB019093CC01F7
:10390000A093CD01B093CE010C94BD1741E050E0DF
:1039100060E070E004C0440F551F661F771F8A9552
:10392000D2F78091CB019091CC01A091CD01B091C3
:10393000CE0184279527A627B7278093CB019093A4
:10394000CC01A093CD01B093CE010C94BD170F9381
:103950001F930091CB011091CC012091CD013091AA
:10396000CE01062B172B282B392B0093CB0110935C
:10397000CC012093CD013093CE011F910F910C9477
:10398000BD170F931F930091CB011091CC01209193
:10399000CD013091CE01062317232823392300932C
:1039A000CB011093CC012093CD013093CE011F9118
:1039B0000F910C94BD170F931F930091CB011091A1
:1039C000CC012091CD013091CE0106271727282761
:1039D00039270093CB011093CC012093CD01309374
:1039E000CE011F910F910C94BD17089528E0929F6E
:1039F000800D1124482F4695469546958770B1E075
:103A000001C0BB0F8A95EAF785E0489FA001112409
:103A100048555E4F80E090E070E0FA01E80FF91F32
:103A2000A0819B01082E02C0369527950A94E2F7E3
:103A30002170332721952A272B232A2720830196BB
:103A40008530910551F7089528E0929F800D11244B
:103A5000682F669566956695982F977085E0689FA4
:103A6000B001112468557E4F40E050E080E0FB013A
:103A7000E40FF51F208130E0092E02C0369527950E
:103A80000A94E2F721703327042E01C0220F0A9412
:103A9000EAF7822B4F5F5F4F4530510541F708959C
:103AA000CF92DF92EF92FF920F931F93CF93DF930A
:103AB000EC01C090CF01D090D001E090D101F09006
:103AC000D2018091CB019091CC01A091CD01B09118
:103AD000CE01C82AD92AEA2AFB2A0FE110E0B70151
:103AE000A601002E04C076956795579547950A94D0
:103AF000D2F740FD05C00150110988F780E007C0EA
:103B0000BE01802F0E94D40E0197A9F3802FDF9170
:103B1000CF911F910F91FF90EF90DF90CF9008957C
:103B2000CF93DF93EC010E94501DBE010E94D40E82
:103B3000DF91CF9108951F93CF93DF93EB01909185
:103B40006F01992321F0CB010E94901D13C088239F
:103B500049F0CB010E94501D182F682FCE010E9402
:103B6000F61C04C0CB010E94241D182FBE01812F1A
:103B70000E94D40EDF91CF911F9108958091D301BF
:103B800085958595859508958091D30187700895D1
:103B900098E0899F90011124622B6093D3010C94CB
:103BA000401C4091D301809584238093D301982FAA
:103BB000977069F450E0282F332727FD309542177E
:103BC000530729F08595859585950C94611C08957A
:103BD0009091D301977081E009F480E0089590916D
:103BE00012019923D9F090912A0297FF17C0982FBC
:103BF0009695969596959F3188F5E0910001F09104
:103C00000101E90FF11D877021E030E001C0220FB2
:103C10008A95EAF78181822B818308954091000182
:103C20005091010120E030E09FEFFA01E20FF31F15
:103C30006281681799F09F3F19F4611101C0922FBA
:103C40002F5F3F4F2E31310581F79F3F39F0FA0149
:103C5000E90FF11D97FDFA958283089508959091DB
:103C600012019923E1F090912A0297FF18C0982F32
:103C70009695969596959F3120F5E0910001F091EB
:103C80000101E90FF11D877021E030E001C0220F32
:103C90008A95EAF720958181282321830895409110
:103CA00000015091010120E030E0FA01E20FF31F22
:103CB0009281981301C012822F5F3F4F2E31310540
:103CC000A1F7089581E090E0E0910001F0910101F9
:103CD000E80FF91F1082019680329105A9F7089527
:103CE0009091F701982B9093F7010895809590910A
:103CF000F70198239093F70108951092F701089522
:103D00009091F601982B9093F601089580959091EB
:103D1000F60198239093F60108951092F601089504
:103D20009091F501982B9093F501089580959091CD
:103D3000F50198239093F50108951092F5010895E7
:103D40008093D40108951092D40108954091000108
:103D50005091010120E030E080E0FA01E20FF31F12
:103D6000918191118F5F2F5F3F4F2F313105A9F75F
:103D70000895E0910001F09101018091F7018083A5
:103D8000E0910001F091010180819091F601892B71
:103D90008083E0910001F091010180819091F50113
:103DA000892B80839091D401992361F0E0910001E7
:103DB000F09101018081892B80830E94A61E8111D0
:103DC0001092D40180910001909101010C9428136C
:103DD0006DEE7EEF80E090E00E94072C60E082E0D4
:103DE00090E00E94F52B60E083E090E00E94F52BCC
:103DF00060E084E090E00E94F52B60E085E090E0D8
:103E00000C94F52B80E090E00E94EF2B21E08D3E9A
:103E10009E4F09F020E0822F089582E090E00C94FC
:103E2000E72B682F82E090E00C94F52B83E090E084
:103E30000C94E72B682F83E090E00C94F52B84E042
:103E400090E00C94E72B682F84E090E00C94F52B25
:103E500080913002843021F11092F90120E488E150
:103E600090E00FB6F894A895809360000FBE209361
:103E7000600080E00E94B40E83B7817F846083BFBE
:103E800083B7816083BF7894889583B78E7F83BF23
:103E900088E10FB6F89480936000109260000FBE26
:103EA000089508950895CF930E94511F0E946A11AA
:103EB0000E94521FC0E08C2F0E940712811105C082
:103EC000CF5FC730C1F780E001C081E0CF91089596
:103ED0000E94D1170E941C130C94B40E1F920F92D3
:103EE0000FB60F9211248F939F93AF93BF9380913E
:103EF000F901811113C08091260290912702A091AF
:103F00002802B09129024196A11DB11D809326027D
:103F100090932702A0932802B0932902BF91AF91FA
:103F20009F918F910F900FBE0F901F90189582E078
:103F300084BD93E095BD9AEF97BD80936E00089580
:103F40002FB7F8948091260290912702A091280221
:103F5000B09129022FBF0895CF92DF92EF92FF9286
:103F60000F931F932FB7F894409126025091270288
:103F700060912802709129022FBF6A017B01EE2413
:103F8000FF248C0120E030E0C016D106E206F306E3
:103F900010F441505109481B590BCA011F910F9150
:103FA000FF90EF90DF90CF9008951F920F920FB681
:103FB0000F9211248F939F93AF93BF93809126020A
:103FC00090912702A0912802B09129020196A11D8B
:103FD000B11D8093260290932702A0932802B093EC
:103FE0002902BF91AF919F918F910F900FBE0F90BB
:103FF0001F9018950E94A227F8942FEF87EA91E668
:10400000215080409040E1F700C0000087E090EB35
:10401000DC018093390290933A02A0933B02B09363
:104020003C022CE088E190E00FB6F894A8958093CC
:1040300060000FBE20936000FFCFDF92EF92FF92EF
:104040000F931F93CF93DF93D12C082F10E08D2D6A
:104050000E940712C0E0D0E0E82EF12C97010C2E50
:1040600002C0359527950A94E2F720FD05C02196F8
:10407000C830D10599F70AC06C2F7D2D80E00E94D1
:10408000B70E0817190799F781E005C0D39487E0A8
:10409000D812DDCF80E0DF91CF911F910F91FF907B
:1040A000EF90DF900895CF93C82F8CE20E941D20DF
:1040B000882321F08C2FCF910C941D2080E0CF918C
:1040C0000895CF930E94021F811102C00E94E81E32
:1040D000C5E6C15049F00E946A118FE39CE901973F
:1040E000F1F700C00000F5CF89E20E945320811152
:1040F0000DC18AE20E94532081110E94E81E85E0D2
:104100000E94532081110E94FA1F0E940D1F80936C
:10411000F80187E00E945320882399F18BE10E94E7
:104120005320882351F09091F80191FB882780F962
:1041300021E0822780FB91F922C08EE00E9453206B
:10414000882351F09091F80192FB882780F921E0B3
:10415000822780FB92F913C080E10E945320909146
:10416000F801882341F093FB882780F921E082271A
:1041700080FB93F904C0892F809580FB90F9909380
:10418000F8018091F8010E94111F0E941F1F90E00A
:1041900090932B0280932A0280EE0E945320882362
:1041A00041F080912A02982F909590FB80F980939E
:1041B0002A0289E30E945320882359F090912A0211
:1041C00091FB882780F921E0822780FB91F9909369
:1041D0002A0282EE0E945320882359F090912A02ED
:1041E00092FB882780F921E0822780FB92F9909347
:1041F0002A0286EE0E945320882359F090912A02C9
:1042000093FB882780F921E0822780FB93F9909324
:104210002A0283EE0E945320882359F090912A02AB
:1042200094FB882780F921E0822780FB94F9909302
:104230002A0285E30E945320882359F090912A0294
:1042400095FB882780F921E0822780FB95F99093E0
:104250002A0281E30E945320882359F090912A0278
:1042600096FB882780F921E0822780FB96F99093BE
:104270002A0281E10E945320882359F090912A025A
:1042800097FB882780F921E0822780FB97F990939C
:104290002A0280912A020E94231F87E20E94532053
:1042A000C82F8EE10E9453208111C2608FE10E94CD
:1042B00053208111C46080E20E9453208111C860A4
:1042C00081E20E9453208111C06182E20E9453204A
:1042D0008111C06283E20E9453208111C06484E294
:1042E0000E945320882311F0C06802C0CC2329F01B
:1042F0008C2F0E941A1F6C2F03C00E94161F682F5C
:1043000070E080E090E0CF910C94C91BCF910895AC
:104310008091FC0180FF0BC06091050185E0689FE2
:10432000B001112475956795759567952AC081FF31
:1043300009C06091050185E0689FB0011124759561
:1043400067951FC082FF07C06091050185E0689FE7
:10435000B001112416C04091FD014423C9F06091C1
:104360000401461788F72091050185E0289F9001F8
:104370001124429FC001439F900D112470E00E94C0
:10438000B92B6038710540F46115710539F002C030
:1043900065E070E0862F08958FE7089581E0089525
:1043A0008091FC0180FF08C06091030170E0759569
:1043B00067957595679521C081FF06C060910301DF
:1043C00070E07595679519C082FF04C06091030184
:1043D00070E010C08091FD018823C1F0609102015E
:1043E0008617A0F790910301989FC001112470E0F7
:1043F0000E94B92B6038710528F46115710521F010
:10440000862F08958FE7089581E0089561E070E0B8
:10441000F4CF803F21F40E948821819504C0813F20
:1044200029F40E948821809300020895823F21F49C
:104430000E948821819504C0833F29F40E9488212D
:104440008093FF010895893F19F40E94D02105C08F
:104450008A3F31F40E94D021819580930102089512
:104460008B3F21F40E94D021819504C08C3F29F418
:104470000E94D021809302020895843F21F480910C
:10448000FE01816017C0853F21F48091FE018260AA
:1044900011C0863F21F48091FE0184600BC0873FEC
:1044A00021F48091FE01886005C0883F31F480913D
:1044B000FE0180618093FE0108958D3F21F480917B
:1044C000FC0181600BC08E3F21F48091FC01826071
:1044D00005C08F3F29F48091FC0184608093FC012A
:1044E0000895803F39F48091000287FF6CC01092DC
:1044F000000269C0813F29F4809100021816BCF3C4
:1045000062C09091FF01823F29F497FF5CC0109236
:10451000FF0159C0833F19F41916CCF354C0893FE9
:1045200041F48091010218160CF04DC01092010266
:104530004AC08A3F29F48091010287FF44C0F6CF28
:104540008B3F39F48091020287FF3DC01092020236
:104550003AC08C3F29F4809102021816BCF333C094
:10456000843F21F48091FE018E7F17C0853F21F4A6
:104570008091FE018D7F11C0863F21F48091FE0164
:104580008B7F0BC0873F21F48091FE01877F05C0A0
:10459000883F31F48091FE018F7E8093FE0113C02D
:1045A0008D3F21F48091FC018E7F0BC08E3F21F462
:1045B0008091FC018D7F05C08F3F29F48091FC0123
:1045C0008B7F8093FC018091FF0181110EC080914F
:1045D000000281110AC080910102811106C0809100
:1045E0000202811102C01092FD0108958EEF91E048
:1045F0000E9433130E94A01F9093FB018093FA0145
:1046000008951F93CF93DF938091FA019091FB015E
:104610000E94AC1F4091FD01442321F0209106012E
:1046200030E006C0209107015AE0259F9001112437
:104630008217930708F482C08091FF011091000255
:10464000D0910102C0910202811107C0111105C071
:10465000D11103C0CC2309F471C04F3F19F04F5F53
:104660004093FD01181624F40E9488218093FF01D5
:104670008091FF0187FF05C00E948821819580936A
:10468000FF01111624F40E9488218093000280917A
:10469000000287FF05C00E94882181958093000257
:1046A0006091FF01662339F110910002112319F185
:1046B000772767FD7095872F972F0E94CA2A23E3DB
:1046C00033E343E35FE30E942E2B0E94972A60931B
:1046D000FF01612F772767FD7095872F972F0E9425
:1046E000CA2A23E333E343E35FE30E942E2B0E94B5
:1046F000972A609300021D1624F40E94D021809313
:1047000001028091010287FF05C00E94D02181959E
:10471000809301021C1624F40E94D021809302028F
:104720008091020287FF05C00E94D021819580936D
:104730000202DF91CF911F910C94F622DF91CF916D
:104740001F910895EEEFF1E085E0DF011D928A955B
:10475000E9F71092FD011092FC0108958091230267
:104760000895CF93DF9300D01F92CDB7DEB720918D
:104770003002243019F523E029839B838A83209318
:10478000E9008FEF9091E800815095FD06C095ED0E
:104790009A95F1F700008111F5CF8091E80085FF2F
:1047A0000DC040E050E063E070E0CE0101960E9451
:1047B00010268091E8008E778093E8000F900F908C
:1047C0000F90DF91CF910895CF93DF9300D01F9288
:1047D000CDB7DEB720913002243031F522E02983B5
:1047E000805891099B838A8383E08093E9008FEF4F
:1047F0009091E800815095FD06C095ED9A95F1F7EE
:1048000000008111F5CF8091E80085FF0DC040E0E8
:1048100050E063E070E0CE0101960E941026809186
:10482000E8008E778093E8000F900F900F90DF9153
:10483000CF910895209130022430F1F422E02093AA
:10484000E9002FEF3091E800215035FD06C035ED2D
:104850003A95F1F700002111F5CF2091E80025FFEE
:104860000BC040E050E065E070E00E9410268091AF
:10487000E8008E778093E8000895CF93DF93EC01F2
:1048800080913002843009F046C090911201992342
:10489000D9F090912A0297FF17C08093E9008FEF1B
:1048A0009091E800815095FD06C095E19A95F1F749
:1048B00000008111F5CF8091E80085FF2CC040E019
:1048C00050E060E270E017C081E08093E9008FEF74
:1048D0009091E800815095FD06C095ED9A95F1F70D
:1048E00000008111F5CF8091E80085FF14C040E001
:1048F00050E068E070E0CE010E9410268091E80050
:104900008E778093E80080E2FE01A3E0B2E00190A0
:104910000D928A95E1F7DF91CF91089580912F0252
:10492000811109C00E94A2270E94FF278091E20006
:1049300084608093E200089510922F0208950895F4
:1049400008950C94681F42E061EC81E00E941C27EE
:1049500042E061EC82E00E941C2742E061EC83E0CF
:104960000E941C2742E261EC84E00C941C27809199
:104970003202833009F455C030F4813071F0823056
:1049800009F48EC008958A3009F47AC08B3009F496
:1049900060C0893009F09CC020C080913102813A0A
:1049A00009F096C08091E800877F8093E8008091AD
:1049B000350290913602892B21F060E080E090E092
:1049C00003C060E283E092E070E00E94592680918B
:1049D000E8008B778093E80008958091310281325E
:1049E00009F076C08091350290913602009719F057
:1049F000039709F06DC08091E800877F8093E800FD
:104A00008091E80082FD05C0809130028111F8CFCD
:104A10005FC08091F100809323028091E8008B7742
:104A200053C080913102813A09F052C08091350221
:104A300090913602892B09F04BC08091E800877F66
:104A40008093E8008091E80080FFFCCF8091120104
:104A500036C0809131028132D9F580913502909132
:104A60003602892BA9F58091E800877F8093E800C2
:104A70000E94512780913302809312010C94D11728
:104A800080913102813221F58091E800877F809307
:104A9000E8000E94512780913402809324020895F7
:104AA00080913102813AA1F48091E800877F809360
:104AB000E8008091E80080FFFCCF80912402809381
:104AC000F1008091E8008E778093E8000C945127E4
:104AD000089584B7877F84BF88E10FB6F8948093E8
:104AE0006000109260000FBE80E880936100109219
:104AF00061000E946B130E94A2270E94FF278091F1
:104B0000E20084608093E20078940E947A2A0E94F6
:104B10006D1388E091E00E94171380913002853078
:104B200069F40E94281F80912E028823B1F30E940D
:104B3000531F882391F30E94FA25EFCF0E9473132D
:104B4000ECCF292F332723303105A9F06CF4213025
:104B5000310509F442C02230310509F043C08DE629
:104B600090E02CE932E142C021323105C9F0223215
:104B7000310519F137C099278130910541F0823014
:104B8000910541F0892B71F5E8E9F2E105C0E2E712
:104B9000F2E102C0EEE5F2E1849190E09F0126C0CF
:104BA000643000F5E62FF0E0EE0FFF1FE25DFE4FF0
:104BB0002081318189E090E019C0643098F4E62FBB
:104BC000F0E0DF01AA0FBB1FAA5DBE4F2D913C9103
:104BD000EE5DFE4F808190E009C082E190E029E027
:104BE00033E104C080E090E020E030E0FA0131835E
:104BF0002083089580E189BD82E189BD09B400FE6A
:104C0000FDCF8091D8008F7D8093D8008091E00007
:104C100082608093E0008091E00081FDFCCF0895E8
:104C2000CF92DF92EF92FF920F931F93CF93DF9378
:104C30007C018B01EA010E947227811131C020970B
:104C400031F088819981081B190BE80EF91EC12CDF
:104C5000D12C0115110519F18091E80085FD14C0D2
:104C60008091E8008E778093E800209741F088815A
:104C700099818C0D9D1D9983888385E011C00E94C8
:104C80007227882331F30CC0F70181917F01809353
:104C9000F10001501109FFEFCF1ADF0ADACF80E0EF
:104CA000DF91CF911F910F91FF90EF90DF90CF9008
:104CB000089520913702309138022617370748F0BF
:104CC0006115710539F42091E8002E772093E800F2
:104CD00001C0B901FC0120E061157105B9F18091B5
:104CE0003002882309F440C0853009F43FC0809128
:104CF000E80083FD3DC08091E80082FF06C08091FE
:104D0000E80082FF26C080E008958091E80080FFDF
:104D1000E3CF2091F3008091F20090E0922B611597
:104D2000710551F08830910538F421912093F100FC
:104D3000615071090196F3CF21E0089709F020E056
:104D40008091E8008E778093E800C6CF2111C7CF0D
:104D5000D6CF80913002882339F0853039F08091A8
:104D6000E80083FFCCCF04C082E0089583E008957B
:104D700081E00895209137023091380226173707D5
:104D800048F06115710539F42091E8002E772093E1
:104D9000E80001C0B901FC0120E061157105C1F115
:104DA00080913002882309F441C0853009F440C065
:104DB0008091E80083FD3EC08091E80082FF06C03C
:104DC0008091E80082FF27C080E008958091E8008C
:104DD00080FFE3CF2091F3008091F20090E0922BCE
:104DE0006115710559F08830910540F424912093A4
:104DF000F1003196615071090196F2CF21E00897D8
:104E000009F020E08091E8008E778093E800C5CF1C
:104E10002111C6CFD5CF80913002882339F085305B
:104E200039F08091E80083FFCBCF04C082E0089581
:104E300083E0089581E00895982F973058F5909376
:104E4000E900981739F07091EC002091ED00509135
:104E5000F00003C0242F762F50E021FF19C03091BD
:104E6000EB003E7F3093EB003091ED003D7F3093BF
:104E7000ED003091EB0031603093EB007093EC006B
:104E80002093ED005093F0002091EE0027FF07C023
:104E90009F5FD3CF8F708093E90081E0089580E019
:104EA00008958091310287FD05C08091E80080FF60
:104EB0000EC012C08091E80082FD05C080913002D2
:104EC0008111F8CF08958091E8008B7708C0809118
:104ED00030028111EACF08958091E8008E778093A7
:104EE000E80008958091E4009091E50045E6209166
:104EF000EC0020FF21C02091E80020FD21C020917E
:104F00003002222389F0253089F02091EB0025FD25
:104F10000FC02091E4003091E5002817390739F3DC
:104F2000415041F0C901E3CF82E0089583E0089544
:104F300081E0089584E008952091E80022FFDFCF0A
:104F400080E008950E9410280E941828E0EEF0E00A
:104F5000808181608083E8EDF0E080818F778083BD
:104F600019BCA7EDB0E08C918E7F8C9380818F7EF1
:104F7000808310922F0208950F931F93CF93DF9396
:104F80000E9410280E941828C8EDD0E088818F77F1
:104F9000888388818068888388818F7D888319BC15
:104FA0001092300210922C0210922E0210922D02BA
:104FB00000EE10E0F80180818B7F80838881816022
:104FC000888342E060E080E00E941C27E1EEF0E090
:104FD00080818E7F8083E2EEF0E08081816080833B
:104FE000808188608083F80180818E7F80838881C2
:104FF00080618883DF91CF911F910F910895E8ED33
:10500000F0E080818F7E8083E7EDF0E08081816039
:10501000808384E082BF81E080932F020C94BC27C0
:10502000E8EDF0E080818E7F80831092E2000895A9
:105030001092DA001092E10008951F920F920FB6BD
:105040000F9211242F933F934F935F936F937F930E
:105050008F939F93AF93BF93EF93FF938091E10062
:1050600082FF0BC08091E20082FF07C08091E100C7
:105070008B7F8093E1000E94792A8091DA0080FF83
:105080001FC08091D80080FF1BC08091DA008E7F06
:105090008093DA008091D90080FF0DC080E189BD46
:1050A00082E189BD09B400FEFDCF81E0809330022A
:1050B0000E948E2405C019BC109230020E949C24CC
:1050C0008091E10080FF19C08091E20080FF15C04F
:1050D0008091E2008E7F8093E2008091E200806107
:1050E0008093E2008091D80080628093D80019BC40
:1050F00085E0809330020E94A0248091E10084FF2B
:1051000030C08091E20084FF2CC080E189BD82E143
:1051100089BD09B400FEFDCF8091D8008F7D8093BA
:10512000D8008091E1008F7E8093E1008091E200C1
:105130008F7E8093E2008091E20081608093E200A4
:1051400080912C02882311F084E007C08091E30055
:1051500087FF02C083E001C081E0809330020E949B
:10516000A1248091E10083FF29C08091E20083FFA8
:1051700025C08091E100877F8093E10082E08093E9
:10518000300210922C028091E1008E7F8093E1002A
:105190008091E2008E7F8093E2008091E200806146
:1051A0008093E20042E060E080E00E941C27809152
:1051B000F00088608093F0000E949F24FF91EF919F
:1051C000BF91AF919F918F917F916F915F914F911F
:1051D0003F912F910F900FBE0F901F9018951F9227
:1051E0000F920FB60F9211242F933F934F935F931B
:1051F0006F937F938F939F93AF93BF93CF93EF93CF
:10520000FF93C091E900CF708091EC001092E9000B
:105210008091F000877F8093F00078940E942B2982
:105220001092E9008091F00088608093F000C093B4
:10523000E900FF91EF91CF91BF91AF919F918F9135
:105240007F916F915F914F913F912F910F900FBE82
:105250000F901F9018951F93CF93DF93CDB7DEB7B4
:10526000AA970FB6F894DEBF0FBECDBFE1E3F2E020
:105270008091F100819322E0E933F207C9F70E949F
:10528000B7248091E80083FF1CC120913102309146
:105290003202832F90E08A30910508F012C1FC01A0
:1052A000E350FF4F0C94CD2B203881F0223809F0C9
:1052B00008C1809135028F708093E9008091EB00E6
:1052C00085FB882780F91092E90006C080912D02A5
:1052D00090912E02911182609091E800977F9093B7
:1052E000E8008093F1001092F100C5C0822F8D7FFD
:1052F00009F0E7C0222319F0223061F0E2C080916A
:105300003302813009F0DDC0333009F080E0809352
:105310002E0228C080913302811124C020913502D1
:105320002F7009F4CEC02093E9008091EB0080FF3C
:1053300019C08091EB00333011F4806211C080619C
:105340008093EB0081E090E0022E01C0880F0A9468
:10535000EAF78093EA001092EA008091EB008860FF
:105360008093EB001092E9008091E800877F86C06F
:105370002111A7C0109133021F778091E30080783C
:10538000812B8093E3008091E800877F8093E80081
:105390000E9451278091E80080FFFCCF8091E300BC
:1053A00080688093E300112311F083E001C082E064
:1053B0008093300286C02058223008F082C080914D
:1053C0003302909134028C3D23E0920779F583E01B
:1053D0008A838AE289834FB7F894DE01139620E02E
:1053E0003EE051E2E32FF0E050935700E49120FFBC
:1053F00003C0E295EF703F5FEF708E2F90E0EA30D0
:1054000010F0C79601C0C0968D939D932F5F2431F5
:1054100049F74FBF8091E800877F8093E8006AE2F8
:1054200070E0CE0101960E94592614C0AE014F5F74
:105430005F4F609135020E94A125009709F441C099
:105440002091E800277F2093E800BC0189819A81A0
:105450000E94BA268091E8008B778093E80031C0E3
:10546000203879F58091E800877F8093E80080916B
:105470002C028093F1008091E8008E778093E80001
:105480000E9451271EC021111CC0909133029230FE
:10549000C0F48091E800877F8093E80090932C020D
:1054A0000E94512780912C02811104C08091E30059
:1054B00087FF02C084E001C081E0809330020E9437
:1054C000A3248091E80083FF0AC08091E800877FD1
:1054D0008093E8008091EB0080628093EB00AA96B5
:1054E0000FB6F894DEBF0FBECDBFDF91CF911F91F5
:1054F00008950895CF93809130028823B1F0809170
:10550000E9008F709091EC0090FF02C090E801C01C
:1055100090E0C92FC82B1092E9008091E80083FD2C
:105520000E942B29CF70C093E900CF91089504D039
:105530006894B1118DC0089570D088F09F5790F095
:10554000B92F9927B751A0F0D1F0660F771F881FA8
:10555000991F1AF0BA95C9F712C0B13081F077D00F
:10556000B1E0089574C0672F782F8827B85F39F0AD
:10557000B93FCCF3869577956795B395D9F73EF407
:1055800090958095709561957F4F8F4F9F4F0895AF
:10559000E89409C097FB3EF49095809570956195CD
:1055A0007F4F8F4F9F4F9923A9F0F92F96E9BB2783
:1055B0009395F695879577956795B795F111F8CFFF
:1055C000FAF4BB0F11F460FF1BC06F5F7F4F8F4F6A
:1055D0009F4F16C0882311F096E911C0772321F060
:1055E0009EE8872F762F05C0662371F096E8862FF8
:1055F00070E060E02AF09A95660F771F881FDAF74F
:10560000880F9695879597F9089557FD9058440F00
:10561000551F59F05F3F71F04795880F97FB991F11
:1056200061F09F3F79F087950895121613061406CE
:10563000551FF2CF4695F1DF08C01616170618065B
:10564000991FF1CF86957105610508940895E89436
:10565000BB2766277727CB0197F908950BD078C031
:1056600069D028F06ED018F0952309F05AC05FC0B9
:105670001124EECFCADFA0F3959FD1F3950F50E030
:10568000551F629FF001729FBB27F00DB11D639FF4
:10569000AA27F00DB11DAA1F649F6627B00DA11D9A
:1056A000661F829F2227B00DA11D621F739FB00D40
:1056B000A11D621F839FA00D611D221F749F3327B0
:1056C000A00D611D231F849F600D211D822F762F49
:1056D0006A2F11249F5750408AF0E1F088234AF046
:1056E000EE0FFF1FBB1F661F771F881F9150504092
:1056F000A9F79E3F510570F014C0AACF5F3FECF3AD
:10570000983EDCF3869577956795B795F795E7957D
:105710009F5FC1F7FE2B880F911D9695879597F98E
:10572000089597F99F6780E870E060E008959FEF23
:1057300080EC089500240A94161617061806090628
:10574000089500240A9412161306140605060895F7
:10575000092E0394000C11F4882352F0BB0F40F47F
:10576000BF2B11F460FF04C06F5F7F4F8F4F9F4FBF
:10577000089597FB072E16F4009407D077FD09D003
:105780000E94D32B07FC05D03EF4909581959F4F46
:105790000895709561957F4F0895EE0FFF1F059056
:1057A000F491E02D0994AA1BBB1B51E107C0AA1F6D
:1057B000BB1FA617B70710F0A61BB70B881F991FB2
:1057C0005A95A9F780959095BC01CD010895F99956
:1057D000FECF92BD81BDF89A992780B50895A8E1C2
:1057E000B0E042E050E00C940F2C262FF999FECF48
:1057F00092BD81BDF89A019700B4021639F01FBA24
:1058000020BD0FB6F894FA9AF99A0FBE0895019642
:10581000272F0E94F62B0C94F52BDC01CB01FC0109
:10582000F999FECF06C0F2BDE1BDF89A319600B4F9
:0E5830000D9241505040B8F70895F894FFCF04
:10583E00D5012808140A321EAE233D241A24E4236F
:10584E00B123013536F7F6F5F4F1F0919037333296
:10585E003130404D3639D7138A1354131B13AE1201
:06586E00C712E012F9125E
:00000001FF
