:100000000C9448090C948C090C948C090C948C0960
:100010000C948C090C948C090C948C090C948C090C
:100020000C948C090C948C090C94B0260C948227A7
:100030000C94011E0C948C090C948C090C948C0962
:100040000C948C090C948C090C948C090C948C09DC
:100050000C948C090C94681E0C948C090C948C09DB
:100060000C948C090C948C090C948C090C948C09BC
:100070000C948C090C948C090C948C090C948C09AC
:100080000C948C090C948C090C948C090C948C099C
:100090000C948C090C948C090C948C090C948C098C
:1000A0000C948C090C948C090C948C099C09A10962
:1000B000A609AB09B009B509BA09BF09C409C9093C
:1000C000CE09D309D809DD09E309E909EF09F509E2
:1000D000FB09010A070A0D0A130A190A1F0A250A51
:1000E0002B0A310A370A3D0A430A490A4F0A550AC0
:1000F0005B0A610A670A6D0A730A790A7F0A850A30
:100100008B0A910A970A9D0AA30AA90AAF0AB50A9F
:10011000BB0AC10AC70ACD0AD30AD90ADF0AE50A0F
:10012000EB0AF10AF70AFD0A030B090B0F0B150B7B
:100130001B0B210B270B2D0B330B390B3F0B450BE7
:100140004B0B510B570B5D0B630B690B6F0B750B57
:100150007B0B810B870B8D0B930B990B9F0BA50BC7
:10016000AB0BB10BB70BBD0BC30BC90BCF0BD50B37
:10017000DB0BE10BE70B6C0C720C760C790C7D0C35
:10018000810C850C890C8E0C920C960C9A0C9D0C93
:10019000A10CA50CA90CAD0CB20C391439146C14BB
:1001A0006C14AC14CE14F615F615D914F61580158A
:1001B0008015E915F615F615F1158D158D158D15AA
:1001C0008D158D158D158D158D158D158D158D151F
:1001D0008D158D158D158D158D159D15AD15B415B8
:1001E000BB15C51576167616891689167F168916DB
:1001F0008916891676167616851689168916851635
:10020000E7270928F4280928F4284B286E28F42821
:10021000C328D62801110211011302130137023736
:10022000011D021D0108020801150215011202122A
:1002300001160216000131023101E101130213021D
:10024000E1010C020C000131023101E1011602163C
:1002500002E1010C020C010A020A01100210010461
:1002600002040001310231010402040115021501EA
:10027000060206011702170104020401110211000F
:1002800001310231010402040115021501060206C2
:1002900001060206011202120116021600013102C5
:1002A00031010402040115021501060206011602BD
:1002B00016010C020C01110211000131023101176B
:1002C000021701040204011102110001310231017F
:1002D0000602060112021201160216000131023155
:1002E00001160216010C020C011102110001E101BC
:1002F000230223012F022F02E1012D022D011E02F4
:100300001E01E10130023002E10001310231010F32
:10031000020F011102110001310231010F020F0120
:10032000120212010A020A0001E1012D022D012F21
:10033000022F02E1012D022D011E021E01E10130FA
:10034000023002E10001E1012D022D02E101200253
:10035000200001E1012D022D02E1011F021F000119
:10036000E1012D022D02E1000131023101050205FA
:1003700001040204011502150001310231010902D4
:100380000901150215010402040106020601E1003B
:10039000011E021E0127022701E10123022302E1BF
:1003A000000108020801E10123022302E1000131FA
:1003B000023101130213010C020C00013102310160
:1003C000160216010B020B010402040115021501AD
:1003D0001302130001310231010602060107020770
:1003E0000112021201170217000131023101160237
:1003F000160114021401150215011702170001312C
:100400000231011302130115021501120212010734
:10041000020700013102310116021601180218010B
:100420001002100001310231010A020A010802081B
:100430000001310231010F020F01080208000131F1
:10044000023101070207010C020C01190219000117
:1004500031023101170217010C020C0110021001C8
:1004600008020801160216000131023101130213BD
:100470000110021000010F020F01120212010A0204
:100480000A011E021E01270227000137023701E17F
:10049000012302230126022602E1012D022D011E65
:1004A000021E01E10127022702E1000111021101F0
:1004B000130213013702370104020401150215016A
:1004C00015021501040204011C021C00011E021E7B
:1004D000012702270155025501550255000111025D
:1004E00011011302130137023701130213010C0229
:1004F0000C00011102110113021301370237011020
:100500000210010802080104020401110211000195
:100510001102110113021301370237010F020F01FB
:100520000C020C0111021101040204010F020F015F
:100530000A020A01370237011102110112021201E7
:10054000150215011002100001110211011302130E
:1005500001370237010402040105020501160216E3
:1005600000011102110113021301370237010402C5
:100570000401150215010602060117021701040203
:1005800004011102110001110211011302130137BC
:1005900002370104020401150215010602060106D4
:1005A00002060112021201160216000111021101C7
:1005B0001302130137023701040204011502150169
:1005C00006020601160216010C020C0111021100AE
:1005D000011102110113021301370237011702172B
:1005E00001040204011102110001110211011302A0
:1005F0001301370237010602060112021201160228
:1006000016000111021101130213013702370116FE
:100610000216010C020C011102110001110211015C
:1006200013021301370237011302130115021501DA
:100630001202120107020700011102110113021335
:1006400001370237011602160118021801100210B4
:1006500000011102110113021301370237011602C2
:1006600016011402140115021501170217000111D9
:1006700002110113021301370237010702070112A9
:1006800002120117021700015502550155025501CA
:10069000E10126022602E1012D022D011E021E01AA
:1006A000E1012702E10227000155025501550255DB
:1006B00001200220000155025501550255011F027B
:1006C0001F0001550255015502550001110211018B
:1006D0001302130137023701080208011B021B0134
:1006E0001302130001110211011302130137023723
:1006F000010F020F01120212010A020A0001110287
:10070000110113021301370237010F020F01120208
:1007100012010A020A011E021E0127022700010C13
:10072000020C0111021101190219000137023701EF
:10073000E10123022302E1012002200001370237F8
:1007400001E10123022302E1011F021F0001040253
:10075000040117021701040204011102110001042F
:10076000020401060206011202120116021600011D
:1007700004020401160216010C020C011102110000
:100780000137023701E10123022302E100011E02C9
:100790001E012702270137023701E101230223024C
:1007A000E1000137023701550255000137023701D8
:1007B000380238000001E2015A025A015D025D016F
:1007C00059025902E20001E2015A025A015C025C3C
:1007D0000159025902E20001E2015A025A015A0289
:1007E0005A0160026002E20001E2015A025A015A13
:1007F000025A015F025F02E20001130213010C02C0
:100800000C00011102110112021201150215011052
:100810000210000110021001080208010402040184
:10082000110211000104020401190219010A020A4D
:10083000000104020401050205011602160001046C
:100840000204011502150106020601170217010430
:100850000204011102110001040204011502150134
:100860000602060106020601120212011602160015
:100870000104020401150215010602060116021602
:10088000010C020C011102110001170217010402F0
:1008900004011102110001060206011202120116E2
:1008A00002160001160216010C020C0111021100C1
:1008B00001130213011502150112021201070207AA
:1008C000000116021601180218011002100001168C
:1008D0000216011402140115021501170217000176
:1008E0001D021D0108020801150215011202120164
:1008F0001602160001E1012302230126022602E16D
:10090000012D022D011E021E01E10127022702E135
:100910000001E10123022302E1012002200001E1A4
:100920000123022302E1011F021F00010702070148
:10093000120212011702170001080208011B021B14
:100940000113021300011E021E0127022701E1010B
:1009500023022302E100010F020F01110211000125
:100960000F020F01120212010A020A0001E101370F
:10097000023702E1012E022E0001E10136023602A9
:10098000E1012E022E00010A020A01E101260226DF
:1009900002E1011B021B01E10127022702E1000124
:1009A00009020901E10126022602E1011B021B01E5
:1009B000E10127022702E10001E00104020402E054
:1009C000014C024C0001E00104020402E000012796
:1009D00002270127022700113012301B001C001DC6
:1009E000000400050006001D30360237022F0030DB
:1009F00000073008302A001330260227023800256D
:100A0000022D002E020130143003301A3019302428
:100A10000025002600023015300E30103022022151
:100A200000220023002E00E10023020C300D301EB6
:100A3000001F002000280000413102240236002758
:100A4000000030370000001F30223001000100019B
:100A5000000100010007001E30053006302F023073
:100A60000209300A300100163001000100010001C6
:100A700000010001000100173004301B301C304A17
:100A80000052004B000100183001002130200250BC
:100A90000001004F00203001000100010001004D65
:100AA0000051004E001250010001001F0201000120
:100AB00000010001000000113012301B001C001D5D
:100AC000000400050006001D30360237022F0030FA
:100AD00000453007302A0013302602270223302435
:100AE000302D002E020130143003301A301930241A
:100AF000002500260002301530443010302202213B
:100B000000220023002E00E10026302A302B301E68
:100B1000001F002000280000433102240236002775
:100B2000000030370000001F302230010001000FAC
:100B3000300100010007001E30053006302F023062
:100B40000225300A300100273001000100010001B8
:100B500000010001000100283004301B301C304A25
:100B60000052004B00010029302C3021302002506F
:100B70000001004F002030010023020C300D304DE9
:100B80000051004E001450010001001F020100013D
:100B90000001000B300000363037301B001C001DF8
:100BA000000400050006004130360237022F0030F5
:100BB000002D302E302A003830260227023800253A
:100BC000022D002E0201303930033040303E3024F7
:100BD000002500260002303A303330353022022121
:100BE00000220023002E00E1003030313032301E70
:100BF000001F002000280000453102240236002793
:100C0000000030370000001F302230010001006476
:100C1000304330010007001E30053006302F02300F
:100C20000242302F3001003B300100010001000181
:100C3000000100010001003C30043001003F304A57
:100C40000052004B0001003D3001002130200250D5
:100C50000001004F00203001000100010001004DA3
:100C60000051004E001650010001001F020100015A
:100C7000000100343000004B304C301B001C001DC4
:100C8000000400050006005030360237022F003005
:100C90000059305A302A005C302602270253305562
:100CA000002D002E0201305D300330543019302405
:100CB000002500260002305E305B304D30220221DC
:100CC00000220023002E00E10023020C300D301E14
:100CD000001F0020002800004731022402360027B0
:100CE0000000303700000062306330010001000175
:100CF000000100010007001E3049304A302F023049
:100D0000025230513001005F30010001004830478D
:100D100030010001000100603004301B301C304AFB
:100D20000052004B0001006130583021304F3050EC
:100D30000001004F00463001005530563057304D0D
:100D40000051004E001050010001001F020100017F
:100D50000001004E3000000100010001000100010F
:100D6000000100010001000100010001000100017B
:100D7000000100010001000100010001000100016B
:100D8000000100010001000100010001000100015B
:100D9000000100010001000100010001000100014B
:100DA000000100010001000100010001000100013B
:100DB000000100010001000100010001000100012B
:100DC000000100010000000100010001000100011C
:100DD000000100010001000100010001000100010B
:100DE00000010001000100010001000100010001FB
:100DF00000010001000100010001000100010001EB
:100E000000010001000100010001000100010001DA
:100E100000010001000100010001000100010001CA
:100E200000010001000100010001000100010001BA
:100E300000010001000000010001000100010001AB
:100E4000000100010001000100010001000100019A
:100E5000000100010001000100010001000100018A
:100E6000000100010001000100010001000100017A
:100E7000000100010001000100010001000100016A
:100E8000000100010001000100010001000100015A
:100E9000000100010001000100010001000100014A
:100EA000000100010000000100010001000100013B
:100EB000000100010001000100010001000100012A
:100EC000000100010001000100010001000100011A
:100ED000000100010001000100010001000100010A
:100EE00000010001000100010001000100010001FA
:100EF00000010001000100010001000100010001EA
:100F000000010001000100010001000100010001D9
:100F100000010001000000010001000100010001CA
:100F200000010001000100010001000100010001B9
:100F300000010001000100010001000100010001A9
:100F40000001000100010001000100010001000199
:100F50000001000100010001000100010001000189
:100F60000001000100010001000100010001000179
:100F70000001000100010001000100010001000169
:100F8000000100010000000100010001000100015A
:100F90000001000100010001000100010001000149
:100FA0000001000100010001000100010001000139
:100FB0000001000100010001000100010001000129
:100FC0000001000100010001000100010001000119
:100FD0000001000100010001000100010001000109
:100FE00000010001000100010001000100010001F9
:100FF00000010001000000010001000100010001EA
:1010000000010001000100010001000100010001D8
:1010100000010001000100010001000100010001C8
:1010200000010001000100010001000100010001B8
:1010300000010001000100010001000100010001A8
:101040000001000100010001000100010001000198
:101050000001000100010001000100010001000188
:101060000001000100000001000100010001000179
:101070000001000100010001000100010001000168
:101080000001000100010001000100010001000158
:101090000001000100010001000100010001000148
:1010A0000001000100010001000100010001000138
:1010B0000001000100010001000100010001000128
:1010C0000001000100010001000100010001000118
:1010D0000001000100000012034D0061007400686F
:1010E000006B006500650062000000240341007091
:1010F000006F006700650065005F0049006E0064D6
:1011000000750073007400720069006500730000D0
:10111000000403090409026D00040100A0FA090497
:10112000000001030101000921110100012240001A
:101130000705810308000A090401000103010200F8
:10114000092111010001224D000705820308000A50
:10115000090402000103000000092111010001221D
:1011600036000705830308000A0904030001030091
:101170000000092111010001223900070584032024
:1011800000011201100100000008EDFE6060250062
:101190000102000105010906A101050719E029E77F
:1011A0001500250195087501810205081901290519
:1011B00095057501910295017503910105071900C7
:1011C00029F71500250195F875018102C00501096F
:1011D00080A10185021601002603001A81002A83DE
:1011E00000751095018100C0050C0901A10185035E
:1011F000160100269C021A01002A9C027510950116
:101200008100C005010902A1010901A10005091918
:1012100001290515002501950575018102950175C6
:101220000381010501093009311581257F9502757A
:1012300008810609381581257F9501750881060505
:101240000C0A38021581257F950175088106C0C0FA
:1012500005010906A101050719E029E71500250187
:10126000950875018102950175088101050819012C
:1012700029059505750191029501750391010507F1
:10128000190029FF150026FF00950675088100C08A
:1012900011241FBECFEFDAE0DEBFCDBF04B603FEE0
:1012A00024C08091390290913A02A0913B02B09102
:1012B0003C028730904BA740B04BB9F410923902F2
:1012C00010923A0210923B0210923C0214BE84B774
:1012D000877F84BF88E10FB6F894809360001092F6
:1012E00060000FBEE0E0F8E3099511E0A0E0B1E096
:1012F000E4E6F5E502C005900D92A633B107D9F7F3
:1013000012E0A6E3B1E001C01D92A933B107E1F7F5
:101310000E94FC230C94B02A0C940000462F50E04D
:101320004536510508F059C2FA01EA5AFF4FDC016F
:1013300012968C910C94602A811152C280E090E048
:1013400008958823D9F385EC99E008958823B1F3B3
:1013500088EB99E00895882389F38FE999E008954F
:10136000882361F386E899E00895882339F389E7B3
:1013700099E00895882311F38CE699E00895882375
:10138000E9F28FE599E008958823C1F286E599E0B6
:101390000895882399F285E499E00895882371F2ED
:1013A00088E399E00895882349F28BE299E0089553
:1013B000882321F28EE199E00895882309F4BECFB5
:1013C00081E199E00895882309F4B8CF84EF98E08B
:1013D0000895882309F4B2CF8FED98E0089588230B
:1013E00009F4ACCF8EEC98E00895882309F4A6CFD9
:1013F00081EC98E00895882309F4A0CF80EB98E071
:101400000895882309F49ACF83EA98E00895882301
:1014100009F494CF86E998E00895882309F48ECFE3
:1014200089E898E00895882309F488CF80E798E058
:101430000895882309F482CF87E598E008958823EA
:1014400009F47CCF8EE398E00895882309F476CFE1
:1014500081E398E00895882309F470CF84E298E04E
:101460000895882309F46ACF83E198E008958823DA
:1014700009F464CF82E098E00895882309F45ECFF0
:1014800089EF97E00895882309F458CF88EE97E014
:101490000895882309F452CF87ED97E008958823B3
:1014A00009F44CCF86EC97E00895882309F446CFE1
:1014B00085EB97E00895882309F440CF84EB97E00B
:1014C0000895882309F43ACF8BEA97E0089588239A
:1014D00009F434CF82EA97E00895882309F42ECFE7
:1014E0008DE897E00895882309F428CF80E897E0F5
:1014F0000895882309F422CF8FE697E00895882382
:1015000009F41CCF8EE597E00895882309F416CFDF
:101510008DE497E00895882309F410CF8CE397E0D9
:101520000895882309F40ACF8BE297E00895882371
:1015300009F404CF8EE197E00895882309F4FECEE4
:101540008DEF96E00895882309F4F8CE84EE96E0B6
:101550000895882309F4F2CE8BEC96E00895882351
:1015600009F4ECCE82EC96E00895882309F4E6CEE7
:1015700085EB96E00895882309F4E0CE88EA96E0AA
:101580000895882309F4DACE87E896E00895882341
:1015900009F4D4CE8EE696E00895882309F4CECEE1
:1015A00081E596E00895882309F4C8CE88E396E0A3
:1015B0000895882309F4C2CE8BE196E0089588232C
:1015C00009F4BCCE82E096E00895882309F4B6CEF3
:1015D00089EE95E00895882309F4B0CE80ED95E07A
:1015E0000895882309F4AACE8BEA95E0089588230C
:1015F00009F4A4CE86E895E00895882309F49ECEE8
:1016000081E695E00895882309F498CE88E495E072
:101610000895882309F492CE8FE095E008958823F9
:1016200009F48CCE82EF94E00895882309F486CEE5
:101630008DED94E00895882309F480CE8CEC94E03D
:101640000895882309F47ACE8BEA94E008958823DC
:1016500009F474CE8AE894E00895882309F46ECEE4
:1016600085E794E00895882309F468CE88E694E03D
:101670000895882309F462CE8FE494E008958823C6
:1016800009F45CCE8EE394E00895882309F456CEE5
:1016900081E394E00895882309F450CE84E294E035
:1016A0000895882309F44ACE83E194E008958823BD
:1016B00009F444CE8EEF93E00895882309F43ECEDA
:1016C00089EE93E00895882309F438CE84ED93E001
:1016D0000895882309F432CE8BEB93E00895882394
:1016E00009F42CCE8EEA93E00895882309F426CEDF
:1016F00081EA93E00895882309F420CE80E993E0FD
:101700000895882309F41ACE89E793E00895882381
:1017100009F414CE88E693E00895882309F40ECEE8
:101720008FE593E00895882309F408CE82E593E0DD
:101730000895882309F402CE85E493E00895882370
:1017400009F4FCCD88E293E00895882309F4F6CDEE
:1017500087E193E00895882309F4F0CD8AE093E0CF
:101760000895882309F4EACD8DEE92E00895882348
:1017700009F4E4CD8CED92E00895882309F4DECDE0
:101780008BEC92E00895882309F4D8CD8AEB92E09F
:101790000895882309F4D2CD8DE992E00895882335
:1017A00009F4CCCD80E892E00895882309F4C6CDF1
:1017B00083E692E00895882309F4C0CD86E492E0A0
:1017C0000895882309F4BACD85E392E0089588232B
:1017D00009F4B4CD84E192E0089580E090E00895AA
:1017E0008EEC99E008950895089581E00895089594
:1017F00081E008950C94F50B0E9464162FEF84E3AA
:101800009CE0215080409040E1F700C000000C9423
:101810008D1EFF920F931F93CF93DF93EC010881EE
:10182000198180916F01811113C08A81882349F049
:10183000C8010E94E31BF82E682FC8010E94891B73
:1018400004C0C8010E94B71BF82EB8018F2D04C038
:10185000C8010E94E31BB8010E944A0D8C01BE0121
:101860000E94FA0B882309F405C1BE01C8010E9439
:101870005A0F882309F4FEC0BE01C8010E949311CB
:10188000882309F4F7C0053180E7180708F0A1C0E4
:10189000023080E7180708F477C08A81882309F4AA
:1018A0007FC00E94951D811102C00E947B1D0E9475
:1018B000B21D90E090932B0280932A02F801E3502E
:1018C000F047E231F10520F4E554FF4F0C94602A13
:1018D00080912A02816003C080912A0282608093F5
:1018E0002A024BC080912A028460F9CF80912A029B
:1018F00013C080912A028061F2CF80912A02806217
:10190000EECF80912A028064EACF80912A0280681B
:10191000E6CF80912A0284608860E1CF80912A021C
:101920008E7FDDCF80912A028D7FD9CF80912A02D0
:101930008B7FD5CF80912A0213C080912A028F7E9F
:10194000CECF80912A028F7DCACF80912A028F7BD1
:10195000C6CF80912A028F77C2CF80912A028B7FD7
:10196000877FBDCF90912A0297FB882780F921E0DD
:10197000822780FB97F990932A0280912A020E9485
:10198000B61D0E94641676C0011580E7180781F025
:1019900001301047A1F081E0809338018093390134
:1019A000CE01DF91CF911F910F91FF900C94F80B16
:1019B0008A81882309F45EC00E94FC0B5BC08A8187
:1019C000882309F457C08091F80181608093F80161
:1019D00051C00C3380E7180711F58A81882351F034
:1019E000109238010E94331E909337018093360184
:1019F00082E025C08091380181110FC080913601AD
:101A0000909137010E943F1E883C910530F486E298
:101A10000E94D71286E20E949F1382E018C00D3305
:101A2000104709F0B8CF8A81882361F010923901FC
:101A30000E94331E909337018093360180E20E940A
:101A4000EE1318C080913901882321F080E20E94B2
:101A5000F51310C080913601909137010E943F1E0E
:101A6000883C910598F787E20E94D71287E20E948E
:101A70009F13ECCF80E0DF91CF911F910F91FF90EA
:101A800008950C94A60F0C94A80F0C94F70B0C94CB
:101A9000450D0895E72FF0E097E0899FE00DF11DD7
:101AA000112483E0EE0FFF1F8A95E1F7E60FF11D89
:101AB000EE0FFF1FE952F64F859194910895880F1C
:101AC000991F89529F4EFC018591949108950E941F
:101AD0004A0D0E94DD0E811520E49207B0F58115B4
:101AE00040E3940708F0DDC0803E9105D8F4803CC7
:101AF000910508F06BC0883A910578F4853A910514
:101B000008F067C08130910509F456C108F40DC191
:101B10008430910508F050C108C18D3B910508F44F
:101B200063C003C18F3F910509F048F4803F9105E0
:101B300008F0B1C0883E910508F43EC1F6C0811599
:101B400020E2920708F0A9C00895811543E59407A3
:101B500090F4811522E5920708F0C7C0811541E590
:101B6000940708F0BDC0811520E5920708F09CC0DD
:101B70009F70906A0895811545E59407D0F481150A
:101B800024E5920708F0C6C0282F2695269540E246
:101B9000249F90011124AC014370552781E090E00F
:101BA00002C0880F991F4A95E2F7822B932B9A68FF
:101BB0000895811546E5940708F4B1C09C0130569C
:101BC0002115304108F0B1C09F70ADC0805C910913
:101BD00065C0853A910509F4ABC0863A910509F4D0
:101BE000AAC083E890E40895883A910509F4A6C054
:101BF000893A910509F4A5C08A3A910509F4A4C06F
:101C00008B3A910509F4A3C08C3A910509F4A2C05E
:101C10008B3B910509F4A1C08C3B910509F4A0C050
:101C20008D3A910509F49FC0803B910509F49EC04F
:101C30008E3A910509F49DC08F3A910509F49CC034
:101C4000813B910509F49BC0823B910509F49AC040
:101C5000833B910509F499C0843B910509F498C030
:101C6000853B910509F497C0863B910509F496C020
:101C7000873B910509F495C0883B910509F494C010
:101C8000893B910509F493C08A3B910509F092C004
:101C90008AE296E40895906508959F700E945F0D12
:101CA00008959927906C0895482F437021E030E003
:101CB00002C0220F331F4A95E2F73C68AC0164E092
:101CC000569547956A95E1F74370342B8F7086954A
:101CD000869540E2849FC0011124822B932B0895A6
:101CE000982F8827816F906A0895282F269526952A
:101CF00040E2249F90011124AC014370552781E0FC
:101D000090E002C0880F991F4A95E2F7822B932B2F
:101D10009C680895982F8827846F906A08958F7122
:101D20009927982F88279062089580E090E0089581
:101D300081E890E4089582E890E4089582EE94E4C6
:101D4000089589EE94E408958AEE94E4089585EB6D
:101D500094E4089586EB94E4089583EB94E4089565
:101D600084EB94E4089587EB94E408958CEC94E478
:101D700008958DEC94E4089583E895E408958AE845
:101D800095E4089582E995E4089584E995E4089539
:101D900081E296E4089583E296E4089584E296E46D
:101DA000089585E296E4089586E296E4089587E230
:101DB00096E4089580E094E408958238910549F10D
:101DC000B0F48133910509F459C048F48932910582
:101DD00009F44FC08A32910509F455C0089585333E
:101DE000910509F441C08933910599F00895833E26
:101DF000910531F138F4803E910591F0823E9105D4
:101E0000A9F00895863E910501F1873E910539F1CB
:101E1000089520912A0220FD3BC021FD39C008957C
:101E200080912A0280FF34C089E341C080912A0258
:101E300082FF32C080912A0284FF2CC080E037C02C
:101E400080912A0282FD28C0F5CF80912A0283FF6B
:101E500025C080912A0284FDF1CF87EE28C08091B1
:101E60002A0283FD1BC0F5CF80912A0285FF18C08E
:101E700019C080912A0285FF15C012C080912A02E4
:101E800086FF12C013C080912A0286FF0FC00CC0CB
:101E900080EE0DC083EE0BC082EE09C086EE07C057
:101EA00085E305C089E203C081E301C08AE290E0D6
:101EB00008950895CF93DF93EC01FB018281811196
:101EC00002C081E040C080914701811125C0C53129
:101ED000D047B9F70E94590F81E0809347010E94D3
:101EE000331E909346018093450110923A0110925F
:101EF0003C0110923B0110923E0110923D01109264
:101F0000400110923F011092420110924101109243
:101F100044011092430116C0809145019091460101
:101F20000E943F1E883C910560F680913A01E82F9F
:101F3000F0E0EE0FFF1FE55CFE4FD183C0838F5FA3
:101F400080933A0180E0DF91CF9108950C94F30BD8
:101F50000C94F40BCF93DF9385B7806885BF85B76A
:101F6000806885BFABE1B1E021E030E08D91E82FE2
:101F7000E295EF70F0E041A18F70B90102C0660FE9
:101F8000771F8A95E2F7CB01962F9095492341A3BD
:101F900092A1982B92A371E0A232B70739F7A3E17F
:101FA000B1E021E030E08D91E82FE295EF70F0E0B4
:101FB00041A18F70B90102C0660F771F8A95E2F7C1
:101FC000CB01962F9095492341A392A1982B92A3E0
:101FD00071E0AB31B70739F7E6E5F1E0CFE4D1E0E6
:101FE000A8E4B1E0119219921D9281E0ED35F80755
:101FF000C9F7DF91CF910C94410D6F927F929F9220
:10200000AF92BF92CF92DF92EF92FF920F931F9306
:10201000CF93DF930BE111E0C8E4D1E0EE24E39429
:10202000F12CBB24B394AE0198801882D8012D9175
:102030008D01E22FE295EF70F0E081A12F70B701E2
:1020400002C0660F771F2A95E2F79B01862B81A3BA
:1020500082A1A62EA0948A2182A370EA7A95F1F734
:1020600063E1662E61E0762E80E090E0D3017D9101
:102070003D01C72EC2943FE0C322D12CD6019096D9
:10208000DC90C8807F70D70102C0AA0FBB1F7A9571
:10209000E2F7DA2239F46E2D082E01C0660F0A9499
:1020A000EAF701C060E06C296883019688309105E9
:1020B000E9F681A18A2181A382A1822B82A32196A4
:1020C000FA018081981641F0B0925D010E94331EA2
:1020D00090935F0180935E01F1E002321F0709F0E7
:1020E000A2CF80915D018823A1F080915E01909143
:1020F0005F010E943F1E069760F0E8E4F1E0A6E56C
:10210000B1E081918D9361E0EF34F607D1F7109241
:102110005D010E94430D81E0DF91CF911F910F91EE
:10212000FF90EF90DF90CF90BF90AF909F907F9007
:102130006F900895E82FF0E0EA5AFE4F80810895ED
:102140000895282F882339F090E02A3010F44D9616
:1021500008950697089587E290E00895E0910001C0
:10216000F091010180818093250281FF03C081EEFF
:102170000E949F138091250285FF03C085EE0E9477
:102180009F138091250280FF03C080EE0E949F1361
:102190008091250284FF03C084EE0E949F138091EA
:1021A000250282FF03C082EE0E949F1380912502C8
:1021B00086FF03C086EE0E949F138091250283FF55
:1021C00003C083EE0E949F138091250287FF03C006
:1021D00087EE0E949F13809160018130A1F078F01A
:1021E000823011F1843049F586EE0E94D71286EED6
:1021F0000E949F1388E10E94D71288E11CC082EEE2
:102200000E94D7121AC080EE0E94D71281EE0E945F
:10221000D71288E10E94D71288E10E949F1381EEB5
:102220000E949F1380EE07C082EE0E94D71287E5BE
:102230000E94D71287E50E949F138FE39CE90197C4
:10224000F1F700C00000089580916001813029F00D
:1022500010F0823041F482EE04C08CE20E94D7126A
:102260008CE20E949F138091250281FF03C081EEC2
:102270000E94D7128091250285FF03C085EE0E943F
:10228000D7128091250280FF03C080EE0E94D712F2
:102290008091250284FF03C084EE0E94D7128091B2
:1022A000250282FF03C082EE0E94D7128091250290
:1022B00086FF03C086EE0E94D7128091250283FF1D
:1022C00003C083EE0E94D7128091250287FF03C0CE
:1022D00087EE0C94D7120895FF920F931F93CF931C
:1022E000DF938C01CCE0D0E0C8010C2E02C09695A3
:1022F00087950A94E2F7282F2F70F22E822F0E94E2
:10230000A1100E94D7128F2D0E94A1100E949F132E
:102310002497CC3F8FEFD80739F7DF91CF911F91EA
:102320000F91FF900895CF93DF93EC01C13080E8C7
:10233000D80760F0FB018281882341F00E94AE1033
:10234000CE019F770E946C110E94241181E0DF91E1
:10235000CF91089590936601809365010895E0916F
:102360006501F0916601309721F00190F081E02D38
:10237000099480E00895E0916501F091660130973D
:1023800021F00280F381E02D09940895E091650128
:10239000F0916601309721F00480F581E02D0994D9
:1023A000089520916301309164018217930771F0C1
:1023B0009093640180936301E0916501F09166015F
:1023C000309721F00680F781E02D0994089520913F
:1023D0006101309162018217930771F0909362015D
:1023E00080936101E0916501F0916601309721F0E1
:1023F0000084F185E02D0994089508950C94FD1151
:102400000E942A1E0E94AA0F0C94F41ECF92DF9203
:10241000EF92FF920F931F93CF93DF93CDB7DEB769
:102420002B970FB6F894DEBF0FBECDBF0E94FD0FF5
:1024300038E6E32E31E0F32E00E010E0C02E802FCE
:102440000E949A10F701D1907F01D826B1F40F5F56
:102450001F4F0730110591F78FEF89838A831B8205
:102460000E94331E8160782F9D838C8349815A811D
:102470006B818D810E94A91241C09091F80191FF5A
:1024800004C08B870E94A0108B8520E030E04D2D8A
:1024900050E0922FBA01022E02C0759567950A94FA
:1024A000E2F760FF25C02E83CF82EE24E394F12C67
:1024B00002C0EE0CFF1C9A95E2F790E08E219F215E
:1024C00021E0892B09F420E028870E94331E8160D7
:1024D000782F9A8789874E815F8168858A850E94D7
:1024E000A912F801E859FE4F80818E25808306C02D
:1024F0002F5F3F4F2830310561F6A9CF0E9494210C
:10250000109167010E94AF111817A1F00E94AF113E
:10251000809367012B960FB6F894DEBF0FBECDBF38
:10252000DF91CF911F910F91FF90EF90DF90CF90AF
:102530000C94470D2B960FB6F894DEBF0FBECDBF9F
:10254000DF91CF911F910F91FF90EF90DF90CF908F
:102550000895CF93DF93CDB7DEB72B970FB6F894DE
:10256000DEBF0FBECDBF4F83588769877A878B87C1
:10257000DE01119686E0FD0111928A95E9F785E06A
:10258000FE01379601900D928A95E1F749815A81B3
:102590006B817C818D819E810E942E192B960FB6B6
:1025A000F894DEBF0FBECDBFDF91CF910895882391
:1025B00009F4C4C0823859F40E94AF1181FDBEC035
:1025C00089E30E94821C0E944C1D89E30CC0833861
:1025D00071F40E94AF1180FDB1C083E50E94821C9E
:1025E0000E944C1D83E50E94C21C0C944C1D843833
:1025F00059F40E94AF1182FDA1C087E40E94821CA1
:102600000E944C1D87E4EFCF9CEF980F913A18F48D
:102610000E94821CEACF90E2980F983050F48770A5
:1026200091E001C0990F8A95EAF7892F0E94031D56
:10263000DCCF9BE5980F933070F4853A29F0863A09
:1026400031F482E890E005C081E890E002C083E8C0
:1026500090E00C94D11198E5980F953108F06EC078
:10266000883A61F1893A69F18A3A71F18B3A79F1E4
:102670008C3A81F18B3B89F18C3B91F18D3A99F148
:10268000803BA1F18E3AA9F18F3AB1F1813BB9F1CA
:10269000823BC1F1833BC9F1843BD1F1853BD9F148
:1026A000863BE1F1873BE9F1883BF1F1893BF9F1A8
:1026B0008A3B09F03FC08AE292E03EC082EE90E0A1
:1026C0003BC089EE90E038C08AEE90E035C085EBE3
:1026D00090E032C086EB90E02FC083EB90E02CC0FE
:1026E00084EB90E029C087EB90E026C08CEC90E072
:1026F00023C08DEC90E020C083E891E01DC08AE803
:1027000091E01AC082E991E017C084E991E014C019
:1027100081E292E011C083E292E00EC084E292E096
:102720000BC085E292E008C086E292E005C087E235
:1027300092E002C080E090E00C94E71108958823B5
:1027400009F44BC0823859F40E94AF1181FF45C093
:1027500089E30E94821C0E944C1D89E30CC08338CF
:1027600071F40E94AF1180FF38C083E50E94821C83
:102770000E944C1D83E50E94C21C0C944C1D8438A1
:1027800059F40E94AF1182FF28C087E40E94821C86
:102790000E944C1D87E4EFCF9CEF980F913A58F3BD
:1027A00090E2980F983050F4877091E001C0990F33
:1027B0008A95EAF7892F0E94091DDFCF9BE5980FC4
:1027C000933020F480E090E00C94D111885A853148
:1027D00020F480E090E00C94E7110895882321F024
:1027E0000E94031D0C944C1D0895882321F00E9423
:1027F000091D0C944C1D08958F929F92AF92BF9229
:10280000CF92DF92EF92FF920F931F93CF93DF93BC
:102810001F92CDB7DEB74C01A62E472FFC01E580F5
:10282000E2948FE0E822F280FF2021F079830E9479
:10283000201D498149830E947B1C4981882381F0A6
:10284000FF2071F080E28A0D883050F082E00E9413
:10285000641C0E947B1CBB24B394B826498101C030
:10286000B12CE42FE295EF70F0E0E353FF4F0C94AE
:10287000602A842F807F142F1F70882311F01295F7
:10288000107FFF2099F0112309F499C180E28A0D8D
:10289000883010F0A11004C0812F0E94031D03C0D6
:1028A000812F0E94131D0E944C1D89C18A2D0E94F8
:1028B0009F13112309F49AC180E28A0D883010F029
:1028C000A11004C0812F0E94091D03C0812F0E9406
:1028D000191D0E944C1D8AC1242F207F842F8F70C8
:1028E000203211F08295807FAA2021F0F1E0AF160E
:1028F000B1F021C0FF2041F0EE2039F191E0E91262
:1029000024C00E94331D72C1EE2021F0E1E0EE16DA
:1029100009F46CC189830E94361D89810BC1FF2097
:1029200029F0F5E0FE1508F461C10FC094E09E1592
:1029300008F45CC1FFC0FF2059F0EE2031F0F40133
:10294000958190FF3CC19F7095830E94EE134EC10C
:10295000EE2009F4EFC039C1242F26952695237067
:1029600030E02115310521F02130310561F03EC103
:10297000FF2021F08A2D942F937002C080E090E018
:102980000E94D11133C1FF2021F08A2D942F937022
:1029900002C080E090E00E94E71128C18A2DFF204C
:1029A00019F00E949C2002C00E9404210E948921EB
:1029B0001DC1842F837009F04EC0F11017C12A2D5C
:1029C000229526952770220F220F8A2D8F70C82EF0
:1029D000D12CE12CF12C022E04C0CC0CDD1CEE1C01
:1029E000FF1C0A94D2F7A4FE10C06FE070E080E0F4
:1029F00090E004C0660F771F881F991F2A95D2F7B1
:102A0000609570958095909503C060E070E0CB0173
:102A1000242F26952695237030E02230310569F069
:102A20002330310589F06C297D298E299F29213099
:102A3000310571F00E94801AD9C06C297D298E2938
:102A40009F290E949A1AD2C00E94801AC701B6011B
:102A50000E94661ACBC0FF2019F0842F817001C03C
:102A60008695882309F4C2C02A2D229526952770C1
:102A7000220F220F8A2D8F70C82ED12CE12CF12C21
:102A8000022E04C0CC0CDD1CEE1CFF1C0A94D2F7F5
:102A9000A4FE10C06FE070E080E090E004C0660F1C
:102AA000771F881F991F2A95D2F76095709580959A
:102AB000909503C060E070E0CB01242F2695269509
:102AC000237030E02230310569F02330310589F080
:102AD0006C297D298E299F292130310571F00E94B2
:102AE000541B84C06C297D298E299F290E946E1B4E
:102AF0007DC00E94541BC701B6010E943A1B76C0DC
:102B00000A2D10E0F801E05EF109E531F10508F069
:102B100052C0E352FF4F0C94602A1A2D1F70842F6D
:102B20008F71FF2021F00E94D31A812F0ECF0E94B7
:102B3000F41A812F0E94F51359C0FF2049F0F4E0E8
:102B4000FE1508F453C0842F8F710E94191B4EC0CC
:102B500085E08E1508F44AC0F6CFFF2039F0842FA7
:102B60008F710E94D31A42C0FF20C9F3842F8F7146
:102B70000E94F41A3BC0FF2029F0842F8F710E941D
:102B8000BE1A34C00E94B41A31C0FF2051F0142F75
:102B90001F71812F0E94D31A63E0812F0E945B1C5A
:102BA00025C081E00E94641C91E09E15F8F482E04B
:102BB0000E94641C1BC0FF2031F0EE2081F28A2DA0
:102BC0000E94D71213C0EE2089F28A2D0E949F1313
:102BD0000DC04F706A2DC4010E948E090E94DB193E
:102BE00005C04F706A2DC4010E94490DBB20F1F051
:102BF0000E94571C80FD1AC0F40112820E94511CD1
:102C00000E94D31AC4010E9424160E94511C0F90E6
:102C1000DF91CF911F910F91FF90EF90DF90CF90B8
:102C2000BF90AF909F908F900C94F41A0F90DF910B
:102C3000CF911F910F91FF90EF90DF90CF90BF90B9
:102C4000AF909F908F9008950F931F93CF93DF9332
:102C5000EC01288139818B819C81892B31F03F3FA8
:102C600011F080E003C02F3FE1F781E0811113C034
:102C7000CE010E94090C882371F0688179818A81D4
:102C80000E942E1C8C010E94881B0E945B1AB801B6
:102C9000CE010E94FC13DF91CF911F910F910895F7
:102CA0000E94201D0E94301D0E94F51C0E944C1D98
:102CB0000E9435220E94892180E090E00E94D1117B
:102CC00080E090E00C94E7110E94101D0C945016C7
:102CD0000E94231CE92FE295EF70F0E03297EE306E
:102CE000F105B8F4EE50FF4F0C94602A803F59F084
:102CF00018F4803E70F407C0843F59F404C0803E4D
:102D000010F0813F31F481E0089593FB882780F92A
:102D1000089580E00895CF93DF9300D000D01F92F4
:102D2000CDB7DEB70F900F900F900F900F90DF91FF
:102D3000CF910895CF93DF9300D000D000D0CDB7CE
:102D4000DEB726960FB6F894DEBF0FBECDBFDF917B
:102D5000CF9108951F93CF93DF93C091700116E038
:102D600080917101C81799F0D0E01C9FF0011D9F60
:102D7000F00D1124EE58FE4F408151816281738124
:102D8000848195810E949A162196C770E9CFDF91C0
:102D9000CF911F9108954091A2015091A30160919C
:102DA000A4017091A5018091A6019091A7010C94B6
:102DB0009A16CF938091A70182958F7009F05FC01A
:102DC0008091A401882309F45AC020917001A09138
:102DD00071016091A2017091A3018091A501909170
:102DE000A60131E06F3F09F030E0B32FC6E02A17AB
:102DF00009F445C0009721F07F3F21F44B2F03C019
:102E000041E001C040E030E040FD35C0C29FF0012C
:102E1000C39FF00D1124EE58FE4F418174132BC057
:102E20004081641328C04281411125C043815481EF
:102E30004817590710F441505109481B590B483C99
:102E40005105C8F48091A7018F7080618093A7011C
:102E500086E0829FF001839FF00D1124E958FE4F18
:102E600080818F708061808382EA91E00E942416C5
:102E7000CF910C94AA162F5F3F4F2770B8CFCF91F8
:102E80000895CF92DF92EF92FF920F931F93CF930B
:102E9000DF93CDB7DEB762970FB6F894DEBF0FBEF3
:102EA000CDBF8C0185E0F801DE011D9601900D92E9
:102EB0008A95E1F7D8014C9111965C911197129681
:102EC0006C9112971396ED90FC9014977091A2015B
:102ED000E091A3012091A5013091A60121153105B2
:102EE00031F0EF3F31F481E07F3F19F403C081E01E
:102EF00001C080E0B82FB170CB2E80FD6CC1D090A6
:102F0000A401DD2009F4F5C0F091A701E216F30653
:102F100038F0C701821B930B883C910548F09BC099
:102F2000209530952E0D3F1D283C310508F093C0AB
:102F30008F2F807F09F052C0E51314C0741312C0A4
:102F4000D62E61110FC0FF70F061F093A7010E94AF
:102F5000CB1682EA91E00E9424168091A701F80125
:102F600085836CC1EF2831F05F3F31F481E04F3F42
:102F700019F403C081E001C080E080FD03C081E05E
:102F8000862701C080E0F82FF170FF2E80FF1CC063
:102F9000809170012091710136E0821709F428C1F7
:102FA00090E0389FF001399FF00D1124EE58FE4F4C
:102FB0007181571306C07081471303C07281671374
:102FC00003C001968770E9CFD62E662309F436C177
:102FD0008091A70181608093A70153C0E51308C0C9
:102FE000741306C0611104C0D8011596FC93AEC0DD
:102FF0004D875E878D859E856A8B0E9468166A89DB
:10300000882329F1D62E662311F12091A701822F62
:1030100082958F7090E002970CF460C08091A201BD
:103020009091A30198878F831986FB86EA862C8767
:10303000CE01079651C0E51731F14D875E878D852A
:103040009E856A8B0E9468166A8981112EC0C8010C
:103050000E942416A4C08F2F807F69F77E2DF98AE5
:10306000E88A89890E948B1682EA91E00E942416E0
:10307000E2EAF1E086E0DF011D928A95E9F70E941D
:10308000CB16D12CDBC07413D8CF6111D6CFD801A9
:103090001596FC93C8010E942416E2EAF1E086E04E
:1030A000DF011D928A95E9F7C9C0D62E662379F211
:1030B0002091A701822F82958F7090E0029774F083
:1030C0008091A2019091A3019A8389831B82FD8242
:1030D000EC822E83CE0101960E94241686E0F80130
:1030E000A2EAB1E001900D928A95E1F70E94D9160B
:1030F0006FC0E216F30628F0C701821B930B9C01F8
:1031000004C0209530952E0D3F1D283C310508F058
:1031100052C0D62E662309F49ACFE5132CC074133F
:103120002AC08091A70180FD1DC0982F92959F70A5
:10313000C9F0D80115968C9315979F3039F09F5F91
:103140009295907F8F70892B15968C93C8010E9461
:10315000241686E0F801A2EAB1E001900D928A956A
:10316000E1F736C086E0F801A2EAB1E001900D92E5
:103170008A95E1F763C04D875E878D859E850E94A5
:103180006816882379F086E0F801A2EAB1E00190A0
:103190000D928A95E1F70E94D9160E94CB16DD2484
:1031A000D3944CC08091A70181608093A701C8018E
:1031B0000E94241643C07E2DF98AE88A89890E94DC
:1031C0008B16E2EAF1E086E0DF011D928A95E9F7CD
:1031D0000E94CB1633C0662309F439CF4D875E8732
:1031E0008D859E850E946816882309F430CFCBCF49
:1031F0004D875E878D859E850E94231C292F2295F1
:103200002F7030E0223031052CF49F7041F0811195
:1032100006C00CC0243031052CF49F7049F4805E48
:10322000883020F0C8010E942416CF2CDC2C06C068
:10323000D80115969C91907F91F7F8CF8D2D6296CD
:103240000FB6F894DEBF0FBECDBFDF91CF911F91B7
:103250000F91FF90EF90DF90CF9008951F93CF9341
:10326000DF93CDB7DEB72C970FB6F894DEBF0FBE55
:10327000CDBF4F83588769877A878B879C87CE011C
:1032800007960E9441178823C1F02F8138858A85CF
:103290009B85892B31F03F3F11F080E003C02F3F29
:1032A000E1F781E0811147C04F81588569857A85B2
:1032B0008B859C850E949A163EC086E0FE0137965B
:1032C000DE01119601900D928A95E1F7FF81E88564
:1032D0004A855B854115510531F0EF3F31F481E0BE
:1032E000FF3F19F403C081E001C080E080FD23C0EE
:1032F0002091710130E0C901019687709927609192
:10330000700170E086179707F1F1F983EA835D8316
:103310004C8396E0929FD001939FB00D1124AE583C
:10332000BE4FFE01319601900D929A95E1F7809380
:1033300071010E94AA1616E08091700190917101AE
:10334000891779F1189FC00111248E589E4F0E9451
:103350004117882331F1E09170011E9FF001112483
:10336000EE58FE4F40815181628173818481958145
:103370000E949A168091700190E0019687709927BB
:1033800080937001D9CF0E9464161092710110923F
:103390007001E2EAF1E086E0DF011D928A95E9F72B
:1033A000CACF2C960FB6F894DEBF0FBECDBFDF910B
:1033B000CF911F910895EF92FF920F931F93CF9398
:1033C000DF93FC01009709F46FC0F12CEE24E39425
:1033D000EF0121968491843740F4843008F055C081
:1033E000813081F0823021F15FC0853709F447C018
:1033F000C0F19CE7980F903708F056C08F770E9475
:103400009F1345C08F010E5F1F4FFE01849190E214
:10341000980F983050F48770FE2D01C0FF0F8A95E9
:10342000EAF78F2F0E94231D15C00E94D71214C0E7
:103430008F010E5F1F4FFE01849190E2980F98302C
:1034400068F48770FE2D01C0FF0F8A95EAF78F2F71
:103450000E94291D0E944C1DE80119C00E949F1363
:10346000FBCFCF010296FE01C491CC2361F0EFE9BE
:10347000FFE03197F1F700C00000C150F6CFCF0157
:103480000296FE01F490EC0102C00E94D7128F2D2B
:10349000882341F0EFE9FFE03197F1F700C0000029
:1034A0008150F6CFFE0194CFDF91CF911F910F9104
:1034B000FF90EF90089508956093CF017093D0012D
:1034C0008093D1019093D2010C9450160F931F93C7
:1034D0000091CF011091D0012091D1013091D20102
:1034E000062B172B282B392B0093CF011093D001DB
:1034F0002093D1013093D2011F910F910C9450165B
:103500000F931F930091CF011091D0012091D10111
:103510003091D20106231723282339230093CF01AA
:103520001093D0012093D1013093D2011F910F91BC
:103530000C9450160F931F930091CF011091D0015E
:103540002091D1013091D20106271727282739274A
:103550000093CF011093D0012093D1013093D20179
:103560001F910F910C9450161092CB011092CC0128
:103570001092CD011092CE010C94501641E050E013
:1035800060E070E004C0440F551F661F771F8A95E6
:10359000D2F74093CB015093CC016093CD0170934F
:1035A000CE010C94501641E050E060E070E004C0A1
:1035B000440F551F661F771F8A95D2F78091CB0164
:1035C0009091CC01A091CD01B091CE01842B952B8F
:1035D000A62BB72B8093CB019093CC01A093CD0168
:1035E000B093CE010C94501641E050E060E070E0E2
:1035F00004C0440F551F661F771F8A95D2F7409568
:103600005095609570958091CB019091CC01A091DF
:10361000CD01B091CE0184239523A623B7238093B7
:10362000CB019093CC01A093CD01B093CE010C942B
:10363000501641E050E060E070E004C0440F551FB8
:10364000661F771F8A95D2F78091CB019091CC01AC
:10365000A091CD01B091CE0184279527A627B72749
:103660008093CB019093CC01A093CD01B093CE0178
:103670000C9450160F931F930091CB011091CC0125
:103680002091CD013091CE01062B172B282B392B01
:103690000093CB011093CC012093CD013093CE0148
:1036A0001F910F910C9450160F931F930091CB0113
:1036B0001091CC012091CD013091CE01062317232A
:1036C000282339230093CB011093CC012093CD0103
:1036D0003093CE011F910F910C9450160F931F93AE
:1036E0000091CB011091CC012091CD013091CE0100
:1036F00006271727282739270093CB011093CC01E1
:103700002093CD013093CE011F910F910C94501650
:10371000089528E0929F800D1124482F46954695E4
:1037200046958770B1E001C0BB0F8A95EAF785E046
:10373000489FA001112448555E4F80E090E070E062
:10374000FA01E80FF91FA0819B01082E02C03695EF
:1037500027950A94E2F72170332721952A272B23F6
:103760002A27208301968530910551F7089528E096
:10377000929F800D1124682F669566956695982F07
:10378000977085E0689FB001112468557E4F40E036
:1037900050E080E0FB01E40FF51F208130E0092EAE
:1037A00002C0369527950A94E2F721703327042E3C
:1037B00001C0220F0A94EAF7822B4F5F5F4F45301A
:1037C000510541F70895CF92DF92EF92FF920F9348
:1037D0001F93CF93DF93EC01C090CF01D090D00125
:1037E000E090D101F090D2018091CB019091CC0179
:1037F000A091CD01B091CE01C82AD92AEA2AFB2A8C
:103800000FE110E0B701A601002E04C07695679580
:10381000579547950A94D2F740FD05C0015011090C
:1038200088F780E007C0BE01802F0E94670D0197D6
:10383000A9F3802FDF91CF911F910F91FF90EF900F
:10384000DF90CF900895CF93DF93EC010E94E31BAC
:10385000BE010E94670DDF91CF9108951F93CF9312
:10386000DF93EB0190916F01992321F0CB010E942E
:10387000231C13C0882349F0CB010E94E31B182F9F
:10388000682FCE010E94891B04C0CB010E94B71B88
:10389000182FBE01812F0E94670DDF91CF911F91DC
:1038A00008958091D301859585958595089580919A
:1038B000D3018770089598E0899F90011124622BAD
:1038C0006093D3010C94D31A4091D3018095842343
:1038D0008093D301982F977069F450E0282F3327F5
:1038E00027FD30954217530729F0859585958595D5
:1038F0000C94F41A08959091D301977081E009F423
:1039000080E00895909112019923D9F090912A02B4
:1039100097FF17C0982F9695969596959F3188F5A5
:10392000E0910001F0910101E90FF11D877021E0A4
:1039300030E001C0220F8A95EAF78181822B8183D2
:103940000895409100015091010120E030E09FEF87
:10395000FA01E20FF31F6281681799F09F3F19F493
:10396000611101C0922F2F5F3F4F2E31310581F73A
:103970009F3F39F0FA01E90FF11D97FDFA95828317
:1039800008950895909112019923E1F090912A02EF
:1039900097FF18C0982F9695969596959F3120F58C
:1039A000E0910001F0910101E90FF11D877021E024
:1039B00030E001C0220F8A95EAF720958181282303
:1039C00021830895409100015091010120E030E0F1
:1039D000FA01E20FF31F9281981301C012822F5F48
:1039E0003F4F2E313105A1F7089581E090E0E0913D
:1039F0000001F0910101E80FF91F10820196803259
:103A00009105A9F708959091F701982B9093F701EC
:103A1000089580959091F70198239093F701089568
:103A20001092F70108959091F601982B9093F6016A
:103A3000089580959091F60198239093F60108954A
:103A40001092F60108959091F501982B9093F5014D
:103A5000089580959091F50198239093F50108952C
:103A60001092F50108958093D40108951092D40125
:103A70000895409100015091010120E030E080E084
:103A8000FA01E20FF31F918191118F5F2F5F3F4F7A
:103A90002F313105A9F70895E0910001F09101015E
:103AA0008091F7018083E0910001F0910101808114
:103AB0009091F601892B8083E0910001F091010142
:103AC00080819091F501892B80839091D401992375
:103AD00061F0E0910001F09101018081892B8083E8
:103AE0000E94391D81111092D401809100019091A2
:103AF00001010C94BB116DEE7EEF80E090E00E941E
:103B00009A2A60E082E090E00E94882A60E083E0E8
:103B100090E00E94882A60E084E090E00E94882A79
:103B200060E085E090E00C94882A80E090E00E94BC
:103B3000822A21E08D3E9E4F09F020E0822F0895D9
:103B400082E090E00C947A2A682F82E090E00C9456
:103B5000882A83E090E00C947A2A682F83E090E032
:103B60000C94882A84E090E00C947A2A682F84E0F0
:103B700090E00C94882A80913002843021F11092D8
:103B8000F90120E488E190E00FB6F894A8958093BD
:103B900060000FBE2093600080E00E94470D83B755
:103BA000817F846083BF83B7816083BF7894889569
:103BB00083B78E7F83BF88E10FB6F894809360004F
:103BC000109260000FBE089508950895CF930E944B
:103BD000E41D0E94FD0F0E94E51DC0E08C2F0E9495
:103BE0009A10811105C0CF5FC730C1F780E001C0D6
:103BF00081E0CF9108950E9464160E94AF110C9449
:103C0000470D1F920F920FB60F9211248F939F931F
:103C1000AF93BF938091F901811113C08091260267
:103C200090912702A0912802B09129024196A11DEE
:103C3000B11D8093260290932702A0932802B0938F
:103C40002902BF91AF919F918F910F900FBE0F905E
:103C50001F90189582E084BD93E095BD9AEF97BDC3
:103C600080936E0008952FB7F8948091260290916A
:103C70002702A0912802B09129022FBF0895CF9268
:103C8000DF92EF92FF920F931F932FB7F89440911A
:103C900026025091270260912802709129022FBFBD
:103CA0006A017B01EE24FF248C0120E030E0C01685
:103CB000D106E206F30610F441505109481B590B96
:103CC000CA011F910F91FF90EF90DF90CF90089560
:103CD0001F920F920FB60F9211248F939F93AF9361
:103CE000BF938091260290912702A0912802B09163
:103CF00029020196A11DB11D8093260290932702EF
:103D0000A0932802B0932902BF91AF919F918F9108
:103D10000F900FBE0F901F9018950E943526F894B3
:103D20002FEF87EA91E6215080409040E1F700C0F4
:103D3000000087E090EBDC018093390290933A0217
:103D4000A0933B02B0933C022CE088E190E00FB6D8
:103D5000F894A895809360000FBE20936000FFCF79
:103D6000DF92EF92FF920F931F93CF93DF93D12CAB
:103D7000082F10E08D2D0E949A10C0E0D0E0E82EB0
:103D8000F12C97010C2E02C0359527950A94E2F785
:103D900020FD05C02196C830D10599F70AC06C2FC7
:103DA0007D2D80E00E944A0D0817190799F781E0E0
:103DB00005C0D39487E0D812DDCF80E0DF91CF91AA
:103DC0001F910F91FF90EF90DF900895CF93C82F30
:103DD0008CE20E94B01E882321F08C2FCF910C948E
:103DE000B01E80E0CF910895CF930E94951D811160
:103DF00002C00E947B1DC5E6C15049F00E94FD0F24
:103E00008FE39CE90197F1F700C00000F5CF89E24C
:103E10000E94E61E81110DC18AE20E94E61E8111F8
:103E20000E947B1D85E00E94E61E81110E948D1E6E
:103E30000E94A01D8093F80187E00E94E61E88235F
:103E400099F18BE10E94E61E882351F09091F801D0
:103E500091FB882780F921E0822780FB91F922C01D
:103E60008EE00E94E61E882351F09091F80192FBAB
:103E7000882780F921E0822780FB92F913C080E136
:103E80000E94E61E9091F801882341F093FB882759
:103E900080F921E0822780FB93F904C0892F809567
:103EA00080FB90F99093F8018091F8010E94A41D85
:103EB0000E94B21D90E090932B0280932A0280EE24
:103EC0000E94E61E882341F080912A02982F909547
:103ED00090FB80F980932A0289E30E94E61E8823E2
:103EE00059F090912A0291FB882780F921E08227DE
:103EF00080FB91F990932A0282EE0E94E61E8823AD
:103F000059F090912A0292FB882780F921E08227BC
:103F100080FB92F990932A0286EE0E94E61E882387
:103F200059F090912A0293FB882780F921E082279B
:103F300080FB93F990932A0283EE0E94E61E882369
:103F400059F090912A0294FB882780F921E082277A
:103F500080FB94F990932A0285E30E94E61E882351
:103F600059F090912A0295FB882780F921E0822759
:103F700080FB95F990932A0281E30E94E61E882334
:103F800059F090912A0296FB882780F921E0822738
:103F900080FB96F990932A0281E10E94E61E882315
:103FA00059F090912A0297FB882780F921E0822717
:103FB00080FB97F990932A0280912A020E94B61DF5
:103FC00087E20E94E61EC82F8EE10E94E61E811144
:103FD000C2608FE10E94E61E8111C46080E20E94EF
:103FE000E61E8111C86081E20E94E61E8111C06157
:103FF00082E20E94E61E8111C06283E20E94E61EF8
:104000008111C06484E20E94E61E882311F0C0681A
:1040100002C0CC2329F08C2F0E94AD1D6C2F03C051
:104020000E94A91D682F70E080E090E0CF910C9471
:104030005C1ACF9108958091FC0180FF0BC06091C4
:10404000050185E0689FB001112475956795759508
:1040500067952AC081FF09C06091050185E0689FCE
:10406000B0011124759567951FC082FF07C060914C
:10407000050185E0689FB001112416C04091FD0143
:104080004423C9F060910401461788F72091050187
:1040900085E0289F90011124429FC001439F900D0D
:1040A000112470E00E944C2A6038710540F46115BB
:1040B000710539F002C065E070E0862F08958FE742
:1040C000089581E008958091FC0180FF08C060910F
:1040D000030170E0759567957595679521C081FF1F
:1040E00006C06091030170E07595679519C082FF65
:1040F00004C06091030170E010C08091FD0188232D
:10410000C1F0609102018617A0F790910301989F7A
:10411000C001112470E00E944C2A6038710528F417
:104120006115710521F0862F08958FE7089581E0CC
:10413000089561E070E0F4CF803F21F40E941B20DD
:10414000819504C0813F29F40E941B2080930002C6
:104150000895823F21F40E941B20819504C0833F73
:1041600029F40E941B208093FF010895893F19F4D0
:104170000E94632005C08A3F31F40E94632081952C
:104180008093010208958B3F21F40E946320819562
:1041900004C08C3F29F40E9463208093020208959A
:1041A000843F21F48091FE01816017C0853F21F496
:1041B0008091FE01826011C0863F21F48091FE0152
:1041C00084600BC0873F21F48091FE01886005C0A8
:1041D000883F31F48091FE0180618093FE01089553
:1041E0008D3F21F48091FC0181600BC08E3F21F452
:1041F0008091FC01826005C08F3F29F48091FC0111
:1042000084608093FC010895803F39F4809100021E
:1042100087FF6CC01092000269C0813F29F4809131
:1042200000021816BCF362C09091FF01823F29F48E
:1042300097FF5CC01092FF0159C0833F19F4191613
:10424000CCF354C0893F41F48091010218160CF060
:104250004DC0109201024AC08A3F29F480910102A8
:1042600087FF44C0F6CF8B3F39F48091020287FF6D
:104270003DC0109202023AC08C3F29F480910202A4
:104280001816BCF333C0843F21F48091FE018E7F69
:1042900017C0853F21F48091FE018D7F11C0863FBC
:1042A00021F48091FE018B7F0BC0873F21F4809128
:1042B000FE01877F05C0883F31F48091FE018F7E2B
:1042C0008093FE0113C08D3F21F48091FC018E7F0D
:1042D0000BC08E3F21F48091FC018D7F05C08F3F84
:1042E00029F48091FC018B7F8093FC018091FF0178
:1042F00081110EC08091000281110AC080910102DB
:10430000811106C080910202811102C01092FD014C
:1043100008958EEF91E00E94C6110E94331E909383
:10432000FB018093FA0108951F93CF93DF9380914F
:10433000FA019091FB010E943F1E4091FD01442330
:1043400021F02091060130E006C0209107015AE0DB
:10435000259F900111248217930708F482C0809151
:10436000FF0110910002D0910102C091020281115F
:1043700007C0111105C0D11103C0CC2309F471C0CD
:104380004F3F19F04F5F4093FD01181624F40E942F
:104390001B208093FF018091FF0187FF05C00E94D1
:1043A0001B2081958093FF01111624F40E941B208D
:1043B000809300028091000287FF05C00E941B20AD
:1043C0008195809300026091FF01662339F110917D
:1043D0000002112319F1772767FD7095872F972F1A
:1043E0000E945D2923E333E343E35FE30E94C12995
:1043F0000E942A296093FF01612F772767FD70953E
:10440000872F972F0E945D2923E333E343E35FE384
:104410000E94C1290E942A29609300021D1624F4DB
:104420000E946320809301028091010287FF05C0F2
:104430000E9463208195809301021C1624F40E943F
:104440006320809302028091020287FF05C00E94D0
:104450006320819580930202DF91CF911F910C948C
:104460008921DF91CF911F910895EEEFF1E085E072
:10447000DF011D928A95E9F71092FD011092FC016F
:104480000895809123020895CF93DF9300D01F9267
:10449000CDB7DEB720913002243019F523E029830F
:1044A0009B838A832093E9008FEF9091E8008150ED
:1044B00095FD06C095ED9A95F1F700008111F5CFB5
:1044C0008091E80085FF0DC040E050E063E070E0BF
:1044D000CE0101960E94A3248091E8008E778093FC
:1044E000E8000F900F900F90DF91CF910895CF9338
:1044F000DF9300D01F92CDB7DEB720913002243079
:1045000031F522E02983805891099B838A8383E0D7
:104510008093E9008FEF9091E800815095FD06C0EF
:1045200095ED9A95F1F700008111F5CF8091E800A3
:1045300085FF0DC040E050E063E070E0CE010196E1
:104540000E94A3248091E8008E778093E8000F906A
:104550000F900F90DF91CF91089520913002243079
:10456000F1F422E02093E9002FEF3091E800215090
:1045700035FD06C035ED3A95F1F700002111F5CF74
:104580002091E80025FF0BC040E050E065E070E0BE
:104590000E94A3248091E8008E778093E80008951C
:1045A000CF93DF93EC0180913002843009F046C054
:1045B000909112019923D9F090912A0297FF17C088
:1045C0008093E9008FEF9091E800815095FD06C03F
:1045D00095E19A95F1F700008111F5CF8091E800FF
:1045E00085FF2CC040E050E060E270E017C081E041
:1045F0008093E9008FEF9091E800815095FD06C00F
:1046000095ED9A95F1F700008111F5CF8091E800C2
:1046100085FF14C040E050E068E070E0CE010E94E9
:10462000A3248091E8008E778093E80080E2FE0169
:10463000A3E0B2E001900D928A95E1F7DF91CF916E
:10464000089580912F02811109C00E9435260E9491
:1046500092268091E20084608093E2000895109297
:104660002F020895089508950C94FB1D42E061EC1B
:1046700081E00E94AF2542E061EC82E00E94AF251C
:1046800042E061EC83E00E94AF2542E261EC84E00D
:104690000C94AF2580913202833009F455C030F478
:1046A000813071F0823009F48EC008958A3009F4A7
:1046B0007AC08B3009F460C0893009F09CC020C0FA
:1046C00080913102813A09F096C08091E800877F9D
:1046D0008093E8008091350290913602892B21F079
:1046E00060E080E090E003C060E283E092E070E090
:1046F0000E94EC248091E8008B778093E800089575
:1047000080913102813209F076C08091350290911A
:104710003602009719F0039709F06DC08091E80008
:10472000877F8093E8008091E80082FD05C080913A
:1047300030028111F8CF5FC08091F1008093230295
:104740008091E8008B7753C080913102813A09F063
:1047500052C08091350290913602892B09F04BC0EE
:104760008091E800877F8093E8008091E80080FFD7
:10477000FCCF8091120136C0809131028132D9F58F
:104780008091350290913602892BA9F58091E8003D
:10479000877F8093E8000E94E42580913302809314
:1047A00012010C94641680913102813221F58091BE
:1047B000E800877F8093E8000E94E425809134021E
:1047C00080932402089580913102813AA1F480916E
:1047D000E800877F8093E8008091E80080FFFCCFAD
:1047E000809124028093F1008091E8008E7780937D
:1047F000E8000C94E425089584B7877F84BF88E19E
:104800000FB6F89480936000109260000FBE80E8AD
:1048100080936100109261000E94FE110E94352673
:104820000E9492268091E20084608093E200789456
:104830000E940D290E94001288E091E00E94AA11B6
:1048400080913002853069F40E94BB1D80912E0258
:104850008823B1F30E94E61D882391F30E948D24E2
:10486000EFCF0E940612ECCF292F332723303105DA
:10487000A9F06CF42130310509F442C02230310531
:1048800009F043C08DE690E025E131E142C02132DC
:104890003105C9F02232310519F137C0992781302D
:1048A000910541F08230910541F0892B71F5E1E1EC
:1048B000F1E105C0EBEEF0E102C0E7EDF0E184913B
:1048C00090E09F0126C0643000F5E62FF0E0EE0F87
:1048D000FF1FE25DFE4F2081318189E090E019C029
:1048E000643098F4E62FF0E0DF01AA0FBB1FAA5D49
:1048F000BE4F2D913C91EE5DFE4F808190E009C04E
:1049000082E190E022E831E104C080E090E020E024
:1049100030E0FA0131832083089580E189BD82E18E
:1049200089BD09B400FEFDCF8091D8008F7D8093B2
:10493000D8008091E00082608093E0008091E000E8
:1049400081FDFCCF0895CF92DF92EF92FF920F93FB
:104950001F93CF93DF937C018B01EA010E94052610
:10496000811131C0209731F088819981081B190B82
:10497000E80EF91EC12CD12C0115110519F18091F9
:10498000E80085FD14C08091E8008E778093E800F0
:10499000209741F0888199818C0D9D1D9983888392
:1049A00085E011C00E940526882331F30CC0F70171
:1049B00081917F018093F10001501109FFEFCF1A1F
:1049C000DF0ADACF80E0DF91CF911F910F91FF9046
:1049D000EF90DF90CF900895209137023091380208
:1049E0002617370748F06115710539F42091E80062
:1049F0002E772093E80001C0B901FC0120E0611589
:104A00007105B9F180913002882309F440C08530E6
:104A100009F43FC08091E80083FD3DC08091E8002B
:104A200082FF06C08091E80082FF26C080E00895E2
:104A30008091E80080FFE3CF2091F3008091F200A5
:104A400090E0922B6115710551F08830910538F492
:104A500021912093F100615071090196F3CF21E07B
:104A6000089709F020E08091E8008E778093E800B5
:104A7000C6CF2111C7CFD6CF80913002882339F01D
:104A8000853039F08091E80083FFCCCF04C082E00C
:104A9000089583E0089581E00895209137023091D0
:104AA00038022617370748F06115710539F420914F
:104AB000E8002E772093E80001C0B901FC0120E056
:104AC00061157105C1F180913002882309F441C05C
:104AD000853009F440C08091E80083FD3EC080919C
:104AE000E80082FF06C08091E80082FF27C080E0D6
:104AF00008958091E80080FFE3CF2091F30080913A
:104B0000F20090E0922B6115710559F08830910503
:104B100040F424912093F10031966150710901967F
:104B2000F2CF21E0089709F020E08091E8008E772D
:104B30008093E800C5CF2111C6CFD5CF8091300238
:104B4000882339F0853039F08091E80083FFCBCF9E
:104B500004C082E0089583E0089581E00895982FCD
:104B6000973058F59093E900981739F07091EC0060
:104B70002091ED005091F00003C0242F762F50E0DB
:104B800021FF19C03091EB003E7F3093EB00309154
:104B9000ED003D7F3093ED003091EB0031603093BC
:104BA000EB007093EC002093ED005093F000209107
:104BB000EE0027FF07C09F5FD3CF8F708093E9007F
:104BC00081E0089580E008958091310287FD05C05D
:104BD0008091E80080FF0EC012C08091E80082FD45
:104BE00005C0809130028111F8CF08958091E800CE
:104BF0008B7708C0809130028111EACF08958091AF
:104C0000E8008E778093E80008958091E400909109
:104C1000E50045E62091EC0020FF21C02091E8004E
:104C200020FD21C020913002222389F0253089F017
:104C30002091EB0025FD0FC02091E4003091E500AC
:104C40002817390739F3415041F0C901E3CF82E019
:104C5000089583E0089581E0089584E00895209107
:104C6000E80022FFDFCF80E008950E94A3260E9483
:104C7000AB26E0EEF0E0808181608083E8EDF0E03B
:104C800080818F77808319BCA7EDB0E08C918E7FF7
:104C90008C9380818F7E808310922F0208950F93D2
:104CA0001F93CF93DF930E94A3260E94AB26C8EDEB
:104CB000D0E088818F778883888180688883888125
:104CC0008F7D888319BC1092300210922C021092B2
:104CD0002E0210922D0200EE10E0F80180818B7FF1
:104CE000808388818160888342E060E080E00E9468
:104CF000AF25E1EEF0E080818E7F8083E2EEF0E090
:104D0000808181608083808188608083F8018081D8
:104D10008E7F8083888180618883DF91CF911F910E
:104D20000F910895E8EDF0E080818F7E8083E7EDBC
:104D3000F0E080818160808384E082BF81E08093A5
:104D40002F020C944F26E8EDF0E080818E7F808367
:104D50001092E20008951092DA001092E100089596
:104D60001F920F920FB60F9211242F933F934F93E0
:104D70005F936F937F938F939F93AF93BF93EF93C3
:104D8000FF938091E10082FF0BC08091E20082FFDF
:104D900007C08091E1008B7F8093E1000E940C2985
:104DA0008091DA0080FF1FC08091D80080FF1BC077
:104DB0008091DA008E7F8093DA008091D90080FFA5
:104DC0000DC080E189BD82E189BD09B400FEFDCF3F
:104DD00081E0809330020E94212305C019BC10920B
:104DE00030020E942F238091E10080FF19C0809142
:104DF000E20080FF15C08091E2008E7F8093E20088
:104E00008091E20080618093E2008091D80080620E
:104E10008093D80019BC85E0809330020E94332330
:104E20008091E10084FF30C08091E20084FF2CC0BB
:104E300080E189BD82E189BD09B400FEFDCF80918A
:104E4000D8008F7D8093D8008091E1008F7E809381
:104E5000E1008091E2008F7E8093E2008091E20089
:104E600081608093E20080912C02882311F084E01D
:104E700007C08091E30087FF02C083E001C081E0AA
:104E8000809330020E9434238091E10083FF29C087
:104E90008091E20083FF25C08091E100877F8093AD
:104EA000E10082E08093300210922C028091E100B8
:104EB0008E7F8093E1008091E2008E7F8093E200FC
:104EC0008091E20080618093E20042E060E080E057
:104ED0000E94AF258091F00088608093F0000E94CE
:104EE0003223FF91EF91BF91AF919F918F917F916D
:104EF0006F915F914F913F912F910F900FBE0F9047
:104F00001F9018951F920F920FB60F9211242F9396
:104F10003F934F935F936F937F938F939F93AF9341
:104F2000BF93CF93EF93FF93C091E900CF7080912F
:104F3000EC001092E9008091F000877F8093F000F0
:104F400078940E94BE271092E9008091F00088605A
:104F50008093F000C093E900FF91EF91CF91BF9152
:104F6000AF919F918F917F916F915F914F913F9101
:104F70002F910F900FBE0F901F9018951F93CF93F6
:104F8000DF93CDB7DEB7AA970FB6F894DEBF0FBE9A
:104F9000CDBFE1E3F2E08091F100819322E0E933BB
:104FA000F207C9F70E944A238091E80083FF1CC1E1
:104FB0002091310230913202832F90E08A309105A6
:104FC00008F012C1FC01E050FF4F0C94602A203819
:104FD00081F0223809F008C1809135028F708093EA
:104FE000E9008091EB0085FB882780F91092E900A9
:104FF00006C080912D0290912E02911182609091B5
:10500000E800977F9093E8008093F1001092F10000
:10501000C5C0822F8D7F09F0E7C0222319F022300E
:1050200061F0E2C080913302813009F0DDC033309D
:1050300009F080E080932E0228C080913302811114
:1050400024C0209135022F7009F4CEC02093E900CE
:105050008091EB0080FF19C08091EB00333011F498
:10506000806211C080618093EB0081E090E0022EAD
:1050700001C0880F0A94EAF78093EA001092EA00D0
:105080008091EB0088608093EB001092E9008091A2
:10509000E800877F86C02111A7C0109133021F77D7
:1050A0008091E3008078812B8093E3008091E80079
:1050B000877F8093E8000E94E4258091E80080FFCC
:1050C000FCCF8091E30080688093E300112311F00E
:1050D00083E001C082E08093300286C020582230F5
:1050E00008F082C080913302909134028C3D23E01D
:1050F000920779F583E08A838AE289834FB7F8942F
:10510000DE01139620E03EE051E2E32FF0E0509301
:105110005700E49120FF03C0E295EF703F5FEF700E
:105120008E2F90E0EA3010F0C79601C0C0968D93A4
:105130009D932F5F243149F74FBF8091E800877F0F
:105140008093E8006AE270E0CE0101960E94EC24B0
:1051500014C0AE014F5F5F4F609135020E9434244E
:10516000009709F441C02091E800277F2093E800D0
:10517000BC0189819A810E944D258091E8008B773E
:105180008093E80031C0203879F58091E800877F6E
:105190008093E80080912C028093F1008091E800D8
:1051A0008E778093E8000E94E4251EC021111CC068
:1051B000909133029230C0F48091E800877F809311
:1051C000E80090932C020E94E42580912C0281112A
:1051D00004C08091E30087FF02C084E001C081E049
:1051E000809330020E9436238091E80083FF0AC03A
:1051F0008091E800877F8093E8008091EB008062D7
:105200008093EB00AA960FB6F894DEBF0FBECDBF19
:10521000DF91CF911F9108950895CF93809130022F
:105220008823B1F08091E9008F709091EC0090FF9D
:1052300002C090E801C090E0C92FC82B1092E9008D
:105240008091E80083FD0E94BE27CF70C093E900E3
:10525000CF91089504D06894B1118DC0089570D095
:1052600088F09F5790F0B92F9927B751A0F0D1F04F
:10527000660F771F881F991F1AF0BA95C9F712C0D9
:10528000B13081F077D0B1E0089574C0672F782FE6
:105290008827B85F39F0B93FCCF386957795679545
:1052A000B395D9F73EF490958095709561957F4FB1
:1052B0008F4F9F4F0895E89409C097FB3EF4909557
:1052C0008095709561957F4F8F4F9F4F9923A9F0DF
:1052D000F92F96E9BB279395F6958795779567956E
:1052E000B795F111F8CFFAF4BB0F11F460FF1BC0B2
:1052F0006F5F7F4F8F4F9F4F16C0882311F096E945
:1053000011C0772321F09EE8872F762F05C06623F2
:1053100071F096E8862F70E060E02AF09A95660FAB
:10532000771F881FDAF7880F9695879597F9089564
:1053300057FD9058440F551F59F05F3F71F0479546
:10534000880F97FB991F61F09F3F79F0879508952B
:10535000121613061406551FF2CF4695F1DF08C04A
:10536000161617061806991FF1CF86957105610567
:1053700008940895E894BB2766277727CB0197F90F
:1053800008950BD078C069D028F06ED018F095231E
:1053900009F05AC05FC01124EECFCADFA0F3959F79
:1053A000D1F3950F50E0551F629FF001729FBB270C
:1053B000F00DB11D639FAA27F00DB11DAA1F649FB8
:1053C0006627B00DA11D661F829F2227B00DA11D6B
:1053D000621F739FB00DA11D621F839FA00D611DF1
:1053E000221F749F3327A00D611D231F849F600D12
:1053F000211D822F762F6A2F11249F5750408AF04B
:10540000E1F088234AF0EE0FFF1FBB1F661F771FD6
:10541000881F91505040A9F79E3F510570F014C06D
:10542000AACF5F3FECF3983EDCF3869577956795BE
:10543000B795F795E7959F5FC1F7FE2B880F911DF4
:105440009695879597F9089597F99F6780E870E09A
:1054500060E008959FEF80EC089500240A941616EA
:10546000170618060906089500240A941216130652
:10547000140605060895092E0394000C11F48823E0
:1054800052F0BB0F40F4BF2B11F460FF04C06F5FFC
:105490007F4F8F4F9F4F089597FB072E16F4009470
:1054A00007D077FD09D00E94662A07FC05D03EF49C
:1054B000909581959F4F0895709561957F4F0895C0
:1054C000EE0FFF1F0590F491E02D0994AA1BBB1B62
:1054D00051E107C0AA1FBB1FA617B70710F0A61BF4
:1054E000B70B881F991F5A95A9F780959095BC0115
:1054F000CD010895F999FECF92BD81BDF89A992703
:1055000080B50895A8E1B0E042E050E00C94A22AF2
:10551000262FF999FECF92BD81BDF89A019700B46C
:10552000021639F01FBA20BD0FB6F894FA9AF99A0C
:105530000FBE08950196272F0E94892A0C94882A6D
:10554000DC01CB01FC01F999FECF06C0F2BDE1BD43
:10555000F89A319600B40D9241505040B8F7089532
:04556000F894FFCFED
:10556400D5012808140A321E4122D022AD22772206
:105574004422013536F7F6F5F4F1F09190373332E1
:105584003130404D363950120312CD119411271188
:06559400401159117211D3
:00000001FF
