:100000000C94570A0C949B0A0C949B0A0C949B0A20
:100010000C949B0A0C949B0A0C949B0A0C949B0ACC
:100020000C949B0A0C949B0A0C94BF270C94912867
:100030000C94101F0C949B0A0C949B0A0C949B0A22
:100040000C949B0A0C949B0A0C949B0A0C949B0A9C
:100050000C949B0A0C94771F0C949B0A0C949B0A9B
:100060000C949B0A0C949B0A0C949B0A0C949B0A7C
:100070000C949B0A0C949B0A0C949B0A0C949B0A6C
:100080000C949B0A0C949B0A0C949B0A0C949B0A5C
:100090000C949B0A0C949B0A0C949B0A0C949B0A4C
:1000A0000C949B0A0C949B0A0C949B0AAB0AB00A12
:1000B000B50ABA0ABF0AC40AC90ACE0AD30AD80ABC
:1000C000DD0AE20AE70AEC0AF20AF80AFE0A040B61
:1000D0000A0B100B160B1C0B220B280B2E0B340BD0
:1000E0003A0B400B460B4C0B520B580B5E0B640B40
:1000F0006A0B700B760B7C0B820B880B8E0B940BB0
:100100009A0BA00BA60BAC0BB20BB80BBE0BC40B1F
:10011000CA0BD00BD60BDC0BE20BE80BEE0BF40B8F
:10012000FA0B000C060C0C0C120C180C1E0C240CF8
:100130002A0C300C360C3C0C420C480C4E0C540C67
:100140005A0C600C660C6C0C720C780C7E0C840CD7
:100150008A0C900C960C9C0CA20CA80CAE0CB40C47
:10016000BA0CC00CC60CCC0CD20CD80CDE0CE40CB7
:10017000EA0CF00CF60C7B0D810D850D880D8C0DB5
:10018000900D940D980D9D0DA10DA50DA90DAC0D13
:10019000B00DB40DB80DBC0DC10D481548157B153B
:1001A0007B15BB15DD1505170517E81505178F1607
:1001B0008F16F8160517051700179C169C169C1627
:1001C0009C169C169C169C169C169C169C169C169F
:1001D0009C169C169C169C169C16AC16BC16C31638
:1001E000CA16D41685178517981798178E1798175B
:1001F00098179817851785179417981798179417B5
:10020000F6281829032A1829032A5A297D29032A9E
:10021000D229E52901110211011302130137023716
:10022000011C021C0108020801150215011202122C
:100230000116021601E10125022502E10001E60195
:1002400064026402E601E10113021302E1010C02FF
:100250000C0001E60164026402E601E101160216E7
:1002600002E1010C020C010A020A01100210010451
:1002700002040001E60164026402E60104020401D2
:1002800015021501060206011702170104020401F6
:100290001102110001E60164026402E60104020495
:1002A00001150215010602060106020601120212DC
:1002B000011602160001E60164026402E60104026E
:1002C00004011502150106020601160216010C02B0
:1002D0000C011102110001E60164026402E601173B
:1002E000021701040204011102110001E601640277
:1002F0006402E6010602060112021201160216004D
:1003000001E60164026402E601160216010C020C09
:100310000111021100012E022E01E6013402340205
:10032000E601380238011E021E01E60131023102E7
:10033000E60001E60164026402E6010F020F01110A
:1003400002110001E60164026402E6010F020F01DE
:10035000120212010A020A0001E10138023802E128
:1003600001E60134023402E601380238011E021EA1
:1003700001E60131023102E60001E10138023802F2
:10038000E1012002200001E10138023802E1011FF1
:10039000021F0001E10138023802E10001E60164B8
:1003A000026402E6010502050104020401150215BA
:1003B00001E60134023402E60001E601640264024F
:1003C000E6010902090115021501040204010602F1
:1003D0000601E601340234013102310134023401F4
:1003E00031023102E6015002500150025001500228
:1003F0005000011E021E01270227012E022E01E6D7
:100400000134023402E60001080208012E022E0126
:10041000E60134023402E60001E60164026402E609
:1004200001130213010C020C0001E60164026402D4
:10043000E601160216010B020B010402040115026B
:1004400015011302130001E60164026402E60106CD
:10045000020601070207011202120117021700012A
:10046000E60164026402E601160216011402140198
:100470001502150117021701E60134023402E600E5
:1004800001E60164026402E601130213011502157C
:10049000011202120107020701E10138023802E1EC
:1004A00001E6013402340131023102E6012E022E4E
:1004B00001E6013402340131023102E601500250FA
:1004C0000150025001500250015002500001E6015B
:1004D00064026402E60116021601180218011002F5
:1004E0001001E10138023802E101E6013402340171
:1004F00031023102E6012E022E01E60134023401FE
:1005000031023102E6015002500150025001500206
:1005100050015002500001E60164026402E6010A43
:10052000020A010802080001E60164026402E60111
:100530000F020F010802080001E60164026402E6EE
:1005400001070207010C020C011902190001E60162
:1005500064026402E601170217010C020C0110028A
:100560001001080208011602160001E60164026487
:1005700002E6011302130110021000010F020F0125
:10058000120212010A020A011E021E01270227019D
:10059000E10125022502E10001370237012E022E7A
:1005A00001E10125022502E101380238011E021E87
:1005B00001E10126022602E10001110211011302EC
:1005C0001301370237010402040115021501150257
:1005D0001501040204011D021D01E101250225028D
:1005E000E101E6012F022F02E600011E021E012793
:1005F0000227015502550155025500011102110152
:100600001302130137023701130213010C020C000D
:1006100001110211011302130137023701100210F8
:1006200001080208010402040111021101E101257F
:10063000022502E100011102110113021301370228
:1006400037010F020F010C020C011102110104020B
:1006500004010F020F010A020A01370237011102D9
:100660001101120212011502150110021001E1011F
:1006700025022502E10001110211011302130137C5
:10068000023701040204010502050116021601E108
:100690000125022502E100011102110113021301DB
:1006A0003702370104020401170217010402040192
:1006B00011021101E10125022502E10001110211DF
:1006C0000113021301370237010402040106020676
:1006D000011202120116021601E10125022502E1B2
:1006E0000001110211011302130137023701040244
:1006F0000401160216010C020C0111021101E101A4
:1007000025022502E1000111021101130213013734
:10071000023701170217010402040111021101E15D
:100720000125022502E1000111021101130213014A
:1007300037023701060206011202120116021601E3
:10074000E10125022502E10001110211011302134A
:100750000137023701160216010C020C01110211B9
:1007600001E10125022502E100011102110113023C
:10077000130137023701130213011502150112028A
:10078000120107020701E10125022502E100011122
:100790000211011302130137023701160216011864
:1007A00002180110021001E10125022502E10001F9
:1007B000110211011302130137023701160216014B
:1007C000140214011502150117021701E101250297
:1007D0002502E10001110211011302130137023752
:1007E00001070207011202120117021701E1012598
:1007F000022502E100015502550155025501E101B2
:1008000025022502E101380238011E021E01E10124
:1008100026022602E100015502550155025501202C
:100820000220000155025501550255011F021F000B
:100830000155025501550255000111021101130223
:10084000130137023701080208011B021B011302C2
:100850001301E10125022502E1000111021101133A
:10086000021301370237010F020F01120212010AAF
:10087000020A01E10125022502E100011102110134
:1008800013021301370237010F020F011202120186
:100890000A020A011E021E0127022701E1012502A8
:1008A0002502E100010C020C0111021101190219CB
:1008B00001E10125022502E10001370237012E0284
:1008C0002E012002200001370237012E022E011FC7
:1008D000021F0001040204011702170104020401AF
:1008E00011021101E10125022502E10001040204C7
:1008F00001060206011202120116021601E101258B
:10090000022502E1000104020401160216010C0294
:100910000C0111021101E10125022502E10001375C
:100920000237012E022E00011E021E01270227019E
:10093000370237012E022E000137023701550255CA
:10094000000137023701E10124022402E100000125
:10095000E2015A025A015D025D0159025902E200A8
:1009600001E2015A025A015C025C0159025902E299
:100970000001E2015A025A015A025A016002600261
:10098000E20001E2015A025A015A025A015F025F73
:1009900002E20001130213010C020C00011102110A
:1009A00001120212011502150110021001E10125C8
:1009B000022502E1000110021001080208010402F0
:1009C000040111021101E10125022502E1000104E7
:1009D000020401190219010A020A01E10125022596
:1009E00002E10001040204010502050116021601DC
:1009F000E10125022502E1000104020401150215AE
:100A00000106020601170217010402040111021176
:100A100001E10125022502E10001040204011502A1
:100A20001501060206010602060112021201160253
:100A30001601E10125022502E1000104020401156D
:100A400002150106020601160216010C020C011124
:100A5000021101E10125022502E10001170217013F
:100A60000402040111021101E10125022502E10045
:100A700001060206011202120116021601E1012509
:100A8000022502E10001160216010C020C011102FE
:100A90001101E10125022502E100011302130115F4
:100AA0000215011202120107020701E101250225C8
:100AB00002E10001160216011802180110021001CD
:100AC000E10125022502E1000116021601140214BB
:100AD000011502150117021701E10125022502E1A6
:100AE00000011C021C010802080115021501120276
:100AF000120116021601E10125022502E100012E74
:100B0000022E01E10125022502E101380238011E11
:100B1000021E01E10126022602E100012E022E0141
:100B200020022000012E022E011F021F00010702D9
:100B300007011202120117021701E1012502250225
:100B4000E10001080208011B021B0113021301E16D
:100B50000125022502E100011E021E0127022701D4
:100B60002E022E00010F020F0111021101E10125D9
:100B7000022502E100010F020F01120212010A0216
:100B80000A01E10125022502E10001E1016402649C
:100B90000127022702E1000164026401E10127024A
:100BA0002702E100010A020A01E10125022502E112
:100BB000011B021B01E10126022602E100010902DC
:100BC0000901E10125022502E1011B021B01E101EE
:100BD00026022602E10001E00104020402E0012AEB
:100BE000022A0001E00104020402E00001270227BA
:100BF0000127022700113012301B001D001C0004C9
:100C000000050006001D30640064022F1430140734
:100C10003008302A00133025022602240220023830
:100C2000001E020130143003301A30193024002520
:100C3000002600023015300E301030220221002232
:100C40000023002702E1002E000C300D301E001F93
:100C50000020002800004124142302360027000051
:100C600030370000001F3022300100010001000178
:100C700000010007001E300530063034143114091D
:100C8000300A3001001630010001000100010001AE
:100C90000001000100173004301B301C304A0052A4
:100CA000004B0001001830010021302014500001D9
:100CB000004F00203001000100010001004D0051F3
:100CC000004E001250010001001F1401000100013C
:100CD0000001000000113012301B001D001C000438
:100CE00000050006001D30640064022F1430144516
:100CF0003007302A001330250226022330243038F2
:100D0000001E020130143003301A3019302400253F
:100D1000002600023015304430103022022100221B
:100D20000023002702E10026302A302B301E001F4E
:100D3000002000280000432414230236002700006E
:100D400030370000001F302230010001000F300159
:100D500000010007001E3005300630341431142520
:100D6000300A3001002730010001000100010001BC
:100D70000001000100283004301B301C304A0052B2
:100D8000004B00010029302C30213020145000018C
:100D9000004F00203001002E000C300D304D00516E
:100DA000004E001450010001001F14010001000159
:100DB000000B300000363037301B001D001C0004D3
:100DC00000050006004130640064022F1430142D29
:100DD000302E302A00383025022602240220023824
:100DE000001E0201303930033040303E30240025EF
:100DF00000260002303A3033303530220221002202
:100E00000023002702E1003030313032301E001F55
:100E1000002000280000452414230236002700008B
:100E200030370000001F30223001000100643043E1
:100E300030010007001E30053006303414311442F2
:100E4000302F3001003B30010001000100010001A2
:100E500000010001003C30043001003F304A0052E4
:100E6000004B0001003D30010021302014500001F2
:100E7000004F00203001000100010001004D005131
:100E8000004E001650010001001F14010001000176
:100E900000343000004B304C301B001D001C00049F
:100EA00000050006005030640064022F143014590D
:100EB000305A302A005C3025022602533020023896
:100EC000001E0201305D30033054301930240025FB
:100ED00000260002305E305B304D302202210022BD
:100EE0000023002702E1002E000C300D301E001FF1
:100EF00000200028000047241423023600270000A9
:100F00003037000000623063300100010001000151
:100F100000010007001E3049304A303414311452A9
:100F200030513001005F300100010048304730018E
:100F30000001000100603004301B301C304A0052B8
:100F4000004B0001006130583021304F305000011B
:100F5000004F00463001005530563057304D00519B
:100F6000004E001050010001001F1401000100019B
:100F7000004E3000000100010001000100010001ED
:100F80000001000100010001000100010001000159
:100F90000001000100010001000100010001000149
:100FA0000001000100010001000100010001000139
:100FB0000001000100010001000100010001000129
:100FC0000001000100010001000100010001000119
:100FD0000001000100010001000100010001000109
:100FE00000010000000100010001000100010001FA
:100FF00000010001000100010001000100010001E9
:1010000000010001000100010001000100010001D8
:1010100000010001000100010001000100010001C8
:1010200000010001000100010001000100010001B8
:1010300000010001000100010001000100010001A8
:101040000001000100010001000100010001000198
:101050000001000000010001000100010001000189
:101060000001000100010001000100010001000178
:101070000001000100010001000100010001000168
:101080000001000100010001000100010001000158
:101090000001000100010001000100010001000148
:1010A0000001000100010001000100010001000138
:1010B0000001000100010001000100010001000128
:1010C0000001000000010001000100010001000119
:1010D0000001000100010001000100010001000108
:1010E00000010001000100010001000100010001F8
:1010F00000010001000100010001000100010001E8
:1011000000010001000100010001000100010001D7
:1011100000010001000100010001000100010001C7
:1011200000010001000100010001000100010001B7
:1011300000010000000100010001000100010001A8
:101140000001000100010001000100010001000197
:101150000001000100010001000100010001000187
:101160000001000100010001000100010001000177
:101170000001000100010001000100010001000167
:101180000001000100010001000100010001000157
:101190000001000100010001000100010001000147
:1011A0000001000000010001000100010001000138
:1011B0000001000100010001000100010001000127
:1011C0000001000100010001000100010001000117
:1011D0000001000100010001000100010001000107
:1011E00000010001000100010001000100010001F7
:1011F00000010001000100010001000100010001E7
:1012000000010001000100010001000100010001D6
:1012100000010000000100010001000100010001C7
:1012200000010001000100010001000100010001B6
:1012300000010001000100010001000100010001A6
:101240000001000100010001000100010001000196
:101250000001000100010001000100010001000186
:101260000001000100010001000100010001000176
:101270000001000100010001000100010001000166
:101280000001000000010001000100010001000157
:101290000001000100010001000100010001000146
:1012A0000001000100010001000100010001000136
:1012B0000001000100010001000100010001000126
:1012C0000001000100010001000100010001000116
:1012D0000001000100010001000100010001000106
:1012E00000010001000100010001000100010001F6
:1012F000000100000012034D006100740068006BE3
:101300000065006500620000002403410070006F6A
:10131000006700650065005F0049006E00640075AD
:10132000007300740072006900650073000000041F
:1013300003090409026D00040100A0FA0904000079
:1013400001030101000921110100012240000705EC
:10135000810308000A0904010001030102000921B8
:1013600011010001224D000705820308000A09044B
:1013700002000103000000092111010001223600D2
:101380000705830308000A090403000103000000A5
:101390000921110100012239000705840320000101
:1013A0001201100100000008EDFE6060250001023E
:1013B000000105010906A101050719E029E715004B
:1013C0002501950875018102050819012905950572
:1013D000750191029501750391010507190029F71F
:1013E0001500250195F875018102C005010980A14C
:1013F0000185021601002603001A81002A83007568
:101400001095018100C0050C0901A1018503160199
:1014100000269C021A01002A9C0275109501810089
:10142000C005010902A1010901A10005091901294D
:10143000051500250195057501810295017503814A
:10144000010501093009311581257F950275088153
:101450000609381581257F950175088106050C0A56
:1014600038021581257F950175088106C0C00501E8
:101470000906A101050719E029E7150025019508CE
:101480007501810295017508810105081901290579
:1014900095057501910295017503910105071900E4
:1014A00029FF150026FF00950675088100C011244C
:1014B0001FBECFEFDAE0DEBFCDBF04B603FE24C00F
:1014C0008091390290913A02A0913B02B0913C0286
:1014D0008730904BA740B04BB9F41092390210926C
:1014E0003A0210923B0210923C0214BE84B7877FEE
:1014F00084BF88E10FB6F89480936000109260007A
:101500000FBEE0E0F8E3099511E0A0E0B1E0E2E809
:10151000F7E502C005900D92A633B107D9F712E0A6
:10152000A6E3B1E001C01D92A933B107E1F70E9423
:101530000B250C94BF2B0C940000462F50E0453631
:10154000510508F059C2FA01EA5AFF4FDC01129620
:101550008C910C946F2B811152C280E090E0089521
:101560008823D9F383EE9BE008958823B1F386EDB9
:101570009BE00895882389F38DEB9BE008958823F1
:1015800061F384EA9BE00895882339F387E99BE0BF
:101590000895882311F38AE89BE008958823E9F2EF
:1015A00085E79BE008958823C1F284E69BE00895D7
:1015B000882399F287E59BE00895882371F282E4FD
:1015C0009BE00895882349F28DE29BE008958823EB
:1015D00021F284E29BE00895882309F4BECF8BE1D9
:1015E0009BE00895882309F4B8CF8EEF9AE0089520
:1015F000882309F4B2CF81EE9AE00895882309F494
:10160000ACCF88EC9AE00895882309F4A6CF83EB49
:101610009AE00895882309F4A0CF8AE99AE0089512
:10162000882309F49ACF85E89AE00895882309F47D
:1016300094CF80E79AE00895882309F48ECF8BE554
:101640009AE00895882309F488CF8AE39AE0089500
:10165000882309F482CF89E19AE00895882309F468
:101660007CCF88EF99E00895882309F476CF83EE44
:1016700099E00895882309F470CF8EEC99E00895DD
:10168000882309F46ACF85EB99E00895882309F44B
:1016900064CF8CE999E00895882309F45ECF83E94B
:1016A00099E00895882309F458CF82E899E00895D5
:1016B000882309F452CF81E799E00895882309F43B
:1016C0004CCF80E699E00895882309F446CF8FE453
:1016D00099E00895882309F440CF8EE499E00895B5
:1016E000882309F43ACF81E499E00895882309F426
:1016F00034CF88E399E00895882309F42ECF87E258
:1017000099E00895882309F428CF8EE199E008959F
:10171000882309F422CF85E099E00895882309F40D
:101720001CCF8CEE98E00895882309F416CF83ED42
:1017300098E00895882309F410CF86EC98E0089586
:10174000882309F40ACF89EB98E00895882309F4E7
:1017500004CF84EA98E00895882309F4FECE8BE74D
:1017600098E00895882309F4F8CE8AE598E0089572
:10177000882309F4F2CE89E398E00895882309F4D8
:10178000ECCE80E398E00895882309F4E6CE83E266
:1017900098E00895882309F4E0CE86E198E0089562
:1017A000882309F4DACE85EF97E00895882309F4B9
:1017B000D4CE84ED97E00895882309F4CECE8FEA45
:1017C00097E00895882309F4C8CE8EE897E008953D
:1017D000882309F4C2CE89E697E00895882309F4A6
:1017E000BCCE88E497E00895882309F4B6CE87E25A
:1017F00097E00895882309F4B0CE86E097E0089535
:10180000882309F4AACE81EE96E00895882309F48E
:10181000A4CE8CEB96E00895882309F49ECE87E948
:1018200096E00895882309F498CE86E796E0089517
:10183000882309F492CE85E396E00895882309F47D
:101840008CCE80E196E00895882309F486CE8BEF54
:1018500095E00895882309F480CE8AEE95E00895F6
:10186000882309F47ACE89EB95E00895882309F45A
:1018700074CE88E995E00895882309F46ECE8BE74D
:1018800095E00895882309F468CE8AE695E00895E6
:10189000882309F462CE8DE495E00895882309F445
:1018A0005CCE88E395E00895882309F456CE87E25C
:1018B00095E00895882309F450CE86E195E00895D7
:1018C000882309F44ACE8DEC94E00895882309F426
:1018D00044CE80E894E00895882309F43ECE8FE555
:1018E00094E00895882309F438CE86E494E00895BE
:1018F000882309F432CE89E294E00895882309F41C
:101900002CCE88E194E00895882309F426CE87E060
:1019100094E00895882309F420CE82EF93E008959F
:10192000882309F41ACE89EB93E00895882309F4FB
:1019300014CE8CE993E00895882309F40ECE83E950
:1019400093E00895882309F408CE86E893E008958B
:10195000882309F402CE89E793E00895882309F4E7
:10196000FCCD88E593E00895882309F4F6CD83E45F
:1019700093E00895882309F4F0CD82E393E008957D
:10198000882309F4EACD85E193E00895882309F4DA
:10199000E4CD80E093E00895882309F4DECD8BEE5A
:1019A00092E00895882309F4D8CD86ED92E0089559
:1019B000882309F4D2CD85EB92E00895882309F4B9
:1019C000CCCD84E992E00895882309F4C6CD83E75D
:1019D00092E00895882309F4C0CD82E592E008954D
:1019E000882309F4BACD8DE392E00895882309F4A1
:1019F000B4CD84E192E0089580E090E008958CEE0B
:101A00009BE008950895089581E00895089581E088
:101A100008950C94040D0E9473172FEF84E39CE04B
:101A2000215080409040E1F700C000000C949C1FC2
:101A3000FF920F931F93CF93DF93EC0108811981DD
:101A400080916F01811113C08A81882349F0C801F8
:101A50000E94F21CF82E682FC8010E94981C04C036
:101A6000C8010E94C61CF82EB8018F2D04C0C80101
:101A70000E94F21CB8010E94590E8C01BE010E9406
:101A8000090D882309F405C1BE01C8010E9469102F
:101A9000882309F4FEC0BE01C8010E94A212882357
:101AA00009F4F7C0053180E7180708F0A1C002303B
:101AB00080E7180708F477C08A81882309F47FC07B
:101AC0000E94A41E811102C00E948A1E0E94C11E93
:101AD00090E090932B0280932A02F801E350F047A4
:101AE000E231F10520F4E554FF4F0C946F2B809107
:101AF0002A02816003C080912A02826080932A02B8
:101B00004BC080912A028460F9CF80912A0213C0D1
:101B100080912A028061F2CF80912A028062EECF0A
:101B200080912A028064EACF80912A028068E6CF01
:101B300080912A0284608860E1CF80912A028E7FA2
:101B4000DDCF80912A028D7FD9CF80912A028B7FB1
:101B5000D5CF80912A0213C080912A028F7ECECFEA
:101B600080912A028F7DCACF80912A028F7BC6CFB7
:101B700080912A028F77C2CF80912A028B7F877F44
:101B8000BDCF90912A0297FB882780F921E0822718
:101B900080FB97F990932A0280912A020E94C51E29
:101BA0000E94731776C0011580E7180781F0013095
:101BB0001047A1F081E08093380180933901CE0174
:101BC000DF91CF911F910F91FF900C94070D8A81A7
:101BD000882309F45EC00E940B0D5BC08A818823B4
:101BE00009F457C08091F80181608093F80151C0D9
:101BF0000C3380E7180711F58A81882351F0109281
:101C000038010E94421F909337018093360182E091
:101C100025C08091380181110FC0809136019091CB
:101C200037010E944E1F883C910530F486E20E94E5
:101C3000E61386E20E94AE1482E018C00D3310470E
:101C400009F0B8CF8A81882361F0109239010E948F
:101C5000421F909337018093360180E20E94FD1469
:101C600018C080913901882321F080E20E94041578
:101C700010C080913601909137010E944E1F883C20
:101C8000910598F787E20E94E61387E20E94AE145E
:101C9000ECCF80E0DF91CF911F910F91FF900895DD
:101CA0000C94B5100C94B7100C94060D0C94540EB3
:101CB0000895E72FF0E097E0899FE00DF11D1124D2
:101CC00083E0EE0FFF1F8A95E1F7E60FF11DEE0F9F
:101CD000FF1FEB50F44F859194910895880F991F41
:101CE0008B509D4EFC018591949108950E94590E50
:101CF0000E94EC0F811520E49207B0F5811540E3B6
:101D0000940708F0DDC0803E9105D8F4803C910531
:101D100008F06BC0883A910578F4853A910508F08F
:101D200067C08130910509F456C108F40DC18430B3
:101D3000910508F050C108C18D3B910508F463C0BE
:101D400003C18F3F910509F048F4803F910508F0E9
:101D5000B1C0883E910508F43EC1F6C0811520E26D
:101D6000920708F0A9C00895811543E5940790F4FF
:101D7000811522E5920708F0C7C0811541E5940757
:101D800008F0BDC0811520E5920708F09CC09F7047
:101D9000906A0895811545E59407D0F4811524E5EE
:101DA000920708F0C6C0282F2695269540E2249F6A
:101DB00090011124AC014370552781E090E002C0EE
:101DC000880F991F4A95E2F7822B932B9A68089502
:101DD000811546E5940708F4B1C09C0130562115E1
:101DE000304108F0B1C09F70ADC0805C910965C002
:101DF000853A910509F4ABC0863A910509F4AAC069
:101E000083E890E40895883A910509F4A6C0893AD8
:101E1000910509F4A5C08A3A910509F4A4C08B3A4A
:101E2000910509F4A3C08C3A910509F4A2C08B3B3B
:101E3000910509F4A1C08C3B910509F4A0C08D3A2D
:101E4000910509F49FC0803B910509F49EC08E3A2C
:101E5000910509F49DC08F3A910509F49CC0813B1E
:101E6000910509F49BC0823B910509F49AC0833B1C
:101E7000910509F499C0843B910509F498C0853B0C
:101E8000910509F497C0863B910509F496C0873BFC
:101E9000910509F495C0883B910509F494C0893BEC
:101EA000910509F493C08A3B910509F092C08AE23A
:101EB00096E40895906508959F700E946E0E0895AF
:101EC0009927906C0895482F437021E030E002C0BC
:101ED000220F331F4A95E2F73C68AC0164E0569547
:101EE00047956A95E1F74370342B8F7086958695F8
:101EF00040E2849FC0011124822B932B0895982FD8
:101F00008827816F906A0895282F2695269540E2AC
:101F1000249F90011124AC014370552781E090E08B
:101F200002C0880F991F4A95E2F7822B932B9C6879
:101F30000895982F8827846F906A08958F71992744
:101F4000982F88279062089580E090E0089581E8B6
:101F500090E4089582E890E4089582EE94E4089570
:101F600089EE94E408958AEE94E4089585EB94E470
:101F7000089586EB94E4089583EB94E4089584EB4C
:101F800094E4089587EB94E408958CEC94E4089528
:101F90008DEC94E4089583E895E408958AE895E447
:101FA000089582E995E4089584E995E4089581E22D
:101FB00096E4089583E296E4089584E296E4089511
:101FC00085E296E4089586E296E4089587E296E431
:101FD000089580E094E408958238910549F1B0F4C1
:101FE0008133910509F459C048F48932910509F407
:101FF0004FC08A32910509F455C008958533910583
:1020000009F441C08933910599F00895833E910503
:1020100031F138F4803E910591F0823E9105A9F0AE
:102020000895863E910501F1873E910539F10895A5
:1020300020912A0220FD3BC021FD39C008958091E6
:102040002A0280FF34C089E341C080912A0282FFC6
:1020500032C080912A0284FF2CC080E037C080917A
:102060002A0282FD28C0F5CF80912A0283FF25C075
:1020700080912A0284FDF1CF87EE28C080912A0248
:1020800083FD1BC0F5CF80912A0285FF18C019C0BF
:1020900080912A0285FF15C012C080912A0286FF16
:1020A00012C013C080912A0286FF0FC00CC080EEC0
:1020B0000DC083EE0BC082EE09C086EE07C085E33B
:1020C00005C089E203C081E301C08AE290E008957F
:1020D0000895CF93DF93EC01FB018281811102C04F
:1020E00081E040C080914701811125C0C531D047B2
:1020F000B9F70E94681081E0809347010E94421F57
:10210000909346018093450110923A0110923C0150
:1021100010923B0110923E0110923D01109240013D
:1021200010923F011092420110924101109244011D
:102130001092430116C080914501909146010E9482
:102140004E1F883C910560F680913A01E82FF0E03F
:10215000EE0FFF1FE55CFE4FD183C0838F5F80933E
:102160003A0180E0DF91CF9108950C94020D0C9418
:10217000030DCF93DF9385B7806885BF85B78068EF
:1021800085BFABE1B1E021E030E08D91E82FE29531
:10219000EF70F0E041A18F70B90102C0660F771FA8
:1021A0008A95E2F7CB01962F9095492341A392A1FE
:1021B000982B92A371E0A232B70739F7A3E1B1E0FF
:1021C00021E030E08D91E82FE295EF70F0E041A141
:1021D0008F70B90102C0660F771F8A95E2F7CB01B5
:1021E000962F9095492341A392A1982B92A371E039
:1021F000AB31B70739F7E6E5F1E0CFE4D1E0A8E489
:10220000B1E0119219921D9281E0ED35F807C9F7FE
:10221000DF91CF910C94500E6F927F929F92AF926C
:10222000BF92CF92DF92EF92FF920F931F93CF93C3
:10223000DF930BE111E0C8E4D1E0EE24E394F12C4C
:10224000BB24B394AE0198801882D8012D918D01E2
:10225000E22FE295EF70F0E081A12F70B70102C08C
:10226000660F771F2A95E2F79B01862B81A382A137
:10227000A62EA0948A2182A370EA7A95F1F763E1F1
:10228000662E61E0762E80E090E0D3017D913D01E5
:10229000C72EC2943FE0C322D12CD6019096DC9089
:1022A000C8807F70D70102C0AA0FBB1F7A95E2F7E2
:1022B000DA2239F46E2D082E01C0660F0A94EAF76F
:1022C00001C060E06C296883019688309105E9F6C9
:1022D00081A18A2181A382A1822B82A32196FA0166
:1022E0008081981641F0B0925D010E94421F909348
:1022F0005F0180935E01F1E002321F0709F0A2CF77
:1023000080915D018823A1F080915E0190915F0131
:102310000E944E1F069760F0E8E4F1E0A6E5B1E008
:1023200081918D9361E0EF34F607D1F710925D0152
:102330000E94520E81E0DF91CF911F910F91FF908B
:10234000EF90DF90CF90BF90AF909F907F906F9075
:102350000895E82FF0E0EA5AFE4F8081089508952D
:10236000282F882339F090E02A3010F44D960895F4
:102370000697089587E290E00895E0910001F091BA
:10238000010180818093250281FF03C081EE0E94BC
:10239000AE148091250285FF03C085EE0E94AE1425
:1023A0008091250280FF03C080EE0E94AE148091D0
:1023B000250284FF03C084EE0E94AE1480912502A2
:1023C00082FF03C082EE0E94AE148091250286FF38
:1023D00003C086EE0E94AE148091250283FF03C0E5
:1023E00083EE0E94AE148091250287FF03C087EE22
:1023F0000E94AE14809160018130A1F078F08230AB
:1024000011F1843049F586EE0E94E61386EE0E94B3
:10241000AE1488E10E94E61388E11CC082EE0E949F
:10242000E6131AC080EE0E94E61381EE0E94E613C6
:1024300088E10E94E61388E10E94AE1481EE0E94BA
:10244000AE1480EE07C082EE0E94E61387E50E947C
:10245000E61387E50E94AE148FE39CE90197F1F73C
:1024600000C00000089580916001813029F010F0D3
:10247000823041F482EE04C08CE20E94E6138CE2CA
:102480000E94AE148091250281FF03C081EE0E945C
:10249000E6138091250285FF03C085EE0E94E613B6
:1024A0008091250280FF03C080EE0E94E613809198
:1024B000250284FF03C084EE0E94E613809125026A
:1024C00082FF03C082EE0E94E6138091250286FF00
:1024D00003C086EE0E94E6138091250283FF03C0AD
:1024E00083EE0E94E6138091250287FF03C087EEEA
:1024F0000C94E6130895FF920F931F93CF93DF93ED
:102500008C01CCE0D0E0C8010C2E02C096958795D6
:102510000A94E2F7282F2F70F22E822F0E94B0111A
:102520000E94E6138F2D0E94B0110E94AE142497D2
:10253000CC3F8FEFD80739F7DF91CF911F910F91E3
:10254000FF900895CF93DF93EC01C13080E8D80766
:1025500060F0FB018281882341F00E94BD11CE0111
:102560009F770E947B120E94331281E0DF91CF910E
:10257000089590936601809365010895E091650147
:10258000F0916601309721F00190F081E02D0994DF
:1025900080E00895E0916501F0916601309721F0A7
:1025A0000280F381E02D09940895E0916501F09196
:1025B0006601309721F00480F581E02D099408959B
:1025C00020916301309164018217930771F0909319
:1025D000640180936301E0916501F0916601309799
:1025E00021F00680F781E02D099408952091610182
:1025F000309162018217930771F09093620180938A
:102600006101E0916501F0916601309721F000844D
:10261000F185E02D0994089508950C940C130E94FF
:10262000391F0E94B9100C940320CF92DF92EF92D1
:10263000FF920F931F93CF93DF93CDB7DEB72B9706
:102640000FB6F894DEBF0FBECDBF0E940C1138E666
:10265000E32E31E0F32E00E010E0C02E802F0E9428
:10266000A911F701D1907F01D826B1F40F5F1F4F58
:102670000730110591F78FEF89838A831B820E94AF
:10268000421F8160782F9D838C8349815A816B81A1
:102690008D810E94B81341C09091F80191FF04C050
:1026A0008B870E94AF118B8520E030E04D2D50E0EC
:1026B000922FBA01022E02C0759567950A94E2F72F
:1026C00060FF25C02E83CF82EE24E394F12C02C05C
:1026D000EE0CFF1C9A95E2F790E08E219F2121E0FD
:1026E000892B09F420E028870E94421F8160782FFF
:1026F0009A8789874E815F8168858A850E94B81391
:10270000F801E859FE4F80818E25808306C02F5F37
:102710003F4F2830310561F6A9CF0E94A3221091C6
:1027200067010E94BE121817A1F00E94BE1280938A
:1027300067012B960FB6F894DEBF0FBECDBFDF91B9
:10274000CF911F910F91FF90EF90DF90CF900C945D
:10275000560E2B960FB6F894DEBF0FBECDBFDF919D
:10276000CF911F910F91FF90EF90DF90CF90089540
:10277000CF93DF93CDB7DEB72B970FB6F894DEBFBC
:102780000FBECDBF4F83588769877A878B87DE015D
:10279000119686E0FD0111928A95E9F785E0FE0128
:1027A000379601900D928A95E1F749815A816B81A4
:1027B0007C818D819E810E943D1A2B960FB6F894E4
:1027C000DEBF0FBECDBFDF91CF910895882309F4FE
:1027D000C4C0823859F40E94BE1281FDBEC089E394
:1027E0000E94911D0E945B1E89E30CC0833871F426
:1027F0000E94BE1280FDB1C083E50E94911D0E941F
:102800005B1E83E50E94D11D0C945B1E843859F435
:102810000E94BE1282FDA1C087E40E94911D0E9409
:102820005B1E87E4EFCF9CEF980F913A18F40E945B
:10283000911DEACF90E2980F983050F4877091E0A4
:1028400001C0990F8A95EAF7892F0E94121EDCCFEA
:102850009BE5980F933070F4853A29F0863A31F46D
:1028600082E890E005C081E890E002C083E890E053
:102870000C94E01298E5980F953108F06EC0883AF4
:1028800061F1893A69F18A3A71F18B3A79F18C3ABE
:1028900081F18B3B89F18C3B91F18D3A99F1803B31
:1028A000A1F18E3AA9F18F3AB1F1813BB9F1823BA6
:1028B000C1F1833BC9F1843BD1F1853BD9F1863B22
:1028C000E1F1873BE9F1883BF1F1893BF9F18A3B82
:1028D00009F03FC08AE292E03EC082EE90E03BC049
:1028E00089EE90E038C08AEE90E035C085EB90E04C
:1028F00032C086EB90E02FC083EB90E02CC084EBDD
:1029000090E029C087EB90E026C08CEC90E023C0DB
:102910008DEC90E020C083E891E01DC08AE891E052
:102920001AC082E991E017C084E991E014C081E205
:1029300092E011C083E292E00EC084E292E00BC00C
:1029400085E292E008C086E292E005C087E292E06C
:1029500002C080E090E00C94F6120895882309F4F8
:102960004BC0823859F40E94BE1281FF45C089E3F2
:102970000E94911D0E945B1E89E30CC0833871F494
:102980000E94BE1280FF38C083E50E94911D0E9404
:102990005B1E83E50E94D11D0C945B1E843859F4A4
:1029A0000E94BE1282FF28C087E40E94911D0E94EF
:1029B0005B1E87E4EFCF9CEF980F913A58F390E2BB
:1029C000980F983050F4877091E001C0990F8A9564
:1029D000EAF7892F0E94181EDFCF9BE5980F9330EE
:1029E00020F480E090E00C94E012885A853120F4C5
:1029F00080E090E00C94F6120895882321F00E9464
:102A0000121E0C945B1E0895882321F00E94181E4C
:102A10000C945B1E08958F929F92AF92BF92CF92BB
:102A2000DF92EF92FF920F931F93CF93DF931F924A
:102A3000CDB7DEB74C01A62E472FFC01E580E2940E
:102A40008FE0E822F280FF2021F079830E942F1E80
:102A5000498149830E948A1D4981882381F0FF2092
:102A600071F080E28A0D883050F082E00E94731D80
:102A70000E948A1DBB24B394B826498101C0B12CA1
:102A8000E42FE295EF70F0E0E353FF4F0C946F2BCF
:102A9000842F807F142F1F70882311F01295107FD0
:102AA000FF2099F0112309F499C180E28A0D883042
:102AB00010F0A11004C0812F0E94121E03C0812FAC
:102AC0000E94221E0E945B1E89C18A2D0E94AE14A4
:102AD000112309F49AC180E28A0D883010F0A11008
:102AE00004C0812F0E94181E03C0812F0E94281E3F
:102AF0000E945B1E8AC1242F207F842F8F7020327A
:102B000011F08295807FAA2021F0F1E0AF16B1F09C
:102B100021C0FF2041F0EE2039F191E0E91224C0FC
:102B20000E94421E72C1EE2021F0E1E0EE1609F48F
:102B30006CC189830E94451E89810BC1FF2029F049
:102B4000F5E0FE1508F461C10FC094E09E1508F48D
:102B50005CC1FFC0FF2059F0EE2031F0F4019581F7
:102B600090FF3CC19F7095830E94FD144EC1EE20E2
:102B700009F4EFC039C1242F26952695237030E043
:102B80002115310521F02130310561F03EC1FF20D2
:102B900021F08A2D942F937002C080E090E00E9473
:102BA000E01233C1FF2021F08A2D942F937002C0D0
:102BB00080E090E00E94F61228C18A2DFF2019F0D3
:102BC0000E94AB2102C00E9413220E9498221DC1C4
:102BD000842F837009F04EC0F11017C12A2D229561
:102BE00026952770220F220F8A2D8F70C82ED12C88
:102BF000E12CF12C022E04C0CC0CDD1CEE1CFF1CC1
:102C00000A94D2F7A4FE10C06FE070E080E090E07C
:102C100004C0660F771F881F991F2A95D2F7609509
:102C200070958095909503C060E070E0CB01242FF3
:102C300026952695237030E02230310569F0233047
:102C4000310589F06C297D298E299F292130310594
:102C500071F00E948F1BD9C06C297D298E299F2974
:102C60000E94A91BD2C00E948F1BC701B6010E94FF
:102C7000751BCBC0FF2019F0842F817001C0869591
:102C8000882309F4C2C02A2D229526952770220F89
:102C9000220F8A2D8F70C82ED12CE12CF12C022E00
:102CA00004C0CC0CDD1CEE1CFF1C0A94D2F7A4FE61
:102CB00010C06FE070E080E090E004C0660F771F06
:102CC000881F991F2A95D2F76095709580959095E9
:102CD00003C060E070E0CB01242F26952695237079
:102CE00030E02230310569F02330310589F06C295C
:102CF0007D298E299F292130310571F00E94631CA6
:102D000084C06C297D298E299F290E947D1C7DC04D
:102D10000E94631CC701B6010E94491C76C00A2D9F
:102D200010E0F801E05EF109E531F10508F052C06C
:102D3000E352FF4F0C946F2B1A2D1F70842F8F714D
:102D4000FF2021F00E94E21B812F0ECF0E94031C66
:102D5000812F0E94041559C0FF2049F0F4E0FE15B0
:102D600008F453C0842F8F710E94281C4EC085E048
:102D70008E1508F44AC0F6CFFF2039F0842F8F71EA
:102D80000E94E21B42C0FF20C9F3842F8F710E9472
:102D9000031C3BC0FF2029F0842F8F710E94CD1BA4
:102DA00034C00E94C31B31C0FF2051F0142F1F718B
:102DB000812F0E94E21B63E0812F0E946A1D25C0C3
:102DC00081E00E94731D91E09E15F8F482E00E945C
:102DD000731D1BC0FF2031F0EE2081F28A2D0E946E
:102DE000E61313C0EE2089F28A2D0E94AE140DC0A6
:102DF0004F706A2DC4010E949D0A0E94EA1A05C004
:102E00004F706A2DC4010E94580EBB20F1F00E9441
:102E1000661D80FD1AC0F40112820E94601D0E948E
:102E2000E21BC4010E9433170E94601D0F90DF91C6
:102E3000CF911F910F91FF90EF90DF90CF90BF90B7
:102E4000AF909F908F900C94031C0F90DF91CF91C7
:102E50001F910F91FF90EF90DF90CF90BF90AF90B8
:102E60009F908F9008950F931F93CF93DF93EC0162
:102E7000288139818B819C81892B31F03F3F11F072
:102E800080E003C02F3FE1F781E0811113C0CE0144
:102E90000E94180D882371F0688179818A810E94CF
:102EA0003D1D8C010E94971C0E946A1BB801CE0137
:102EB0000E940B15DF91CF911F910F9108950E94F1
:102EC0002F1E0E943F1E0E94041E0E945B1E0E9435
:102ED00044230E94982280E090E00E94E01280E06B
:102EE00090E00C94F6120E941F1E0C945F170E9433
:102EF000321DE92FE295EF70F0E03297EE30F105E8
:102F0000B8F4EE50FF4F0C946F2B803F59F018F43B
:102F1000803E70F407C0843F59F404C0803E10F036
:102F2000813F31F481E0089593FB882780F908956B
:102F300080E00895CF93DF9300D000D01F92CDB7EB
:102F4000DEB70F900F900F900F900F90DF91CF9101
:102F50000895CF93DF9300D000D000D0CDB7DEB777
:102F600026960FB6F894DEBF0FBECDBFDF91CF918E
:102F700008951F93CF93DF93C091700116E0809165
:102F80007101C81799F0D0E01C9FF0011D9FF00D52
:102F90001124EE58FE4F40815181628173818481FA
:102FA00095810E94A9172196C770E9CFDF91CF9133
:102FB0001F9108954091A2015091A3016091A40135
:102FC0007091A5018091A6019091A7010C94A91779
:102FD000CF938091A70182958F7009F05FC0809197
:102FE000A401882309F45AC020917001A0917101B5
:102FF0006091A2017091A3018091A5019091A60119
:1030000031E06F3F09F030E0B32FC6E02A1709F432
:1030100045C0009721F07F3F21F44B2F03C041E0D2
:1030200001C040E030E040FD35C0C29FF001C39FC9
:10303000F00D1124EE58FE4F418174132BC04081D6
:10304000641328C04281411125C04381548148172F
:10305000590710F441505109481B590B483C510580
:10306000C8F48091A7018F7080618093A70186E0EA
:10307000829FF001839FF00D1124E958FE4F80815B
:103080008F708061808382EA91E00E943317CF9134
:103090000C94B9172F5F3F4F2770B8CFCF91089589
:1030A000CF92DF92EF92FF920F931F93CF93DF9314
:1030B000CDB7DEB762970FB6F894DEBF0FBECDBFB7
:1030C0008C0185E0F801DE011D9601900D928A9534
:1030D000E1F7D8014C9111965C91119712966C9181
:1030E00012971396ED90FC9014977091A201E091C5
:1030F000A3012091A5013091A6012115310531F0E0
:10310000EF3F31F481E07F3F19F403C081E001C05B
:1031100080E0B82FB170CB2E80FD6CC1D090A4019F
:10312000DD2009F4F5C0F091A701E216F30638F0AE
:10313000C701821B930B883C910548F09BC02095EA
:1031400030952E0D3F1D283C310508F093C08F2F80
:10315000807F09F052C0E51314C0741312C0D62E3C
:1031600061110FC0FF70F061F093A7010E94DA17A0
:1031700082EA91E00E9433178091A701F8018583CC
:103180006CC1EF2831F05F3F31F481E04F3F19F41B
:1031900003C081E001C080E080FD03C081E086279C
:1031A00001C080E0F82FF170FF2E80FF1CC08091DD
:1031B00070012091710136E0821709F428C190E076
:1031C000389FF001399FF00D1124EE58FE4F7181A8
:1031D000571306C07081471303C07281671303C081
:1031E00001968770E9CFD62E662309F436C1809107
:1031F000A70181608093A70153C0E51308C0741331
:1032000006C0611104C0D8011596FC93AEC04D876D
:103210005E878D859E856A8B0E9477176A898823D1
:1032200029F1D62E662311F12091A701822F8295D4
:103230008F7090E002970CF460C08091A201909191
:10324000A30198878F831986FB86EA862C87CE0197
:10325000079651C0E51731F14D875E878D859E85B4
:103260006A8B0E9477176A8981112EC0C8010E945B
:103270003317A4C08F2F807F69F77E2DF98AE88AE3
:1032800089890E949A1782EA91E00E943317E2EA44
:10329000F1E086E0DF011D928A95E9F70E94DA17D6
:1032A000D12CDBC07413D8CF6111D6CFD8011596BD
:1032B000FC93C8010E943317E2EAF1E086E0DF01E7
:1032C0001D928A95E9F7C9C0D62E662379F220911E
:1032D000A701822F82958F7090E0029774F0809101
:1032E000A2019091A3019A8389831B82FD82EC82C3
:1032F0002E83CE0101960E94331786E0F801A2EAE0
:10330000B1E001900D928A95E1F70E94E8176FC035
:10331000E216F30628F0C701821B930B9C0104C040
:10332000209530952E0D3F1D283C310508F052C0E8
:10333000D62E662309F49ACFE5132CC074132AC045
:103340008091A70180FD1DC0982F92959F70C9F0B4
:10335000D80115968C9315979F3039F09F5F929501
:10336000907F8F70892B15968C93C8010E9433171C
:1033700086E0F801A2EAB1E001900D928A95E1F7AA
:1033800036C086E0F801A2EAB1E001900D928A957C
:10339000E1F763C04D875E878D859E850E94771714
:1033A000882379F086E0F801A2EAB1E001900D925D
:1033B0008A95E1F70E94E8170E94DA17DD24D3947A
:1033C0004CC08091A70181608093A701C8010E9431
:1033D000331743C07E2DF98AE88A89890E949A179B
:1033E000E2EAF1E086E0DF011D928A95E9F70E94AA
:1033F000DA1733C0662309F439CF4D875E878D8590
:103400009E850E947717882309F430CFCBCF4D8754
:103410005E878D859E850E94321D292F22952F70F3
:1034200030E0223031052CF49F7041F0811106C04C
:103430000CC0243031052CF49F7049F4805E883034
:1034400020F0C8010E943317CF2CDC2C06C0D80115
:1034500015969C91907F91F7F8CF8D2D62960FB6BF
:10346000F894DEBF0FBECDBFDF91CF911F910F91BA
:10347000FF90EF90DF90CF9008951F93CF93DF934D
:10348000CDB7DEB72C970FB6F894DEBF0FBECDBF19
:103490004F83588769877A878B879C87CE010796E9
:1034A0000E9450188823C1F02F8138858A859B851A
:1034B000892B31F03F3F11F080E003C02F3FE1F74F
:1034C00081E0811147C04F81588569857A858B8558
:1034D0009C850E94A9173EC086E0FE013796DE015A
:1034E000119601900D928A95E1F7FF81E8854A8552
:1034F0005B854115510531F0EF3F31F481E0FF3F2D
:1035000019F403C081E001C080E080FD23C0209158
:10351000710130E0C90101968770992760917001AF
:1035200070E086179707F1F1F983EA835D834C8396
:1035300096E0929FD001939FB00D1124AE58BE4FDC
:10354000FE01319601900D929A95E1F780937101F9
:103550000E94B91716E0809170019091710189174E
:1035600079F1189FC00111248E589E4F0E94501867
:10357000882331F1E09170011E9FF0011124EE5873
:10358000FE4F4081518162817381848195810E94C7
:10359000A9178091700190E0019687709927809318
:1035A0007001D9CF0E9473171092710110927001AF
:1035B000E2EAF1E086E0DF011D928A95E9F7CACFE1
:1035C0002C960FB6F894DEBF0FBECDBFDF91CF9122
:1035D0001F910895EF92FF920F931F93CF93DF9364
:1035E000FC01009709F46FC0F12CEE24E394EF0185
:1035F00021968491843740F4843008F055C081309E
:1036000081F0823021F15FC0853709F447C0C0F1F5
:103610009CE7980F903708F056C08F770E94AE1441
:1036200045C08F010E5F1F4FFE01849190E2980FFD
:10363000983050F48770FE2D01C0FF0F8A95EAF78D
:103640008F2F0E94321E15C00E94E61314C08F01F6
:103650000E5F1F4FFE01849190E2980F983068F43E
:103660008770FE2D01C0FF0F8A95EAF78F2F0E9409
:10367000381E0E945B1EE80119C00E94AE14FBCFE9
:10368000CF010296FE01C491CC2361F0EFE9FFE087
:103690003197F1F700C00000C150F6CFCF0102967C
:1036A000FE01F490EC0102C00E94E6138F2D8823E6
:1036B00041F0EFE9FFE03197F1F700C000008150E1
:1036C000F6CFFE0194CFDF91CF911F910F91FF9024
:1036D000EF90089508956093CF017093D001809387
:1036E000D1019093D2010C945F170F931F93009117
:1036F000CF011091D0012091D1013091D201062B40
:10370000172B282B392B0093CF011093D001209336
:10371000D1013093D2011F910F910C945F170F9339
:103720001F930091CF011091D0012091D1013091D0
:10373000D20106231723282339230093CF011093A6
:10374000D0012093D1013093D2011F910F910C949D
:103750005F170F931F930091CF011091D00120911B
:10376000D1013091D2010627172728273927009346
:10377000CF011093D0012093D1013093D2011F913A
:103780000F910C945F171092CB011092CC01109204
:10379000CD011092CE010C945F1741E050E060E043
:1037A00070E004C0440F551F661F771F8A95D2F73B
:1037B0004093CB015093CC016093CD017093CE0127
:1037C0000C945F1741E050E060E070E004C0440FEB
:1037D000551F661F771F8A95D2F78091CB01909174
:1037E000CC01A091CD01B091CE01842B952BA62BBD
:1037F000B72B8093CB019093CC01A093CD01B093D4
:10380000CE010C945F1741E050E060E070E004C02E
:10381000440F551F661F771F8A95D2F74095509524
:10382000609570958091CB019091CC01A091CD01D4
:10383000B091CE0184239523A623B7238093CB0197
:103840009093CC01A093CD01B093CE010C945F175F
:1038500041E050E060E070E004C0440F551F661F77
:10386000771F8A95D2F78091CB019091CC01A091DE
:10387000CD01B091CE0184279527A627B727809345
:10388000CB019093CC01A093CD01B093CE010C94C9
:103890005F170F931F930091CB011091CC012091E2
:1038A000CD013091CE01062B172B282B392B0093FD
:1038B000CB011093CC012093CD013093CE011F9109
:1038C0000F910C945F170F931F930091CB011091F0
:1038D000CC012091CD013091CE010623172328235E
:1038E00039230093CB011093CC012093CD01309369
:1038F000CE011F910F910C945F170F931F930091AE
:10390000CB011091CC012091CD013091CE01062741
:103910001727282739270093CB011093CC01209338
:10392000CD013093CE011F910F910C945F17089534
:1039300028E0929F800D1124482F46954695469584
:103940008770B1E001C0BB0F8A95EAF785E0489F18
:10395000A001112448555E4F80E090E070E0FA012C
:10396000E80FF91FA0819B01082E02C0369527950C
:103970000A94E2F72170332721952A272B232A273F
:10398000208301968530910551F7089528E0929F94
:10399000800D1124682F669566956695982F97700F
:1039A00085E0689FB001112468557E4F40E050E0EB
:1039B00080E0FB01E40FF51F208130E0092E02C0FA
:1039C000369527950A94E2F721703327042E01C01B
:1039D000220F0A94EAF7822B4F5F5F4F4530510563
:1039E00041F70895CF92DF92EF92FF920F931F93CA
:1039F000CF93DF93EC01C090CF01D090D001E09045
:103A0000D101F090D2018091CB019091CC01A09195
:103A1000CD01B091CE01C82AD92AEA2AFB2A0FE1AA
:103A200010E0B701A601002E04C076956795579562
:103A300047950A94D2F740FD05C00150110988F757
:103A400080E007C0BE01802F0E94760E0197A9F387
:103A5000802FDF91CF911F910F91FF90EF90DF901A
:103A6000CF900895CF93DF93EC010E94F21CBE012A
:103A70000E94760EDF91CF9108951F93CF93DF932D
:103A8000EB0190916F01992321F0CB010E94321D2F
:103A900013C0882349F0CB010E94F21C182F682F15
:103AA000CE010E94981C04C0CB010E94C61C182F96
:103AB000BE01812F0E94760EDF91CF911F91089554
:103AC0008091D30185958595859508958091D30141
:103AD0008770089598E0899F90011124622B60936C
:103AE000D3010C94E21B4091D301809584238093F1
:103AF000D301982F977069F450E0282F332727FDC2
:103B000030954217530729F08595859585950C9436
:103B1000031C08959091D301977081E009F480E02F
:103B20000895909112019923D9F090912A0297FF5C
:103B300017C0982F9695969596959F3188F5E091A8
:103B40000001F0910101E90FF11D877021E030E0E3
:103B500001C0220F8A95EAF78181822B8183089523
:103B6000409100015091010120E030E09FEFFA0107
:103B7000E20FF31F6281681799F09F3F19F46111FA
:103B800001C0922F2F5F3F4F2E31310581F79F3FAC
:103B900039F0FA01E90FF11D97FDFA958283089536
:103BA0000895909112019923E1F090912A0297FFD4
:103BB00018C0982F9695969596959F3120F5E0918F
:103BC0000001F0910101E90FF11D877021E030E063
:103BD00001C0220F8A95EAF720958181282321834D
:103BE0000895409100015091010120E030E0FA0178
:103BF000E20FF31F9281981301C012822F5F3F4F93
:103C00002E313105A1F7089581E090E0E0910001A7
:103C1000F0910101E80FF91F1082019680329105A1
:103C2000A9F708959091F701982B9093F7010895C3
:103C300080959091F70198239093F7010895109241
:103C4000F70108959091F601982B9093F60108954D
:103C500080959091F60198239093F6010895109223
:103C6000F60108959091F501982B9093F501089530
:103C700080959091F50198239093F5010895109205
:103C8000F50108958093D40108951092D401089508
:103C9000409100015091010120E030E080E0FA0104
:103CA000E20FF31F918191118F5F2F5F3F4F2F31F3
:103CB0003105A9F70895E0910001F091010180918B
:103CC000F7018083E0910001F091010180819091E2
:103CD000F601892B8083E0910001F0910101808140
:103CE0009091F501892B80839091D401992361F003
:103CF000E0910001F09101018081892B80830E9475
:103D0000481E81111092D40180910001909101010F
:103D10000C94CA126DEE7EEF80E090E00E94A92B19
:103D200060E082E090E00E94972B60E083E090E00A
:103D30000E94972B60E084E090E00E94972B60E067
:103D400085E090E00C94972B80E090E00E94912B0E
:103D500021E08D3E9E4F09F020E0822F089582E001
:103D600090E00C94892B682F82E090E00C94972BC4
:103D700083E090E00C94892B682F83E090E00C9412
:103D8000972B84E090E00C94892B682F84E090E0DE
:103D90000C94972B80913002843021F11092F9011C
:103DA00020E488E190E00FB6F894A8958093600035
:103DB0000FBE2093600080E00E94560E83B7817F83
:103DC000846083BF83B7816083BF7894889583B70D
:103DD0008E7F83BF88E10FB6F894809360001092C5
:103DE00060000FBE089508950895CF930E94F31EBA
:103DF0000E940C110E94F41EC0E08C2F0E94A91199
:103E0000811105C0CF5FC730C1F780E001C081E0FC
:103E1000CF9108950E9473170E94BE120C94560E03
:103E20001F920F920FB60F9211248F939F93AF930F
:103E3000BF938091F901811113C080912602909166
:103E40002702A0912802B09129024196A11DB11D1F
:103E50008093260290932702A0932802B093290210
:103E6000BF91AF919F918F910F900FBE0F901F90B8
:103E7000189582E084BD93E095BD9AEF97BD80933D
:103E80006E0008952FB7F894809126029091270232
:103E9000A0912802B09129022FBF0895CF92DF92FE
:103EA000EF92FF920F931F932FB7F8944091260241
:103EB0005091270260912802709129022FBF6A0158
:103EC0007B01EE24FF248C0120E030E0C016D106F7
:103ED000E206F30610F441505109481B590BCA0180
:103EE0001F910F91FF90EF90DF90CF9008951F9258
:103EF0000F920FB60F9211248F939F93AF93BF939E
:103F00008091260290912702A0912802B091290267
:103F10000196A11DB11D8093260290932702A093C4
:103F20002802B0932902BF91AF919F918F910F907A
:103F30000FBE0F901F9018950E944427F8942FEF02
:103F400087EA91E6215080409040E1F700C00000F0
:103F500087E090EBDC018093390290933A02A093C2
:103F60003B02B0933C022CE088E190E00FB6F8945D
:103F7000A895809360000FBE20936000FFCFDF9272
:103F8000EF92FF920F931F93CF93DF93D12C082FC3
:103F900010E08D2D0E94A911C0E0D0E0E82EF12C98
:103FA00097010C2E02C0359527950A94E2F720FD63
:103FB00005C02196C830D10599F70AC06C2F7D2D18
:103FC00080E00E94590E0817190799F781E005C093
:103FD000D39487E0D812DDCF80E0DF91CF911F919D
:103FE0000F91FF90EF90DF900895CF93C82F8CE250
:103FF0000E94BF1F882321F08C2FCF910C94BF1FEC
:1040000080E0CF910895CF930E94A41E811102C039
:104010000E948A1EC5E6C15049F00E940C118FE330
:104020009CE90197F1F700C00000F5CF89E20E94FA
:10403000F51F81110DC18AE20E94F51F81110E94B6
:104040008A1E85E00E94F51F81110E949C1F0E941C
:10405000AF1E8093F80187E00E94F51F882399F135
:104060008BE10E94F51F882351F09091F80191FB9C
:10407000882780F921E0822780FB91F922C08EE019
:104080000E94F51F882351F09091F80192FB882738
:1040900080F921E0822780FB92F913C080E10E9421
:1040A000F51F9091F801882341F093FB882780F950
:1040B00021E0822780FB93F904C0892F809580FB43
:1040C00090F99093F8018091F8010E94B31E0E942C
:1040D000C11E90E090932B0280932A0280EE0E94F2
:1040E000F51F882341F080912A02982F909590FB2C
:1040F00080F980932A0289E30E94F51F882359F0F2
:1041000090912A0291FB882780F921E0822780FB89
:1041100091F990932A0282EE0E94F51F882359F0AC
:1041200090912A0292FB882780F921E0822780FB68
:1041300092F990932A0286EE0E94F51F882359F087
:1041400090912A0293FB882780F921E0822780FB47
:1041500093F990932A0283EE0E94F51F882359F069
:1041600090912A0294FB882780F921E0822780FB26
:1041700094F990932A0285E30E94F51F882359F051
:1041800090912A0295FB882780F921E0822780FB05
:1041900095F990932A0281E30E94F51F882359F034
:1041A00090912A0296FB882780F921E0822780FBE4
:1041B00096F990932A0281E10E94F51F882359F015
:1041C00090912A0297FB882780F921E0822780FBC3
:1041D00097F990932A0280912A020E94C51E87E2D5
:1041E0000E94F51FC82F8EE10E94F51F8111C26049
:1041F0008FE10E94F51F8111C46080E20E94F51FCB
:104200008111C86081E20E94F51F8111C06182E2C4
:104210000E94F51F8111C06283E20E94F51F811187
:10422000C06484E20E94F51F882311F0C06802C0B8
:10423000CC2329F08C2F0E94BC1E6C2F03C00E943F
:10424000B81E682F70E080E090E0CF910C946B1B5B
:10425000CF9108958091FC0180FF0BC06091050112
:1042600085E0689FB00111247595679575956795F0
:104270002AC081FF09C06091050185E0689FB001F7
:104280001124759567951FC082FF07C060910501D5
:1042900085E0689FB001112416C04091FD014423C0
:1042A000C9F060910401461788F72091050185E067
:1042B000289F90011124429FC001439F900D11241B
:1042C00070E00E945B2B6038710540F46115710548
:1042D00039F002C065E070E0862F08958FE70895F9
:1042E00081E008958091FC0180FF08C06091030186
:1042F00070E0759567957595679521C081FF06C03B
:104300006091030170E07595679519C082FF04C044
:104310006091030170E010C08091FD018823C1F01D
:10432000609102018617A0F790910301989FC00148
:10433000112470E00E945B2B6038710528F4611530
:10434000710521F0862F08958FE7089581E0089583
:1043500061E070E0F4CF803F21F40E942A21819532
:1043600004C0813F29F40E942A218093000208950D
:10437000823F21F40E942A21819504C0833F29F4C1
:104380000E942A218093FF010895893F19F40E9419
:10439000722105C08A3F31F40E9472218195809379
:1043A000010208958B3F21F40E947221819504C07F
:1043B0008C3F29F40E947221809302020895843F69
:1043C00021F48091FE01816017C0853F21F4809126
:1043D000FE01826011C0863F21F48091FE0184605D
:1043E0000BC0873F21F48091FE01886005C0883FA3
:1043F00031F48091FE0180618093FE0108958D3F2C
:1044000021F48091FC0181600BC08E3F21F48091EA
:10441000FC01826005C08F3F29F48091FC0184601B
:104420008093FC010895803F39F48091000287FF5A
:104430006CC01092000269C0813F29F48091000293
:104440001816BCF362C09091FF01823F29F497FFD8
:104450005CC01092FF0159C0833F19F41916CCF3C8
:1044600054C0893F41F48091010218160CF04DC0F0
:10447000109201024AC08A3F29F48091010287FF0D
:1044800044C0F6CF8B3F39F48091020287FF3DC0D4
:10449000109202023AC08C3F29F480910202181651
:1044A000BCF333C0843F21F48091FE018E7F17C09E
:1044B000853F21F48091FE018D7F11C0863F21F45C
:1044C0008091FE018B7F0BC0873F21F48091FE011C
:1044D000877F05C0883F31F48091FE018F7E8093F5
:1044E000FE0113C08D3F21F48091FC018E7F0BC033
:1044F0008E3F21F48091FC018D7F05C08F3F29F410
:104500008091FC018B7F8093FC018091FF018111E0
:104510000EC08091000281110AC0809101028111B8
:1045200006C080910202811102C01092FD0108951F
:104530008EEF91E00E94D5120E94421F9093FB01E2
:104540008093FA0108951F93CF93DF938091FA012E
:104550009091FB010E944E1F4091FD01442321F0E8
:104560002091060130E006C0209107015AE0259F06
:10457000900111248217930708F482C08091FF01F3
:1045800010910002D0910102C0910202811107C076
:10459000111105C0D11103C0CC2309F471C04F3FE4
:1045A00019F04F5F4093FD01181624F40E942A2150
:1045B0008093FF018091FF0187FF05C00E942A219F
:1045C00081958093FF01111624F40E942A21809383
:1045D00000028091000287FF05C00E942A21819578
:1045E000809300026091FF01662339F1109100026F
:1045F000112319F1772767FD7095872F972F0E9458
:104600006C2A23E333E343E35FE30E94D02A0E9452
:10461000392A6093FF01612F772767FD7095872FF7
:10462000972F0E946C2A23E333E343E35FE30E9466
:10463000D02A0E94392A609300021D1624F40E9499
:104640007221809301028091010287FF05C00E94C0
:1046500072218195809301021C1624F40E9472211C
:10466000809302028091020287FF05C00E9472219E
:10467000819580930202DF91CF911F910C94982233
:10468000DF91CF911F910895EEEFF1E085E0DF011A
:104690001D928A95E9F71092FD011092FC01089590
:1046A000809123020895CF93DF9300D01F92CDB75E
:1046B000DEB720913002243019F523E029839B8353
:1046C0008A832093E9008FEF9091E800815095FD57
:1046D00006C095ED9A95F1F700008111F5CF809114
:1046E000E80085FF0DC040E050E063E070E0CE01DF
:1046F00001960E94B2258091E8008E778093E800B1
:104700000F900F900F90DF91CF910895CF93DF938B
:1047100000D01F92CDB7DEB720913002243031F5A2
:1047200022E02983805891099B838A8383E08093C8
:10473000E9008FEF9091E800815095FD06C095ED5E
:104740009A95F1F700008111F5CF8091E80085FF7F
:104750000DC040E050E063E070E0CE0101960E94A1
:10476000B2258091E8008E778093E8000F900F903B
:104770000F90DF91CF910895209130022430F1F411
:1047800022E02093E9002FEF3091E800215035FD21
:1047900006C035ED3A95F1F700002111F5CF2091D3
:1047A000E80025FF0BC040E050E065E070E00E94AB
:1047B000B2258091E8008E778093E8000895CF932A
:1047C000DF93EC0180913002843009F046C0909173
:1047D00012019923D9F090912A0297FF17C0809374
:1047E000E9008FEF9091E800815095FD06C095E1BA
:1047F0009A95F1F700008111F5CF8091E80085FFCF
:104800002CC040E050E060E270E017C081E080938F
:10481000E9008FEF9091E800815095FD06C095ED7D
:104820009A95F1F700008111F5CF8091E80085FF9E
:1048300014C040E050E068E070E0CE010E94B22574
:104840008091E8008E778093E80080E2FE01A3E08B
:10485000B2E001900D928A95E1F7DF91CF91089532
:1048600080912F02811109C00E9444270E94A12734
:104870008091E20084608093E200089510922F02FC
:104880000895089508950C940A1F42E061EC81E0B8
:104890000E94BE2642E061EC82E00E94BE2642E019
:1048A00061EC83E00E94BE2642E261EC84E00C945D
:1048B000BE2680913202833009F455C030F4813035
:1048C00071F0823009F48EC008958A3009F47AC0FC
:1048D0008B3009F460C0893009F09CC020C0809101
:1048E0003102813A09F096C08091E800877F809379
:1048F000E8008091350290913602892B21F060E02A
:1049000080E090E003C060E283E092E070E00E940B
:10491000FB258091E8008B778093E80008958091D3
:104920003102813209F076C08091350290913602D1
:10493000009719F0039709F06DC08091E800877F18
:104940008093E8008091E80082FD05C080913002EC
:104950008111F8CF5FC08091F10080932302809194
:10496000E8008B7753C080913102813A09F052C040
:104970008091350290913602892B09F04BC08091CD
:10498000E800877F8093E8008091E80080FFFCCFFB
:104990008091120136C0809131028132D9F5809127
:1049A000350290913602892BA9F58091E800877F26
:1049B0008093E8000E94F3268091330280931201D5
:1049C0000C94731780913102813221F58091E800B7
:1049D000877F8093E8000E94F326809134028093C1
:1049E0002402089580913102813AA1F48091E80077
:1049F000877F8093E8008091E80080FFFCCF809162
:104A000024028093F1008091E8008E778093E80083
:104A10000C94F326089584B7877F84BF88E10FB68E
:104A2000F89480936000109260000FBE80E880933D
:104A30006100109261000E940D130E9444270E94A1
:104A4000A1278091E20084608093E20078940E9424
:104A50001C2A0E940F1388E091E00E94B9128091F5
:104A60003002853069F40E94CA1E80912E0288238C
:104A7000B1F30E94F51E882391F30E949C25EFCF8D
:104A80000E941513ECCF292F332723303105A9F0CD
:104A90006CF42130310509F442C02230310509F0AF
:104AA00043C08DE690E023E333E142C0213231057B
:104AB000C9F02232310519F137C0992781309105AB
:104AC00041F08230910541F0892B71F5EFE2F3E17D
:104AD00005C0E9E0F3E102C0E5EFF2E1849190E086
:104AE0009F0126C0643000F5E62FF0E0EE0FFF1FB7
:104AF000E25DFE4F2081318189E090E019C0643091
:104B000098F4E62FF0E0DF01AA0FBB1FAA5DBE4FAD
:104B10002D913C91EE5DFE4F808190E009C082E1D5
:104B200090E020EA33E104C080E090E020E030E053
:104B3000FA0131832083089580E189BD82E189BD36
:104B400009B400FEFDCF8091D8008F7D8093D800FE
:104B50008091E00082608093E0008091E00081FD20
:104B6000FCCF0895CF92DF92EF92FF920F931F93A5
:104B7000CF93DF937C018B01EA010E9414278111FE
:104B800031C0209731F088819981081B190BE80EFC
:104B9000F91EC12CD12C0115110519F18091E800E5
:104BA00085FD14C08091E8008E778093E8002097FF
:104BB00041F0888199818C0D9D1D9983888385E0C2
:104BC00011C00E941427882331F30CC0F701819192
:104BD0007F018093F10001501109FFEFCF1ADF0A26
:104BE000DACF80E0DF91CF911F910F91FF90EF908E
:104BF000DF90CF9008952091370230913802261728
:104C0000370748F06115710539F42091E8002E77D7
:104C10002093E80001C0B901FC0120E06115710595
:104C2000B9F180913002882309F440C0853009F43D
:104C30003FC08091E80083FD3DC08091E80082FF85
:104C400006C08091E80082FF26C080E00895809130
:104C5000E80080FFE3CF2091F3008091F20090E024
:104C6000922B6115710551F08830910538F421912E
:104C70002093F100615071090196F3CF21E008976C
:104C800009F020E08091E8008E778093E800C6CF9D
:104C90002111C7CFD6CF80913002882339F08530DB
:104CA00039F08091E80083FFCCCF04C082E0089502
:104CB00083E0089581E00895209137023091380211
:104CC0002617370748F06115710539F42091E8007F
:104CD0002E772093E80001C0B901FC0120E06115A6
:104CE0007105C1F180913002882309F441C08530FB
:104CF00009F440C08091E80083FD3EC08091E80047
:104D000082FF06C08091E80082FF27C080E00895FE
:104D10008091E80080FFE3CF2091F3008091F200C2
:104D200090E0922B6115710559F08830910540F49F
:104D300024912093F1003196615071090196F2CFD0
:104D400021E0089709F020E08091E8008E778093B9
:104D5000E800C5CF2111C6CFD5CF8091300288237E
:104D600039F0853039F08091E80083FFCBCF04C063
:104D700082E0089583E0089581E00895982F9730A8
:104D800058F59093E900981739F07091EC00209154
:104D9000ED005091F00003C0242F762F50E021FF4A
:104DA00019C03091EB003E7F3093EB003091ED0065
:104DB0003D7F3093ED003091EB0031603093EB009C
:104DC0007093EC002093ED005093F0002091EE00E2
:104DD00027FF07C09F5FD3CF8F708093E90081E0EA
:104DE000089580E008958091310287FD05C080918B
:104DF000E80080FF0EC012C08091E80082FD05C06F
:104E0000809130028111F8CF08958091E8008B776E
:104E100008C0809130028111EACF08958091E800A6
:104E20008E778093E80008958091E4009091E500EA
:104E300045E62091EC0020FF21C02091E80020FDF4
:104E400021C020913002222389F0253089F0209161
:104E5000EB0025FD0FC02091E4003091E5002817FC
:104E6000390739F3415041F0C901E3CF82E0089599
:104E700083E0089581E0089584E008952091E8009A
:104E800022FFDFCF80E008950E94B2270E94BA2758
:104E9000E0EEF0E0808181608083E8EDF0E08081E9
:104EA0008F77808319BCA7EDB0E08C918E7F8C93B7
:104EB00080818F7E808310922F0208950F931F931D
:104EC000CF93DF930E94B2270E94BA27C8EDD0E0AB
:104ED00088818F77888388818068888388818F7DA7
:104EE000888319BC1092300210922C0210922E026C
:104EF00010922D0200EE10E0F80180818B7F8083FC
:104F000088818160888342E060E080E00E94BE2664
:104F1000E1EEF0E080818E7F8083E2EEF0E0808140
:104F200081608083808188608083F80180818E7FAA
:104F30008083888180618883DF91CF911F910F9159
:104F40000895E8EDF0E080818F7E8083E7EDF0E06A
:104F500080818160808384E082BF81E080932F0222
:104F60000C945E27E8EDF0E080818E7F80831092C4
:104F7000E20008951092DA001092E10008951F9265
:104F80000F920FB60F9211242F933F934F935F937D
:104F90006F937F938F939F93AF93BF93EF93FF9301
:104FA0008091E10082FF0BC08091E20082FF07C088
:104FB0008091E1008B7F8093E1000E941B2A809109
:104FC000DA0080FF1FC08091D80080FF1BC0809155
:104FD000DA008E7F8093DA008091D90080FF0DC0C7
:104FE00080E189BD82E189BD09B400FEFDCF81E089
:104FF000809330020E94302405C019BC1092300208
:105000000E943E248091E10080FF19C08091E2005F
:1050100080FF15C08091E2008E7F8093E200809136
:10502000E20080618093E2008091D80080628093EA
:10503000D80019BC85E0809330020E944224809100
:10504000E10084FF30C08091E20084FF2CC080E149
:1050500089BD82E189BD09B400FEFDCF8091D800F1
:105060008F7D8093D8008091E1008F7E8093E10056
:105070008091E2008F7E8093E2008091E200816067
:105080008093E20080912C02882311F084E007C015
:105090008091E30087FF02C083E001C081E080933C
:1050A00030020E9443248091E10083FF29C0809157
:1050B000E20083FF25C08091E100877F8093E100BB
:1050C00082E08093300210922C028091E1008E7F6A
:1050D0008093E1008091E2008E7F8093E2008091D6
:1050E000E20080618093E20042E060E080E00E94A4
:1050F000BE268091F00088608093F0000E944124D9
:10510000FF91EF91BF91AF919F918F917F916F919F
:105110005F914F913F912F910F900FBE0F901F9075
:1051200018951F920F920FB60F9211242F933F9351
:105130004F935F936F937F938F939F93AF93BF939F
:10514000CF93EF93FF93C091E900CF708091EC0073
:105150001092E9008091F000877F8093F0007894AE
:105160000E94CD281092E9008091F0008860809321
:10517000F000C093E900FF91EF91CF91BF91AF9103
:105180009F918F917F916F915F914F913F912F915F
:105190000F900FBE0F901F9018951F93CF93DF9322
:1051A000CDB7DEB7AA970FB6F894DEBF0FBECDBF5E
:1051B000E1E3F2E08091F100819322E0E933F2072C
:1051C000C9F70E9459248091E80083FF1CC12091F7
:1051D000310230913202832F90E08A30910508F03D
:1051E00012C1FC01E050FF4F0C946F2B203881F06E
:1051F000223809F008C1809135028F708093E90050
:105200008091EB0085FB882780F91092E90006C0A9
:1052100080912D0290912E02911182609091E80070
:10522000977F9093E8008093F1001092F100C5C041
:10523000822F8D7F09F0E7C0222319F0223061F020
:10524000E2C080913302813009F0DDC0333009F0D3
:1052500080E080932E0228C080913302811124C007
:10526000209135022F7009F4CEC02093E90080917F
:10527000EB0080FF19C08091EB00333011F48062A5
:1052800011C080618093EB0081E090E0022E01C0AC
:10529000880F0A94EAF78093EA001092EA0080915E
:1052A000EB0088608093EB001092E9008091E800A9
:1052B000877F86C02111A7C0109133021F7780918C
:1052C000E3008078812B8093E3008091E800877F62
:1052D0008093E8000E94F3268091E80080FFFCCFD5
:1052E0008091E30080688093E300112311F083E054
:1052F00001C082E08093300286C02058223008F03E
:1053000082C080913302909134028C3D23E0920759
:1053100079F583E08A838AE289834FB7F894DE01C6
:10532000139620E03EE051E2E32FF0E05093570067
:10533000E49120FF03C0E295EF703F5FEF708E2F86
:1053400090E0EA3010F0C79601C0C0968D939D930F
:105350002F5F243149F74FBF8091E800877F80930A
:10536000E8006AE270E0CE0101960E94FB2514C0BD
:10537000AE014F5F5F4F609135020E944325009759
:1053800009F441C02091E800277F2093E800BC0188
:1053900089819A810E945C268091E8008B778093B6
:1053A000E80031C0203879F58091E800877F80934C
:1053B000E80080912C028093F1008091E8008E77C4
:1053C0008093E8000E94F3261EC021111CC090911A
:1053D00033029230C0F48091E800877F8093E80028
:1053E00090932C020E94F32680912C02811104C01C
:1053F0008091E30087FF02C084E001C081E08093D8
:1054000030020E9445248091E80083FF0AC0809109
:10541000E800877F8093E8008091EB0080628093B2
:10542000EB00AA960FB6F894DEBF0FBECDBFDF919A
:10543000CF911F9108950895CF93809130028823D2
:10544000B1F08091E9008F709091EC0090FF02C064
:1054500090E801C090E0C92FC82B1092E90080911C
:10546000E80083FD0E94CD28CF70C093E900CF9162
:10547000089504D06894B1118DC0089570D088F05B
:105480009F5790F0B92F9927B751A0F0D1F0660F30
:10549000771F881F991F1AF0BA95C9F712C0B1304B
:1054A00081F077D0B1E0089574C0672F782F8827F6
:1054B000B85F39F0B93FCCF3869577956795B3958A
:1054C000D9F73EF490958095709561957F4F8F4FF9
:1054D0009F4F0895E89409C097FB3EF490958095FE
:1054E000709561957F4F8F4F9F4F9923A9F0F92FAA
:1054F00096E9BB279395F695879577956795B79528
:10550000F111F8CFFAF4BB0F11F460FF1BC06F5F0D
:105510007F4F8F4F9F4F16C0882311F096E911C01F
:10552000772321F09EE8872F762F05C0662371F040
:1055300096E8862F70E060E02AF09A95660F771F54
:10554000881FDAF7880F9695879597F9089557FD84
:105550009058440F551F59F05F3F71F04795880FE1
:1055600097FB991F61F09F3F79F087950895121678
:1055700013061406551FF2CF4695F1DF08C0161624
:1055800017061806991FF1CF8695710561050894D5
:105590000895E894BB2766277727CB0197F90895EC
:1055A0000BD078C069D028F06ED018F0952309F0A0
:1055B0005AC05FC01124EECFCADFA0F3959FD1F38C
:1055C000950F50E0551F629FF001729FBB27F00DB1
:1055D000B11D639FAA27F00DB11DAA1F649F662706
:1055E000B00DA11D661F829F2227B00DA11D621F55
:1055F000739FB00DA11D621F839FA00D611D221F0F
:10560000749F3327A00D611D231F849F600D211DF2
:10561000822F762F6A2F11249F5750408AF0E1F095
:1056200088234AF0EE0FFF1FBB1F661F771F881FDE
:1056300091505040A9F79E3F510570F014C0AACF79
:105640005F3FECF3983EDCF3869577956795B795C9
:10565000F795E7959F5FC1F7FE2B880F911D9695F3
:10566000879597F9089597F99F6780E870E060E063
:1056700008959FEF80EC089500240A9416161706EB
:1056800018060906089500240A9412161306140633
:1056900005060895092E0394000C11F4882352F096
:1056A000BB0F40F4BF2B11F460FF04C06F5F7F4F4E
:1056B0008F4F9F4F089597FB072E16F4009407D045
:1056C00077FD09D00E94752B07FC05D03EF490951C
:1056D00081959F4F0895709561957F4F0895EE0FC6
:1056E000FF1F0590F491E02D0994AA1BBB1B51E10B
:1056F00007C0AA1FBB1FA617B70710F0A61BB70B42
:10570000881F991F5A95A9F780959095BC01CD01E6
:105710000895F999FECF92BD81BDF89A992780B579
:105720000895A8E1B0E042E050E00C94B12B262FA0
:10573000F999FECF92BD81BDF89A019700B4021687
:1057400039F01FBA20BD0FB6F894FA9AF99A0FBE35
:1057500008950196272F0E94982B0C94972BDC011B
:10576000CB01FC01F999FECF06C0F2BDE1BDF89A6C
:10577000319600B40D9241505040B8F70895F89416
:02578000FFCF59
:10578200D5012808140A321E5023DF23BC238623A6
:105792005323013536F7F6F5F4F1F09190373332B1
:1057A2003130404D36396E142114EB13B2134513C8
:0657B2005E137713901353
:00000001FF
